:020000040800F2
:1000000048130020810100080D270008FB25000887
:1000100000000000000000000000000000000000E0
:100020000000000000000000000000000D2B000890
:100030000000000000000000D52A00080F2B000877
:10004000B1010008B1010008B1010008B1010008C8
:10005000B1010008B1010008B1010008B1010008B8
:10006000B1010008B1010008B1010008B1010008A8
:10007000B1010008B1010008B1010008B101000898
:10008000B10100080000000000000000B1010008FC
:1000900000000000B1010008B1010008B101000832
:1000A00000000000B1010008B1010008B101000822
:1000B000292F000800000000A1060008A13B00084D
:1000C00000F002F800F030F80CA030C8083824180E
:1000D0002D18A246671EAB4654465D46AC4201D180
:1000E00000F022F87E460F3E0FCCB6460126334282
:1000F00000D0FB1AA246AB46334318470843000022
:10010000284300000023002400250026103A01D3D4
:1001100078C1FBD8520700D330C100D50B607047BF
:100120001FB51FBD10B510BD00F055F91146FFF702
:10013000F7FF03F069FD00F06DF903B4FFF7F2FF7C
:1001400003BC00F073F9000070B505460C46164676
:1001500002E00FCC0FC5103E102EFAD2082E02D3AB
:1001600003CC03C5083E042E07D301CC01C5361FBE
:1001700003E021782970641C6D1C761EF9D270BDD5
:100180000F4880F308880F480168090E0E4A914213
:1001900005D10E480E4901600E480F4901600F4815
:1001A00080470F480047FEE7FEE7FEE7FEE7FEE771
:1001B000FEE700000B480C490C4A0D4B704700004D
:1001C00048130020040000001F0000001810024027
:1001D0000100000000000140000000008D2B00081D
:1001E000C1000008480D002048130020480F0020DF
:1001F000480F0020F8B5042A2CD3830712D00B78BF
:10020000491C0370401C521E83070BD00B78491CFD
:100210000370401C521E830704D00B78491C0370E6
:10022000401C521E8B079B0F05D0C91ADF002023EC
:10023000DE1B08C90AE0FFF787FFF8BD1D4608C9A5
:10024000FD401C46B4402C4310C0121F042AF5D2B6
:10025000F308C91A521EF0D40B78491C0370401CD5
:10026000521EEAD40B78491C0370401C012AE4D4C6
:1002700009780170F8BD002203098B422CD3030AD0
:100280008B4211D300239C464EE003460B433CD4E3
:10029000002243088B4231D303098B421CD3030A4B
:1002A0008B4201D394463FE0C3098B4201D3CB017B
:1002B000C01A524183098B4201D38B01C01A5241AB
:1002C00043098B4201D34B01C01A524103098B42AF
:1002D00001D30B01C01A5241C3088B4201D3CB009A
:1002E000C01A524183088B4201D38B00C01A52417D
:1002F00043088B4201D34B00C01A5241411A00D22D
:1003000001465241104670475DE0CA0F00D0494295
:10031000031000D34042534000229C4603098B4205
:100320002DD3030A8B4212D3FC22890112BA030A8D
:100330008B420CD3890192118B4208D3890192110F
:100340008B4204D389013AD0921100E08909C30994
:100350008B4201D3CB01C01A524183098B4201D396
:100360008B01C01A524143098B4201D34B01C01A81
:10037000524103098B4201D30B01C01A5241C308F9
:100380008B4201D3CB00C01A524183088B4201D368
:100390008B00C01A5241D9D243088B4201D34B0083
:1003A000C01A5241411A00D20146634652415B10C5
:1003B000104601D34042002B00D5494270476346A6
:1003C0005B1000D3404201B50020C046C04602BDCC
:1003D000704770477047754600F024F8AE46050038
:1003E00069465346C008C000854618B020B5FFF7DF
:1003F000E1FE60BC00274908B6460026C0C5C0C55E
:10040000C0C5C0C5C0C5C0C5C0C5C0C5403D490008
:100410008D46704710B50446C046C0462046FFF7DB
:100420008CFE10BD00487047E80C002001491820E0
:10043000ABBEFEE726000200704770B58C18057849
:10044000401C6B075B0F01D10378401C2A1106D1B9
:100450000278401C03E00678401C0E70491C5B1EAD
:10046000F9D12B0705D40023521E0DD40B70491C63
:10047000FAE70378401CCB1A921C03E01D780D703C
:10048000491C5B1C521EF9D5A142D8D3002070BD77
:1004900010B502E0044800F011FF044800F018FB1A
:1004A0000328F7D0002010BDBC01002078010020F7
:1004B00070B5002959D0826B0B011C46FF340568CA
:1004C000B1342D5904263540956005682D594ED01C
:1004D000ED08556005682C59A407E40FD4601C464C
:1004E000FF340568B5342D592D072D0F15610568AA
:1004F0002C592404240ED46111621C46FF34056873
:10050000B9342D59157505682D592D0A557505688D
:100510002D592D0C957505682C59FF33240ED47573
:100520000468BD33E45814760468E458240A547609
:100530000468E458240C94760468E35820241B0EC5
:10054000D3760268002915D013692343136102682A
:1005500053695024A343536102462032537F222B18
:100560000FD0537F322B0CD011E0426BA4E76D0DFE
:100570001560AFE7D3682343D360026853690A2448
:10058000E8E703685C698F252D02AC435C611223A8
:1005900001240029517F06D0522913D0622913D09B
:1005A000722906D112E042290CD0622906D07229A4
:1005B00006D0547700F0AAFB002070BD322106E07F
:1005C000522104E05377F5E7222100E042215177E0
:1005D000F0E710B5042807DD202805D0212803D036
:1005E000222801D103F072FD002010BD00207047C9
:1005F00010B500220549064802F085FD034904486C
:10060000803902F076FD002010BD0000600B002054
:100610007C02002070B50E460546002407E003F07A
:1006200079FE0028285D0ED003F00EFD641C3068B2
:10063000A042F4D12946084802F05BFD064802F0CA
:1006400032FD002070BD03F0FFFC0028EED003480F
:1006500003F05CFBEAE700007C020020E00B0020D6
:1006600010B50C460B498969FF31FF3102314969E8
:10067000002901D0012010BD014622460648FFF79F
:10068000B9FD22460449054802F03DFD034802F049
:1006900081FD10BD7C040020600B00207C02002046
:1006A00010B5024800F018F910BD000078010020D4
:1006B0000648C06906210840022803D0042803D058
:1006C000AA207047BB207047CC2070470020024012
:1006D000F8B5134E0746304600F046F800281ED104
:1006E0001049C861104C20692025284320612069E9
:1006F000402108432061304600F036F82169A943C3
:10070000216100280BD1206910252843206107486A
:100710000780304600F028F82169A9432161F8BD1F
:1007200050C30000C80C00200020024000F8FF1F4A
:1007300010B50B4A0020D168CB060A4904D5C86918
:1007400002231843C8611020D3685B0705D5CB6925
:1007500001242343CB6104210843D06010BD000075
:1007600000200240C80C002070B5044600F06EFD69
:100770000546104E0AE0601C08D0002C04D000F0A2
:1007800065FD401BA04201D9032070BDF068C00781
:10079000F1D1F068800601D52020F060F068C00635
:1007A00002D4F068400703D5FFF7C2FF012070BDF7
:1007B000002070BD00200240F0B50B7D01229A4060
:1007C0000368FF33FF3302331C683F252D02AC431F
:1007D0004D6A2D026D1C2C431C600368FF33FF33F0
:1007E0000233DC699443DC610924A401CB69251D33
:1007F000002B1AD10368FF33FF330233DE689643C0
:10080000DE608B898E881B04B6B24F69334306685D
:10081000FF003F19F3510B890E881B04B6B24F69D4
:1008200033430668FF007F19F351CB69012B1AD1BE
:100830000368FF33FF330233DE681643DE600B8844
:100840008E881B04B6B24F6933430668FF003C191B
:1008500033510B898C891B04A4B24E69234304686D
:10086000F600751963518B69002B036813D0FF33B1
:10087000FF3302335C6814435C600B69002B036830
:100880000FD0FF33FF3302335C6914435C61096AA4
:1008900001290CD012E0FF33FF3302335C6894432C
:1008A000EAE7FF33FF3302335C699443EEE7016804
:1008B000FF31FF310231CB691343CB610068FF3058
:1008C000FF30023001684908490001600020F0BD96
:1008D0007047006C70470000F8B5044600680025BA
:1008E000C1681027C906002905DA4169C94309070B
:1008F00001D47D01C76020680169C90607D5416937
:10090000C943490603D4012189020D4307612168C7
:1009100048692646C043C007203600283DD18A6872
:100920006648904307D08A686548904303D08A6838
:100930006448904331D18868800705D48868800571
:1009400002D48868800320D54A69204652085200A4
:100950004A61717F122905D1036859698F221202F9
:1009600091435961717F422908D0522908D07229D8
:1009700008D00121717700F0ABFA09E0222202E0F1
:10098000322200E062227277F5E70120C0020543BF
:10099000206881684C4A1143816020684169C943DD
:1009A000890706D4C068800703D000212046FFF7DE
:1009B0007FFD20684169C943C90606D400698007E4
:1009C00003D001212046FFF773FD206C28432064EB
:1009D00020688169C9070BD04169C943C90507D49B
:1009E0004169C943090403D4216C012211432164E4
:1009F000816989070BD54169C943890507D44169D4
:100A0000C943090403D4216C022211432164816982
:100A10000422490700290ADA4169C943490506D475
:100A20004169C943090402D4216C114321648169DD
:100A30004906490F22D04169C94309051ED44169BD
:100A4000C94309041AD481697023194040292AD066
:100A500006DC102909D020290AD030290BD11FE04B
:100A6000502923D0602906D123E0216C082523E0FA
:100A7000216C39432164816999438161206C00288C
:100A80000DD02068416811434160012070772068D3
:100A900041690E4A114041612046FFF719FFF8BD38
:100AA000216C202508E0216C402505E0216C802583
:100AB00002E0216CFF2501352943DBE7010000043A
:100AC000000100080000011019050100A470FFFFDB
:100AD000F8B5044600200090002C06D025462035AD
:100AE000687F0026002802D005E00120F8BD2E779F
:100AF000204600F089F802216977206802688A435D
:100B000002602068016801221143016000F09EFB31
:100B1000074604E000F09AFBC01B0A285DD8206855
:100B20004068C007F6D020684168C90761D0A26953
:100B30008021012A02683ED08A430260E069402198
:100B400001282068026838D08A430260206A202188
:100B500001282068026832D08A430260606A10214E
:100B60000128206802682CD08A430260A06A08210C
:100B700001282068026826D08A430260E06A0128C2
:100B80002068016821D0042291430160E168A068D7
:100B9000626908432169114308436168491E08439B
:100BA0002168C8612068016849084900016000F0B7
:100BB0004DFB074615E00A43BFE70A43C5E70A4372
:100BC000CBE70A43D1E70A43D7E704221143DCE726
:100BD00000F03CFBC01B0A2803D9032068772E775E
:100BE000F8BD20684068C007F2D120684068C0079F
:100BF00002D00098002804D02664012068770020E5
:100C0000F8BD0420687770E700B500680E4987B02A
:100C1000884217D10D48C269012149060A43C261C1
:100C2000C069084005900320000200900220019056
:100C30000020029003200390042004906946044899
:100C400000F062FA07B000BD0064004000100240EE
:100C50000004004870B502462032137F012B0BD0F0
:100C600001230024622572261377002906D001296A
:100C700019D000290ED022E0022070BD537F222B14
:100C800026D0537F422B23D0537F622B20D0537F1B
:100C9000722B1DD0537F122B1CD0322B1FD0522B06
:100CA0001FD0222319E0537F322B11D0537F522BB8
:100CB0000ED0537F622B0BD0537F722B08D0537F03
:100CC000122B09D0222B0AD0422B0AD0322304E067
:100CD0001477D1E7422300E05223537702E055779F
:100CE00000E05677046403685D698F263602354359
:100CF0005D61147700680029416904D050221143D6
:100D00004161002070BD0A22F9E700000248017825
:100D1000012211430170704700000020F8B50F4612
:100D2000016804468868254640012035002805DB17
:100D30008868000102D48868C00076D5287F012821
:100D40000AD001202877687F222807D0322807D0D0
:100D500062280CD0122004E00220F8BD422000E0FE
:100D6000522068778868400103D5002607E072208A
:100D7000F7E78868000101D5012600E0022630016E
:100D80008446FF3081300A58D207D20F0A50216BB7
:100D900022688B689646002B48D012581343CA68C5
:100DA0004968C90011430B4372461350216B0A7CFA
:100DB0001207120F0A616146FF31853123688E46A2
:100DC00059580A09120171465A5023685A58216B22
:100DD00009690A4371465A50216BCA7D0B7D120680
:100DE00013438A7D497D120409020A431343624674
:100DF000FF32216889328B50216BCA7E0B7E12062E
:100E000013438A7E497E120409020A431343624651
:100E1000FF3221688D328B5021680A5801231A4312
:100E20000A5000F013FA009027E047E01358CA6810
:100E3000098813434905B6E7781C1ED0002F05D05A
:100E400000F004FA0099401AB84216D903206877D6
:100E5000002E0BD02068012E81680BD00122D20514
:100E600011438160002028770320F8BD2068816845
:100E70008022F5E70122D203F2E7002E0FD020688E
:100E8000012E81680FD00F488843D5D1687F422852
:100E90000BD052280BD072280ED0012008E0206819
:100EA00081680948F0E70948EEE7222000E0322097
:100EB000687700202877F8BD6220F9E7042068777A
:100EC0000120F8BD0000011001000004000100082D
:100ED00070470000F8B5FFF7EBFB0F4FC6B238467E
:100EE000FFF742FC002815D10C49C8610C4C206961
:100EF000202528432061206940210843206138468D
:100F0000FFF732FC2169A9432161002802D1304654
:100F1000FFF7DEFBF8BD000050C30000C80C002046
:100F20000020024070B504460720054D2060286A65
:100F3000A060FFF7BDFB2073E869000A607370BD15
:100F400000200240F8B5484D0446297E01200129C1
:100F500014D00121297621780026C907002940D024
:100F60006068217A01284148006A09D00843C7B265
:100F70003F48FFF7F9FB002819D030E00220F8BD08
:100F80008843C7B23A48FFF7EFFB002827D1EE614C
:100F9000FFF7A0FF002822D1344B1969102211431A
:100FA0001961FF2F16D03348018939400EE0EE61F8
:100FB000FFF790FF002812D12C4B19691022114322
:100FC0001961FF2F06D02B48018939430181284838
:100FD000FFF7CAFB25490A6910239A430A610028D2
:100FE0003FD12178890704D5207BFFF771FB0028CA
:100FF00037D1217849071AD5607B00901C48FFF74C
:10100000B3FB002811D1EE61184800691027174979
:10101000384308611749009848801548FFF7A4FB3A
:1010200012490969114AB9431161002819D121787F
:10103000090716D520690090277D0D48FFF794FB1E
:1010400000280ED1EE61094C20691021084320616F
:10105000009807800648FFF787FB2169102291431B
:1010600021612E76F8BD0000C80C0020002002404F
:1010700050C3000000F8FF1F03480169802211439C
:1010800001610020704700000020024010B50548B3
:10109000016901225203114301610348FFF764FB18
:1010A00010BD00000020024050C300000348016949
:1010B000421591430161002070470000002002406A
:1010C00005480169890505D40449816004498160A6
:1010D000002070470120704700200240230167452F
:1010E000AB89EFCD05480169090605D50449416082
:1010F00004494160002070470120704700200240F1
:1011000023016745AB89EFCDF8B5002288E00124C3
:101110009440A44623407DD04C68022C01D0122C70
:101120000CD1D408A4002618356A5407E40E0F2702
:10113000A740BD430F69A7402F433762066855009B
:101140000324AC400F79A643BF07BF0FAF4037431E
:1011500007604E68012E05D0022E03D0112E01D05B
:10116000122E0ED18668CF68A643AF403743876002
:1011700047686646B7430E79F606F60F96403E433B
:101180004660C668A6438C68AC403443C4604C6873
:10119000E40044D5254CA56901263543A561A46921
:1011A000950834400094224CAD002F19BD68940777
:1011B000240F0F26A640B5430926F606B04201D1FA
:1011C00000260AE01B4EB04201D1012605E01A4E6E
:1011D000B04201D1022600E00526A6402E43BE60A3
:1011E000164D2C684E689C43F60300D51C432C60BA
:1011F0006C684E689C43B60300D51C436C60AC68B9
:101200004E689C43F60200D51C43AC60EC684E6807
:101210009C4300E003E0B60200D51C43EC60521C86
:101220000B681C46D44000D071E7F8BD00100240A6
:10123000000001400004004800080048000401408C
:10124000002A01D0816170478162704701480068BF
:10125000704700005800002070B504000FD02168CE
:101260001348086021681348086003CC4160206877
:10127000083C21688860FFF7E9FF054608E0012087
:1012800070BDFFF7E3FF401B272801D9032070BD85
:101290002068C0680028F4D120680269E1688A42A9
:1012A00001D0016101E004490160002070BD00002F
:1012B000CCCC000055550000AAAA000000680249E5
:1012C0000160002070470000AAAA000002480168DF
:1012D000491C0160704700005800002010B5064806
:1012E0000168102211430160002000F007F800F0AF
:1012F00017F8002010BD00000020024010B5044681
:1013000000F0B2FE7D21C900FEF7B5FF01F0FEF846
:1013100000222146501E00F039F8002010BD0000C8
:1013200008B50F488169012211438161816911402B
:101330000091C26901040A43C261C06900220840E9
:1013400000901146501F00F021F800221146901E17
:1013500000F01CF800221146501E00F017F808BDDE
:1013600000100240C106C90E0120884001490860F2
:101370007047000080E100E0C106C90E01208840EE
:10138000014908607047000000E100E010B501F07D
:10139000BFF910BD10B50C0606D54906490E1C2430
:1013A00061430818283004E01C2461430818FF300A
:1013B000093099B2002A06D001228272C180190C2C
:1013C0000181002010BD002282728180F9E71C2279
:1013D0004A43121810B5FF30FF300230926BC069DB
:1013E00002F07DF810BD1C224A43121810B5FF30E0
:1013F000FF32FF30013202309269C06902F0CAF850
:1014000010BD0000F0B54A06520E13461C256A4373
:10141000CC091218002C01D0283201E0FF32093229
:1014200013700346C909FF335170E133197A01295A
:101430003DD001211972957A494C002D49495578C2
:1014400037D0002D05681678AC465BD0B600AD5B92
:101450006F0404D5444F0D403D436746BD530568B6
:101460001678AC46B600AD5B6F0605D53C4F0D4017
:1014700040373D436746BD5315780668AF00F55BBE
:101480000D4039490D43F553364F117830373D4003
:1014900006688900254375521178334A006889002F
:1014A000F13A15402543455200201872F0BD022044
:1014B000F0BD002D05681678AC4610D0B600AD5BC7
:1014C0006F0605D50D40264940310D4361468D53C9
:1014D000117800688900234D425A30350EE0B6007D
:1014E000AD5B6F0404D50D401F490D4361468D531C
:1014F0001178006889001C4D425AF13D2A40224370
:101500004252D1E7B600AD5B6F0404D5164F0D40D3
:101510003D436746BD5305681678AC46B600AD5BE3
:101520006F0605D50E4F0D4040373D436746BD530E
:1015300015780668AF00F55B0D40094940310D4351
:10154000F553094F1178F13F3D4006688900254366
:1015500075521178034A890000683032A1E7000013
:10156000808000008F8F000080C00000F0B54B0627
:10157000CA095B0E002A04D01C225A4312182832D2
:1015800004E01C224A431218FF32093200249470EE
:101590001370C90951700146FF31E1310B7A012BFB
:1015A0001AD001230B7253781A4E002B137804685B
:1015B00014D09D00635B5F0603D53340164E334362
:1015C000635303681078134C80001A5A3034224059
:1015D00010246240202414E00220F0BD9D00635BD3
:1015E0005F0403D533400D4E3343635303681078D3
:1015F0000A4C80001A5AF13C224001242403624024
:1016000064006240044C403C22431A52002008729D
:10161000F0BD00008F8F0000C080000080C000007F
:101620004906490E1C2251430818FF300130008C36
:1016300080B27047F0B54D066D0E1C246C43CE0988
:101640002418002E01D0283401E0FF34093425701D
:10165000C90961700146FF31E260E131E3708C46F7
:10166000097A01290DD0012261460A72E178934B73
:10167000002908D001291ED002290DD0032923D129
:1016800011E00220F0BD2278016892008D5A1D40C1
:10169000FF35FF35023504E02278016892008D5A4B
:1016A0001D408D5210E02278016892008D5A1D4035
:1016B00003235B0206E02278016892008D5A1D40E8
:1016C00001239B02EB188B5226780768B300FD5A62
:1016D0007B497C4A0D4015433543FD52A37A002BCC
:1016E00053D02378784E0D4007689B003543FD5258
:1016F000E38850265D0803686D00F65AF6182378D3
:10170000DF0001239B02FB18F552238950265D0858
:1017100003686D00F65AF6182378DF005311FB18A2
:10172000F5526378002B77D0237807689D007B5BA8
:101730005E0403D5654E0B4033437B532378076823
:101740009D007B5B5E0604D55E4E0B404036334306
:101750007B53237805689E00AB5B0B405B490B43D2
:10176000AB53574E21783036334005688900134318
:101770006B522178554C00688900F13C234013439B
:101780004352002061460872F0BD6378002BA388A5
:101790001FD05D0803685026F65A6D00F6182378AE
:1017A000DF0001239B02FB18F552237807689D0098
:1017B0007B5B5E0604D50B40424940310B437B53B3
:1017C0002178006889003E4C435A3034234020245D
:1017D00040E05D0803685026F65A6D00F61823783D
:1017E000DF003B4BFB18F55203685025ED5A384E8D
:1017F000EB182578B61CED00AD195E19E3683E2B99
:101800000BD9DD022D0CDB0601D16D1EADB2AB0292
:101810000125ED032B4307E01EE0DD032D0CDB0764
:1018200001D06D1CADB2AB023380237807689D00F8
:101830007B5B5E0403D50B4024490B437B5321782B
:1018400000688900214C435AF13C234001242403C1
:1018500063406400634092E7237805689F00EB5B78
:101860005E0403D5194E0B403343EB5323780768CE
:101870009D007B5B5E0604D5124E0B404036334321
:101880007B53237805689E00AB5B0B400D494031CC
:101890000B43AB530D4E2178F13E33400126360306
:1018A0007340760073400568890013436B522178BA
:1018B000034C89000068303460E700008F89000025
:1018C0008F8F0000808000008081000080C00000B9
:1018D00004040000F0B54D066D0E1C246C43241862
:1018E000FF34002619344CC41C3C66702570E26835
:1018F0001D46934203D91346AA1A626100E066614D
:10190000A67A49060122890DD203002E2F4D0668C2
:101910000CD05027BF5BBE192F1FC91976183E2B5C
:1019200015D9D902090CDF060CD00DE05027BF5B9A
:101930004919BE19751820E08902114300E0890297
:10194000298032E0491E89B28902114306E0D90399
:10195000090CDF0701D0491C89B289023180617806
:10196000002902D0012918D01FE001685026765ABC
:1019700071182678F60075194D193E2B06D9D90233
:10198000090CDB06D8D1491E89B2D5E7D903090C69
:10199000DA07D4D0491C89B2D1E701685022525AE3
:1019A00051182278D20052198B5221780068890090
:1019B000425A074B1A4001231B035A405B005A400E
:1019C000044B1A4342520020F0BD00000604000000
:1019D0008FBF000080800000F0B50346FF33E13385
:1019E0001A7A012A0BD001254A06CC09520E1D7223
:1019F000002C06D01C2454432418283406E002206E
:101A0000F0BD1C244C432418FF340934A570227007
:101A1000CD0965700126360310270F4C002A09D026
:101A200049060068C90D425A002D0CD00B4D2A40C2
:101A30007A400CE000680A4A018811407140794000
:101A40002143018005E0064D303D2A40724022438B
:101A5000425200201872F0BD80800000BF8F00004D
:101A6000BFBF0000F0B506461D464806400E1C23C9
:101A700043439C190023E5632364A26301222834B5
:101A800062702070E0682A46854203D90546101A24
:101A9000606100E06361A07A2A4F002810D02278AC
:101AA00030689200825C49065206890D002A16DAD7
:101AB0005022125A10183A1D89184552228914E0F2
:101AC000ABB2A2882169306800F0F1FF3068502184
:101AD000095A08182178C900C919455220E0502236
:101AE000125A1018C9194552E288ABB22169306800
:101AF00000F0DDFF6078144A002802D0012807D0EA
:101B00000EE0217830688900435A13400F4A05E0FF
:101B1000217830688900435A13400D4A13434352D9
:101B2000207831688000084B0A5A30331A4010235D
:101B30005A4020235A40054B403B1A430A5200208A
:101B4000F0BD0000020400008F8F0000C080000084
:101B500080C0000070B50446006840308088C00B2B
:101B600002D0204600F0F6FD20684030818849050B
:101B70000AD58188334A11408180204600F0DAF886
:101B80000021204600F000F9206840308188490497
:101B900003D581882C4A114081802068403081889B
:101BA000890403D58188294A11408180206840300A
:101BB00081880425C904002910DA0188A94301801D
:101BC000BD202168000240310880204600F0BEF8A8
:101BD0002068403081881E4A114081802068403052
:101BE0008188090517D581881A4A114081802068AB
:101BF000403001880822114301802068403001886C
:101C000029430180206840308088C043C00402D549
:101C1000204600F0E3F8206840308188890506D529
:101C200081880D4A11408180204600F0A5F8206887
:101C300040308188C90503D58188084A11408180D8
:101C400070BD0000FFFB0000FFBF0000FFDF0000D1
:101C5000FFEF0000FFF70000FFFD0000FFFE0000A7
:101C6000F8B500270446002807D02546FF35E135A2
:101C7000687A0026002802D005E00120F8BD2E7207
:101C8000204600F03BF80320687201220BE01C2084
:101C900078430019014620314A720F72CE724663B2
:101CA00086637F1CC6636068B842F0D800210BE0F1
:101CB0001C2048430019FF30013046720172C67281
:101CC00046618661491CC66160688842F0D8206818
:101CD0004030028020684030068020684030868096
:101CE000206840300682BF20216800024031088011
:101CF000203426716A720020F8BD000008B5006823
:101D00000A49884210D10A48C2690121C9050A431B
:101D1000C261C06900220840009011461F20FFF7F1
:101D200035FB1F20FFF728FB08BD0000005C0040CA
:101D30000010024010B5C41DFF34FA340121E069DF
:101D400001F02FFDE06901F0F4FC10BD10B5044670
:101D50008069002806D00748016906229143016185
:101D600000F0DBFEFF34FF340234E06901F004FDD3
:101D700010BD000000ED00E0FF3010B5FF30023074
:101D8000C06901F0FFFC10BD0246FF32E132137A58
:101D9000012B08D001231372002906D020300171D5
:101DA0000020107270470220704700688021403088
:101DB0008181F5E710B5872189000A580146FF3176
:101DC000ED31104601F003FD10BD00684030018B7D
:101DD0000122D203114301830020704710B504464D
:101DE000FF30FF300230C06901F046FDA0690028D5
:101DF00004D00348016906221143016110BD0000AF
:101E000000ED00E0F8B5044600683F4DC00354D52E
:101E1000E8690026C00007D4E96928040143E961A4
:101E2000E96901400126009138480168C90511D4CB
:101E3000014608688A1510430860FFF707FA07464D
:101E400004E0FFF703FAC01B642823D82F4800687A
:101E5000C005F6D5286A0321090208401FD0626830
:101E60000A4082421BD0286A2A6A88430121090459
:101E70000A432A622A6A8A432A622862C0070ED06D
:101E8000FFF7E4F9074607E0FFF7E0F9C11B204838
:101E9000814201D90320F8BD286A8007F4D5286A59
:101EA000032109028843616808432862002E04D098
:101EB000E969012000078143E9612078C00705D066
:101EC000286BA1688008800008432863207880067A
:101ED00005D5286B10218843E168084328632068F2
:101EE000800305D5286B80218843616908432863F6
:101EF0002088400505D5286B402188432169084387
:101F000028630020F8BD000000100240007000406F
:101F100088130000F8B505464E480E460068C00715
:101F2000C00FB0420AD24B4801684908490031430A
:101F300001600068C007C00FB04270D12878464FDA
:101F4000800705D57868F0218843A9680843786040
:101F50002878C00753D06868012817D0022818D005
:101F6000032819D039688907002958DA796889085F
:101F7000890001437960FFF769F904466868012820
:101F800013D002281DD0032827D034E039688903F4
:101F9000EAE739688901E7E7796BC903E4E7FFF706
:101FA00055F9011B2D48814223D878680007800F1E
:101FB0000128F4D123E0FFF749F9011B27488142AA
:101FC00017D878680007800F0228F4D117E0FFF7D0
:101FD0003DF9011B214881420BD878680007800F2A
:101FE0000328F4D10BE0FFF731F9011B1B488142B4
:101FF00001D90320F8BD78680007800FF3D1154898
:102000000168C907C90FB1420BD9016849084900E5
:10201000314301600068C007C00FB04201D0012009
:10202000F8BD2878400706D578680721090288435B
:10203000E9680843786000F02DF87968084A0906D5
:10204000090F515CC840074908600020FFF756F9A6
:102050000020F8BD0020024000100240881300005C
:10206000EC4300085C000020014800687047000055
:102070005C0000200448054900684968044A490595
:10208000490F515CC84070475C00002000100240BE
:10209000FC43000830B516A00FC889B06C460FC4C9
:1020A00017A00FC80FC41A4D6A680C2011460140D2
:1020B0001848042905D0184B082904D00C2900D150
:1020C000184609B030BD9102090F6C46645CE96A9C
:1020D00004AD0907090FD203695C920F022A02D0EE
:1020E000032A00D11846FEF7C6F86043E9E700006E
:1020F00002030405060708090A0B0C0D0E0F101049
:102100000102030405060708090A0B0C0D0E0F1047
:102110000010024000127A00006CDC02FEB504469A
:102120000078EF4EEF4DC00747D068680007800F7A
:10213000012818D068680007800F022804D1686859
:10214000C003800F02280ED06068012812D0012140
:102150008904002801D0052816D02868B0432860DB
:102160002868884308E02868800326D5606800282E
:1021700073D022E02868304328606068002810D0BF
:10218000FFF764F8074608E0286808432860F1E78D
:10219000FFF75CF8C01B642870D828688003F7D567
:1021A0000BE0FFF753F8074604E0FFF74FF8C01BBA
:1021B0006428F1D828688003F7D4207880073ED5BA
:1021C00068680007800F14D068680007800F022835
:1021D00004D16868C003800F01280AD0E068002895
:1021E00028681DD0012108432860FFF72FF8074613
:1021F0000BE0286880070BD5E06801282DD107E0A7
:10220000FFF724F8C01B0228C6D828688007F7D536
:102210002868F82188432169C900084328600EE036
:10222000400840002860FFF711F8074604E0FFF778
:102230000DF8C01B0228AFD828688007F7D4207893
:10224000000724D5E0690028686A10D001210843FE
:102250006862FEF7FBFF074605E03FE1FEF7F6FF89
:10226000C01B022898D8686A8007F7D50FE040089D
:1022700040006862FEF7EAFF074605E0C3E0FEF7AC
:10228000E5FFC01B022887D8686A8007F7D420784A
:1022900004274007002861DA00200190E869C000A7
:1022A00008D4E969B8060143E961E9690140012000
:1022B000009101908C480168C90511D4016882150C
:1022C00011430160FEF7C2FF009005E0FEF7BEFF7C
:1022D0000099401A642897D883480068C005F5D54E
:1022E000A06801280AD0002801D0052811D0286A4A
:1022F000400840002862286AB84302E0286A0121A9
:1023000008432862A068002812D0FEF79FFF0090C3
:102310000AE0286A38432862F0E7FEF797FF009941
:10232000411A724881426ED8286A8007F5D50DE0BF
:10233000FEF78CFF009006E0FEF788FF0099411A37
:102340006A4881425FD8286A8007F5D4019800283E
:1023500004D0E869012109078843E8612078C006B4
:1023600035D5606901280CD0401D686B24D03843F6
:102370006863686B400840006863FEF767FF0746C4
:1023800022E0686B38436863686B01210843686327
:10239000FEF75CFF074604E0FEF758FFC01B02286B
:1023A00031D8686B8007F7D5686BF8218843A1693D
:1023B000C900084368630AE0B8436863F4E7FEF7BE
:1023C00045FFC01B02281ED8686B8007F7D4207811
:1023D000800637D568680007800F032814D0686826
:1023E0000007800F022804D16868C003800F03280B
:1023F0000AD0206A0028686B16D030436863FEF765
:1024000025FF06460CE062E0686BC0031AD5206A1F
:10241000012863D116E0FEF719FF801B022856D869
:10242000686BC003F7D50DE0B0436863FEF70EFF9D
:10243000064604E0FEF70AFF801B022847D8686BB7
:10244000C003F7D4606A002846D069680907890F7D
:10245000022943D001273F060228286805D0B84347
:102460002860FEF7F3FE044633E0B8432860FEF729
:10247000EDFE064604E0FEF7E9FE801B022826D8A2
:1024800028688001F7D4E86A216B0009000108433D
:10249000E862A16AE06A084369687B22D20391433B
:1024A00008436860286838432860FEF7CFFE04467A
:1024B00004E0FEF7CBFE001B022808D82868800144
:1024C000F7D509E0FEF7C2FE001B022801D9032060
:1024D000FEBD28688001F5D40020FEBD0120FEBDB0
:1024E000000001000010024000700040881300004E
:1024F000042204490428086902D090430861704707
:102500001043FBE700E000E070470000094910B508
:10251000401E884201D9012010BD074C6061032193
:10252000081F00F0F5F80020A061072020610020BE
:1025300010BD0000FFFFFF0000E000E010B5FFF756
:10254000E3FF10BD70B5040005D025466035687AFC
:10255000002802D006E0012070BD0020287220462D
:1025600000F026F8242068722068016849084900B4
:102570000160204600F010FC0128EDD0606A0028C0
:1025800002D0204600F030FB206841680922D202C8
:1025900091434160206881682A22914381602068CC
:1025A0000168012211430160204600F083FB70BDE9
:1025B00000B500680E4987B0884217D10D48C2693E
:1025C000012149040A43C261C069084005900C20FA
:1025D000009002200190002002900320039001202F
:1025E000049009206946C006FEF78EFD07B000BDC5
:1025F00000440040001002407047FEE710B50F484D
:102600000D4901600321416001221206C2600021D0
:102610000522816052040261032212054261816138
:102620000162416201228162C261C162FEF750FA19
:10263000002800D0FEE710BD0064004078010020B3
:1026400010B5154886B04269012189050A434261E7
:1026500042690A400592426949110A43426142694E
:102660000A400592426949000A43426140690B4CA5
:1026700008400590002201212046FEF7E1FD0121DE
:102680000091019100210291039169462046FEF7D5
:102690003BFD06B010BD00000010024000140048D1
:1026A00010B50C480A490160E1214902416000214E
:1026B0008160C16001618161C1610C22016242617E
:1026C0004162FFF73FFF002800D0FEE710BD000089
:1026D00000440040CC01002010B500220749084802
:1026E00000F0BEFE0749064801F0F5F80649044827
:1026F00000F0F5FC024801F03FF910BD0C0000208D
:102700007C020020400100204000002070470000B3
:102710008307FF22DB0E9A408907090E99400028A3
:102720000BDA0007000F0838830808489B001818C8
:10273000C36993430B43C3617047830804489B00FC
:102740001818036893430B430360704700ED00E0E3
:1027500000E400E0F0B585B004460020694608803A
:1027600020462030029073E19A8917073F0F24D04A
:10277000B9000191415A19801A8812047ED5BC4AC9
:102780001140019A81521C2078430519FF35093503
:10279000A87A0028206872D029788A00825A5204C8
:1027A0006ED55022125ACB00B24912185918515AFC
:1027B0008E05B60D7ED0EA88BDE09A89D2062AD46D
:1027C0000188AD4A25461140018020685021095AF0
:1027D000283509182878C200A6481018085A80051C
:1027E000800D2064A16B0818A06300212046FEF72D
:1027F000EEFD029800790028B5D068690028B2D1B2
:10280000029800798021084321684031888102992B
:10281000002008711CE12546FF35028809351A8021
:102820001B881B0519D5098A09182878C200914808
:10283000001D1018085A294683059B0DAB61AA8814
:10284000E431206800F01EF92068894A01881140AF
:1028500001802046FFF7AEFAFAE0694609880904CC
:10286000D8D58349834E0A40028020685021095AF6
:10287000361D08182978C900891902E07FE03CE07C
:102880004DE0405A83059B0DAB6108D0AA882969A9
:10289000206800F0F7F8A96928694018286100212C
:1028A0002046FEF7A0FD20685021095A0818821919
:1028B000E86800E043E03E280AD9C102090CC006DE
:1028C00001D1491E89B288020121C903084306E0EB
:1028D000C103090CC00701D0491C89B288021080CD
:1028E0002068664A018811400122120351405200BB
:1028F0005140634A11430180AAE05021095A0A1845
:102900002978CB005B49091D5918515A8E05B60D1F
:1029100020D0AA883346296900F0B4F81AE0502282
:10292000CB00125A53491218091D5918515A8E05D5
:10293000B60D04D02A893346296900F0A3F8297816
:10294000206889004C4B425A80331A404C4B40332C
:102950001A434252A8698019A861286982192A611C
:102960006B69002B02D0E868B04204D92978204670
:10297000FEF739FD03E029782046FEF7ABFF6846F5
:102980000088000664D51C204743206801993A4A14
:10299000415A3D191140019A28358152A87A0028E0
:1029A000206811D029788A00825C52061ED55022F8
:1029B000125AC90012182F480818105A83059B0D87
:1029C000AB6124D0EA881EE05021095A0918287802
:1029D000C20028481018085A83059B0DAB6121D00E
:1029E000AA882969206800F062F81BE05022125A78
:1029F000C90012181F48001D0818105A83059B0DA6
:102A0000AB6104D02A892969206800F050F8297840
:102A100020688900184B425A80331A40174BF13313
:102A20001A43425220685021095A09182878C200D6
:102A300010481018085A8005800DA86129690A18E5
:102A40002A616B692978002B20460DD0FFF70AF820
:102A50002068014640318A886B469A81120400D56D
:102A600082E6002005B0F0BDFEF7B1FCF0E7000003
:102A70008F0F0000020400000F8F00008FBF0000C6
:102A800080800000101810B5012292025C088018A6
:102A9000002C07D002880A70120A4A70801C891C18
:102AA000641EF7D1DA0701D00078087010BD101845
:102AB00001225B1C920210B55B088018002B08D025
:102AC0004C780A78240214430480801C891C5B1E05
:102AD000F6D110BD704700B587B06846FEF722FA00
:102AE00004200090772069464873FEF7FBFAFEF752
:102AF000E7FAFEF7EFF96846FEF724FAFEF7D6FA92
:102B0000FEF7BAFAFEF7C2FA07B000BD704710B57B
:102B1000FEF7DCFBFFF712FD10BD10B598B02820C2
:102B20000090012008900024079009946846FFF760
:102B3000F5FA002800D0FEE707200D9003200E9044
:102B40000F94012110940DA8FFF7E4F9002800D09C
:102B5000FEE7012040041694119011A8FFF752F9E6
:102B6000002800D0FEE7FFF77FFA7D21C900FDF7BE
:102B700082FBFFF7CBFC0420FFF7BAFC00221146D2
:102B8000501EFEF703FC18B010BD0000134801688A
:102B90000122114301604168114A114041600168FE
:102BA000104A1140016001680122920491430160C2
:102BB00041683F22120491434160C16A0909090139
:102BC000C162016BFF22D43291430163416B49081A
:102BD00049004163002181607047000000100240FD
:102BE0000CB8FF08FFFFF6FE10B5818CC90707D0AF
:102BF00001684A6801235B049A43836A1A434A6066
:102C0000818C890707D501684A6801231B049A4310
:102C1000C36A1A434A60818C490707D501684A682C
:102C200001239B049A43036B1A434A60818C090772
:102C300007D501684A680123DB039A43436B1A43B3
:102C40004A60818CC90607D501688A6801231B0385
:102C50009A43836B1A438A60818C890607D5016881
:102C60008A6801235B039A43C36B1A438A60818C91
:102C7000490612D501684B6801221205046C934382
:102C800023434B60016C914207D101684A680323DA
:102C90005B059A43436C1A434A60818C090607D549
:102CA00001684A680123DB04806C9A4302434A604E
:102CB00010BD0000F8B500250446C566FEF7C6FA4B
:102CC00006461449206888421DD10068124F00074B
:102CD00009D501213346002249052046009700F01E
:102CE000F3F800280DD12068006840070BD50121BA
:102CF0003346002289052046009700F0E5F80028B9
:102D000001D00320F8BD202060346072A0722572CB
:102D10000020F8BD00380140FFFFFF0170B50246FA
:102D2000403201466031938B8D7A0C460168222D2A
:102D300005D08869082210438861022070BD898C03
:102D4000012685683603B54202D10569002D0BD0F6
:102D50001940436D5D1C45651970518B491E09046E
:102D6000090C518307D015E0456D19402980416D4C
:102D7000891C4165F1E701680A68FF2321339A4302
:102D80000A6001688A68520852008A602021A17294
:102D9000FFF732FC002070BDF8B50446A368226935
:102DA000E56913436269102000212A431343226816
:102DB0000E4615683E4F3D401D431560226853681E
:102DC00003252D03AB43E5682B435360A369226AB7
:102DD0001343226895680B273F02BD431D4395604E
:102DE000344A2568954210D1334A126B9207920FEC
:102DF0000ED0012A05D0022A05D0032A09D10220CB
:102E000007E0042005E0082003E02C4A954200D1A9
:102E100000200122E369D203934224D100280CD080
:102E200002280DD0042813D0082817D001260A093B
:102E300012010807400F10432FE0FFF71BF909E0CC
:102E400061681F4A48088018FDF715FA81B2EEE75D
:102E5000FFF720F9616840004A08F4E76168012241
:102E600048081204EFE7002808D0022809D00428F7
:102E70000BD0082814D001263046F8BDFFF7FAF829
:102E800005E061680F4A48080CE0FFF703F9616844
:102E90004A088018FDF7EFF980B22168C860EBE7B7
:102EA000616848088018FDF7E6F980B2E860E3E75A
:102EB000F369FFEF00380140001002400044004079
:102EC0000024F40000127A00FFB581B01E461746B8
:102ED00005460A9C1CE0601C1AD0002C04D0FEF7AA
:102EE000B5F9801BA04213D928680168FF22A132DE
:102EF0009143016028688168490849008160202069
:102F000060356872A87200202872032005B0F0BDF9
:102F10002868C1690298884304D00020B842DAD0FA
:102F20000020F3E70120F9E710B50248FFF7F6FEAD
:102F300010BD0000CC010020FF30FF30023080695E
:102F4000002806D0FF300021FF30023041610846E2
:102F500070470220704770B5C41DFF34FA34A5696C
:102F600000F054FBEA1DFF32FA32D060A06900285D
:102F700008D0E1695068CA688321890069189047C0
:102F8000002070BD022070BD70B50446002581216F
:102F900000F092FA0121204600F08EFA82212046AC
:102FA00000F08AFAFF34FF340234A069002807D009
:102FB000E06940688047A06900F0ECFD0020A06156
:102FC000284670BDFF3010B5FF301A300AC8002BFC
:102FD0000AD0CC1DFF34FA342078FF2804D09B6837
:102FE00062789847FF202070002010BD0A210180E0
:102FF0000048704768000020432101800048704766
:10300000B800002043210180004870477400002070
:103010004321018000487047FC000020F8B50546B8
:10302000007C012700267F02002830D040230222A6
:103030008121284600F054FB40230222012128462A
:1030400000F04EFB082303228221284600F048FBB3
:103050008720800000F0A0FDE91DFF31FA31886172
:1030600000281CD00446C86900688047FF3400214E
:10307000FF3402346161A161287C6268002810D0AD
:1030800040230121284600F041FB3046F8BD3B4675
:1030900002228121284600F023FB3B46CDE7012692
:1030A000F3E73B46EDE710B54321C9000958002975
:1030B00013D0027C002A09D0FF31FF3102314A6867
:1030C0004023012100F022FB002010BDFF31FF3121
:1030D000023101235B024A68F3E7022010BD024679
:1030E0000220002904D0FF32FF3202320020D161D9
:1030F0007047FF30FF3002308069FF30FF30023010
:10310000416000207047FF30FF3002308069FF309F
:10311000FF3002300261816000207047F8B5C61DA3
:103120000746FF3608780C46FA3601466022B56934
:10313000104022D0202828D1E288002A16D0080684
:1031400007D5F16960788B6829469847E288294657
:1031500018E0E81DFF306178FA300170A179417004
:10316000E2882946384600F051F80EE0F1696078AF
:103170008B6800222146984707E060780A2804D12E
:1031800003490122384600F05DF80020F8BD000038
:103190006400002010B54321C9000958002911D04E
:1031A000FF31FF3102314A69002A01D0012010BDF0
:1031B00001224A610A8A93B28A68812100F064FB85
:1031C000002010BD022010BD10B5852292001258BB
:1031D00052689047002010BD134610B50A460021E2
:1031E00000F094FA002010BD134610B50A460021E5
:1031F00000F04AFB002010BD10B50446802100F00D
:1032000015FB0021204600F011FB10BD10B5FF2377
:103210000324F5331C50C31DF9339A60DA6013465A
:103220000A46002100F072FA002010BD10B5FF21FF
:103230000522F5310A5000231A46194600F066FAB5
:10324000002010BD10B5FF230224F5331C5082610D
:103250001346C2610A46002100F016FB002010BD93
:1032600010B5FF210422F5310A5000231A461946F1
:1032700000F00AFB002010BD10B50A46024903A069
:1032800000F0CCF8004810BDE00800204344432083
:10329000436F6E666967000012200880004870471F
:1032A0002C00002010B50A46024903A000F0B6F831
:1032B000004810BDE008002043444320496E746577
:1032C0007266616365000000042008800048704752
:1032D0002800002010B50A46024903A000F09EF81D
:1032E000004810BDE008002043414E446576696304
:1032F0006573000010B50A46024903A000F08EF87D
:10330000004810BDE008002043414E5F5553425F26
:10331000436F6E7665727465724261736963000013
:1033200010B50A46024903A000F078F8004810BD25
:10333000E008002030303030303030303030314133
:1033400000000000F8B50D4604464988FF300A0A1F
:10335000FF300230130000F02CFC0845050916452B
:10336000453A42450069237C02682BE0217C022615
:103370004069002905D0C16A684688470146467001
:103380003CE0816AF8E7C9B20B0000F012FC0604C9
:10339000080C1014182B0069237C426812E00069A5
:1033A000237C82680EE00069237CC2680AE0006921
:1033B000237C026906E00069237C426902E000691F
:1033C000237C8269694618469047014616E0217CB5
:1033D000002907D14069416B68468847F5E7217CA1
:1033E000002904D029462046FFF706FFF8BD4069B2
:1033F000016B68468847072201464270684600888C
:103400000028F3D0EA88002AF0D0824200D9024690
:10341000684602802046FFF715FFF8BD70B500230F
:1034200000281CD00446002502E06D1CEDB2641C8F
:103430002678002EF9D16C00A41C1480CC540322F1
:103440005B1CCA5400245B1C06E0CA545B1CDAB245
:103450008C54521CD3B2401C0278002AF5D170BDA6
:1034600010B5002813D0C31DFF33FA335C69002C5C
:1034700001D000245C61002900D01961FF210123E3
:10348000FD310B54027000F0C9F8002010BD02207D
:1034900010BD10B5FF30FF3002300024006AFEF787
:1034A00065F8002806D0012801D0022801D00224A6
:1034B00000E00124204610BD10B5FF30FF3002307F
:1034C0000024006AFDF79EFF002806D0012801D0E5
:1034D000022801D0022400E00124204610BDFEB5E0
:1034E0000446FF30E51DE130FF35FA351346019003
:1034F000002908D068694269002A49D00198007FF4
:10350000032843D044E02646FF3681362046716FBB
:103510001430022934D1C26881680092914207D9DF
:10352000891A81608AB219462046FFF75DFE13E0D2
:10353000476811463846FCF79EFE002913D10098D3
:10354000874210D3B06F87420DD200221146204629
:10355000FFF74AFE0020B06700231A4619462046AE
:1035600000F0D4F80CE06869C168002905D0019822
:10357000007F032801D1204688472046FFF756FEEA
:103580002878012804D10020287001E020469047C7
:103590000020FEBD70B50E460146FF31E1310B46FD
:1035A000203315460446002E07D058698269002A48
:1035B0002AD0087F032824D026E0FF22F532E01D20
:1035C0001259FD30032A1FD1C6688268B2420BD956
:1035D000931B83603046834200D303469AB2294648
:1035E0002046FFF7F9FD0FE058690269002A04D070
:1035F000087F032801D1204690472046FFF730FE80
:1036000002E0314620469047002070BDFF3010B5E3
:10361000FF300230006AFEF703F810BD10B51F49F5
:10362000C41DC861FF341E49FA341E482162086077
:10363000022208208A6048600020C8608861C86152
:103640000A6108620846FEF70BFB002804D0FF2140
:10365000353115A000F0ACFA002218231146206A7B
:10366000FDF798FE582300228021206AFDF792FE84
:10367000C02300228121206AFDF78CFEFF23113335
:1036800000220121206AFDF785FEFF23013300227D
:103690008221206AFDF77EFE002010BDC0080020B8
:1036A000C0060020005C00402E2E2F5372632F7541
:1036B0007362645F636F6E662E630000FF30CA0939
:1036C000FF3049060230490E1C23006A594308188E
:1036D000002A01D0203001E0FF300130807A7047AD
:1036E00070B5FF301D46FF30023013460024006ADB
:1036F0002A46FDF79FFF002806D0012801D00228A6
:1037000001D0022400E00124204670BD10B5FF3036
:10371000FF3002300024006AFEF7DCF8002806D0F3
:10372000012801D0022801D0022400E00124204613
:1037300010BD70B50022044640231146FFF7D0FFAC
:103740004025FF20113005512B46002280212046C4
:10375000FFF7C6FFFF200121FD3025620155E01D66
:10376000FF30FA308169002904D04069217942682C
:1037700020469047002070BDFF30E130417F017747
:103780000020704710B5FF21FD31095C032906D1E7
:10379000852189000958C969002900D0884700207F
:1037A00010BD01740020704710B5FF30FF300230AB
:1037B0000024006AFEF7E8FA002806D0012801D0AC
:1037C000022801D0022400E00124204610BD70B57B
:1037D00005464120C0002818044600F068F8294634
:1037E000FF3181310122084680304A67C2898A67E9
:1037F000017AC806C00E0AD001280DD0022810D0C8
:10380000C909C901284600F011F8002070BD214601
:10381000284600F0B6F8F8E72146284600F09DF962
:10382000F3E72146284600F023F9EEE710B5FF3014
:10383000FF3002300024006AFEF7CEF8002806D0E0
:10384000012801D0022801D0022400E001242046F2
:1038500010BD10B5FF30FF3002300024006AFEF7C3
:10386000B4FA002806D0012801D0022801D0022491
:1038700000E00124204610BDFF30E130017F417798
:10388000042101770020704710B5FF30FF3002306F
:103890000024006AFEF7E6F8002806D0012801D0CF
:1038A000022801D0022400E00124204610BD0A783D
:1038B00002704A784270CB788A781B02D218428014
:1038C0004B790A791B02D21882808A79C979090258
:1038D0005118C180704702460020002904D0FF32F1
:1038E000FF320232516170470220704710B58522C5
:1038F000920012580224002A04D01268904700282F
:1039000000D10024204610BD70B50D468978194EAF
:1039100004463170012904D929462046FFF76CFC82
:1039200070BD2046FF30E130027F022A15D0032A05
:10393000F2D1002917D0606888420AD0C1B220466F
:10394000FFF742FC317861602046FFF7CFFF022885
:10395000E2D02046FFF784FC70BD0029F9D0032295
:1039600061600277F0E70222027720466160FFF78C
:103970002BFCEEE76000002010B5FFF76AFF002087
:1039800010BDF8B505460020EA1D0090FF324F78C3
:10399000FA3214460126203C3B0000F00AF90A3BAB
:1039A000555A505A0A065A29255A2846FFF7CAFC82
:1039B0005CE0888800284CD1C888002849D18878E4
:1039C0004706207F7F0E032843D0A7773946284635
:1039D000FFF7EAFE2846FFF743FC002F02D0022043
:1039E000207743E0267741E02846FFF78DFF3DE052
:1039F000CA88012A2DD1227F022A02D0032A28D187
:103A000004E0012229460831A86001E00122291DB5
:103A100028460EE0237F2846022B01D0032B0BD132
:103A2000C6605168002901D00321C160014602220D
:103A30000C31FFF707FC19E0FFF7DEFB16E04888C2
:103A4000012813D156600AE0237F022B03D0032BF9
:103A500001D02846F0E74B88012B07D15060506910
:103A60008268284690472846FFF7FAFB0098F8BD81
:103A7000F8B504460D462878E61D4006FF360027B7
:103A80000979800FFA36012809D06A783046203843
:103A9000002A38D0012A1ED0032A3DD106E07069E1
:103AA00029468268204690470020F8BD007F022802
:103AB00017D003282CD16888002806D1002904D00B
:103AC000802902D02046FFF7B1FE7069294682683E
:103AD0002046904713E0007F022802D0032817D128
:103AE00004E0002918D080291AD115E06888002840
:103AF00012D1480603D02046FFF7CBFCE5E720466D
:103B0000FFF7AEFB08E0007F022807D003280BD0A8
:103B100029462046FFF770FB3846F8BD4806FBD023
:103B20002046FFF783FEF7E7C80904D04806400D9A
:103B30000519143504E04806400D0519FF35053513
:103B40002046FFF7BBFD002800D00120286002229C
:103B500029462046FFF776FBDEE770B50446FF30C6
:103B6000E130007F0D4603280FD1287901280CD8B9
:103B7000852080000059826820469047E888002808
:103B800006D12046FFF76CFB02E02046FFF734FB2E
:103B9000002070BD7047000000487047A00400205E
:103BA00010B50248FDF7D6FF10BD0000C00600208A
:103BB000FEE730B47446641E2578641CAB4200D224
:103BC0001D46635D5B00E31830BC184700B587B045
:103BD0006846FDF7A7F96846407B7F2811D004208E
:103BE00000907F2069464873FDF77CFAFDF768FA7C
:103BF000FDF770F96846FDF7A5F9FDF757FAFDF7EF
:103C000045FA07B000BD000026484168096809026E
:103C100016318160FFF7DAFFFDF760FBFEF77DFFED
:103C2000FEF70EFDFEF7EAFCFEF73AFDFEF754FD47
:103C30001E481D490160042141601D49C160816029
:103C4000FDF70AFB002800D0FEE71848154C80302D
:103C50000546C43D28631C3068630020207000F0D6
:103C60001BFA022211461E20FDF790FB0021284678
:103C7000FCF7F0FF0F4800F049F800F09DFA2078BB
:103C800000280BD0686B00F0B3FA207840084000A1
:103C90002070064800214438FCF7DCFF0348FDF79C
:103CA0000DFBE7E70000002000300040BC010020D1
:103CB000FF0F0000E00B002030B5002313601CE074
:103CC0000378002B20D013681C01146003781D4674
:103CD000303D092D02D8E318303B0CE01D46413D34
:103CE000052D02D8E318373B05E01D46613D052D43
:103CF0000AD8E318573B401C13600B46491EC9B253
:103D0000002BDDD1012030BD002030BDF0B50178A1
:103D1000072493B00546002915D0C94EC74F307807
:103D2000B278572956D011DC43390B00FFF741FF19
:103D300014C52C2CDB522C2C2C2CB9F38EA52C2C3E
:103D4000CB2FCB2C7D2C002013B0F0BD6F2971D070
:103D50000CDC62296FD004DC5A296DD0612913D1A3
:103D60000DE06C2969D06D29F9D1D4E072297DD09C
:103D7000732931D0742979D07629F0D15EE00D2AEB
:103D800003D00D20B070C4B251E10A20FAE7002838
:103D9000FAD1687830380300FFF70BFF0A06080CE9
:103DA0000E10121416181A1D002000E0012000F059
:103DB00063FA2AE10220FAE70320F8E70420F6E795
:103DC0000520F4E70620F2E70720F0E70820EEE7F9
:103DD0002420ECE714462AE10028D5D16A460221C6
:103DE000681CFFF769FF0028CED001AA0221E81C59
:103DF000FFF762FF0028C7D002AA0221681DFFF763
:103E00005BFF0028C0D003AA0421E81DFFF754FF80
:103E10000028B9D00098F86001983861029878615C
:103E200003987860FCF734FBEFE0562000F062FA6C
:103E3000012007E021E0EAE060E029E0762000F0E0
:103E400059FA042000F04CFA012054E04E2000F012
:103E500051FA7C4C2068C0B200F042FA206800049D
:103E6000000E00F03DFA2068000200E02BE0000E9A
:103E700000F036FA2068000E3DE00020B860FCF744
:103E800007FB0028A7D11E20FDF776FA022018E0D4
:103E900001208007B8601E20FDF76EFAFCF7F8FAE3
:103EA000F4E700287BD10120C007B8601E20FDF791
:103EB00063FAFCF7EDFA012003E01E20FDF752FA49
:103EC00000203070A1E0022869D1284600F028FACD
:103ED000002864D128785A2801D25A2000E07A209C
:103EE00000F008FA91E05548FCF7F3FCC4B2462014
:103EF00000F000FA204600F0F3F986E06A4601215E
:103F0000681CFFF7D9FE002849D00098002800D08F
:103F10000120707079E06878642841D012AA0221EB
:103F2000681CFFF7C9FE002839D011AA0221E81C3D
:103F3000FFF7C2FE00287AD010AA0121681DFFF702
:103F4000BBFE002873D00EAA0821A81DFFF7B4FEFF
:103F500000286CD028460CAA01210E30FFF7ACFED9
:103F6000002864D028460FAA08210F30FFF7A4FECE
:103F700000285CD028460DAA01211730FFF79CFECF
:103F8000002854D010980E9940070C980FD500F0D7
:103F9000EAF800900F990D9800F0E5F80EE035E092
:103FA00000F07AF8B4784D2000F0A4F93FE000F07A
:103FB00097F800900F990D9800F092F801901298E0
:103FC000079011980B901098C107C90F0A918107AB
:103FD000C90F089141070007C00FC90F069009914A
:103FE000684600880290684640880390684680884A
:103FF00004906846C08805904D2000F07BF902A926
:104000000E48FCF7D9FB002811D1B4780FE068788E
:104010006F280CD1A8786F2809D1E878742806D1C8
:10402000002028706870A870E870FEF754FD00202A
:104030002870204600F05EF9012085E67801002016
:10404000500000200800002070B50D4C0B4922796B
:104050000D2808D00A2804D08854632A01D2521CA3
:104060002271002070BD00258D5404490846643833
:10407000FCF7C0F82571012070BD0000440C002041
:104080005000002010B5092801D9373000E0303049
:10409000C0B200F02FF910BD00B58BB00021012097
:1040A000029103910591069104910091019107906D
:1040B0000991089069460448FCF77EFB002800D06F
:1040C00001200BB000BD00007801002010B51E20BB
:1040D000FDF748F901490020087010BD500000208C
:1040E000F8B500246A4614800825C207AC43120FB5
:1040F000144383071026DA0FB443120114436A46AF
:104100005480E0274A01002B10DABC43D3B21C4391
:104110006B465C804B031C0C6B46DC705B88DC08D8
:10412000E4004B055B0F1C436B465C806C46638868
:104130004407E40FAB43E40023430007C40FB34339
:10414000240123436C46638000280ADAC80A3840F9
:104150002080C80C60702088C008C000510F084340
:1041600020800098F8BD08B500226B461A80022313
:104170009A43C3079B0F1A4304239A438007C30F34
:104180009B001A436B465A8000280CDAF8208243C1
:10419000C806000E0243C8025A80000CD87088037B
:1041A000C00E188005E04807000E18804803000C78
:1041B0005870009808BD000010B50A4CE07800283F
:1041C0000ED009488069FF30FF3002304169002974
:1041D000FCD1E1780548FCF743FA0028F9D1E070FA
:1041E00010BD0000500000207C040020A80C00201E
:1041F00070B504468168C068042917D0022826D00B
:10420000742000F077F860780007000FFFF73AFF9E
:10421000207800F065F8207CFFF734FF2069002843
:1042200020D0E06802281DD0002518E002280CD01C
:10423000542000F05FF804256019C07800F050F8B1
:104240006D1E2D062D0EF7D1E5E75220F1E7722005
:10425000D7E76019007D00F043F86D1CEDB22069CE
:10426000A842F6D10348807800F044F8FFF7A4FF95
:10427000002070BD5000002010B501221749120621
:10428000CA60052252040A61032212054A61042809
:1042900019D008DC00281ED001281AD0022816D018
:1042A00003280BD111E005280BD0062805D00828DB
:1042B00002D0242802D100E003204860FCF7E8F88F
:1042C00010BD0C20F9E71820F7E71E20F5E73C2089
:1042D000F3E79620F1E7FF202D30EEE7780100208C
:1042E00010B504460009FFF7CDFE2007000FFFF7C9
:1042F000C9FE10BD0549CA78202A05D2044ACB78E8
:10430000D054C878401CC87070470000500000208E
:10431000A80C0020014800787047000050000020E1
:10432000F8B5314C054601780027206B722914D06E
:10433000522912D0C76028785A2811D208266A4616
:104340003146681CFFF7B8FC00284BD0216B0420D5
:104350008860216B009848600FE00221C160EAE7A5
:1043600003266A463146681CFFF7A6FC002839D0B0
:10437000206B8760216B00980860A8196A460121AC
:10438000401CFFF799FC00282CD0226B009810618C
:10439000226BD268002A19D1C7B2082F00D908278A
:1043A000002411E06000801940196A460221801C37
:1043B000FFF782FC002815D00B4900980A6B2146B4
:1043C0001431641C5054E4B2BC42EBD31E20FCF701
:1043D000C9FF00210448FCF7A1FC04461E20FCF79D
:1043E000CBFF2046F8BD000078010020000000004F
:1043F0000000000001020304060708090000000095
:104400000102030424440008000000207801000099
:104410003A040008EC44000878010020D0110000A4
:10442000040100084145B0F7FF1F1399321B08C96A
:10443000041AD5041AF5041321331B0879081AA5A8
:104440000417040309041201140202021640830433
:10445000405726020102030113F1051B08ED041A5F
:10446000D3041315062208A20D93127A130A0632FA
:10447000021A4033111C0902433F1125C0320904BE
:104480001B01020B1305241610010524011009015C
:1044900004240202052406170107058203081C10E4
:1044A000090475320A1D07050102432C070581071F
:1044B0000938442A40072A8107112B0907440A2298
:1044C00004440A16FF44131D301408892F2C081DBC
:1044D00031FC211AC50C1A39041A5704C11A0528CF
:0C44E0001AF9141A11081AED0800000067
:04000005080000C12E
:00000001FF
