:020000040800F2
:10000000E8160020D50000085D2B0008212B000811
:1000100000000000000000000000000000000000E0
:10002000000000000000000000000000972B000806
:1000300000000000000000005F2B0008992B000862
:100040000501000805010008050100080501000878
:100050000501000805010008050100080501000868
:100060000501000805010008050100080501000858
:100070000501000805010008050100080501000848
:100080000501000800000000000000000501000854
:100090000000000005010008050100080501000836
:1000A0000000000005010008050100080501000826
:1000B0000501000800000000050100082D390008B6
:1000C0000348854600F052F8004800477939000897
:1000D000E81600200C4880F308880C480168090ED7
:1000E0000B4A914205D10B480B4901600B480C4962
:1000F00001600C4880470C480047FEE7FEE7FEE73A
:10010000FEE7FEE7FEE70000E8160020040000001E
:100110001F00000018100240010000000000014014
:1001200000000000152C0008C100000870B504464E
:10013000002903D000202022012310E0002801D054
:100140000020C043C046C0460DE02546D5408D4244
:1001500005D30D469540641B1D4695404019154634
:10016000521E002DF1DC214670BD0000064C012519
:10017000064E05E0E36807CC2B430C3C984710344F
:10018000B442F7D3FFF7A0FF7C5000089C50000852
:1001900070B58C180578401C6B075B0F01D1037894
:1001A000401C2A1106D10278401C03E006780E702C
:1001B000401C491C5B1EF9D12B0705D40023521E9D
:1001C0000DD40B70491CFAE70378401CCB1A921C23
:1001D00003E01D780D70491C5B1C521EF9D5A1422D
:1001E000D8D3002070BD0000B0B5084800F014F965
:1001F000032809D1064C054D204600F01BFE284679
:1002000000F00AF90328F7D00020B0BD58100020F4
:10021000680100200020704700207047B0B5194CDD
:100220000549002520462A4602F0F5FD03492046EF
:1002300002F0E9FD2846B0BDE809002000060020D4
:1002400010B501460F4C204602F0DDFD204602F0BD
:10025000BBFD002010BDC04610B50A460146432034
:10026000C000084B185885239B00C058002801D0B7
:10027000012010BD034C204602F0CDFD204602F0C7
:1002800015FE10BD340E0020F0B581B0054600F01B
:10029000A1FD0646254F3868C00716D1386880068C
:1002A00001D5202038603868C00606D43868400779
:1002B00003D40024204601B0F0BD3868C0061FD426
:1002C0000020396849072BD523E00324002DF1D005
:1002D000681C0CD13868C007E0D03868C007DDD092
:1002E0003868C007DAD03868C007F3D1D6E700F025
:1002F00071FD801BA842DDD83868C007F7D1CDE773
:100300000B48C16902220A43C261102039684907BB
:1003100006D50749CA6901231343CB610421084369
:1003200038600124204601B0F0BDC0460C200240D8
:10033000C0120020F0B584B001225402056828598B
:10034000334B0340486A00021843401C28514E6951
:1003500002921346B3402819C4699C43C461DC432C
:100360000394CF69012F14D0002F2DD1C768039CAF
:100370002740C760F700EC1901948C88CF683F04D0
:10038000E41900940927BF01019C009AE2510F462D
:1003900011E0C4681C43C460F4002C1901948F88D8
:1003A0000C6824043C1900940927BF01019C009AA1
:1003B000E2510F460C37F4002C193D888E68360444
:1003C000AD199126B600A55145688C69002C01D065
:1003D0001D4301E0039C2540456045690C69002CE4
:1003E00005D01D434561096A012909D105E0039C37
:1003F00025404561096A012902D1C1691943C161DA
:100400000168029A91430160002004B0F0BDC0462B
:10041000FEC0FFFF006C7047F0B581B0002827D008
:10042000044607463C377878002804D1002038700D
:10043000204600F08BF80220787021680A68824319
:100440000A60086801252843086000F0C3FC0646DE
:1004500020684168C9070FD100F0BCFC801B0B2845
:10046000F6D30020387003257D70284601B0F0BD1A
:100470000125284601B0F0BD4168C90704D1042018
:100480007870284601B0F0BDA169491E4A424A4130
:10049000D101026880239A4351180160E169491E25
:1004A0004A424A419101026840239A43511801602F
:1004B000216A491E4A424A415101026820239A4357
:1004C00051180160616A491E4A424A41110102689D
:1004D00010239A4351180160A16A491E4A424A41B9
:1004E000D100026808239A4351180160E16A491E4D
:1004F0004A424A419100026804239A43511801601C
:10050000A168E2680A432169114362690A4361688C
:10051000491E1143C1610168A943016000F05AFC02
:10052000064620684168C90705D000F053FC801BCF
:100530000B28F6D395E74068C007A0D100202064BF
:100540007D700546284601B0F0BD000080B586B03C
:1005500000680F49884201D006B080BD01204006E6
:100560000C490A6802430A600968014000910420AE
:1005700005900020039002200290032004900002C6
:1005800001900098044801A900F058FB06B080BD16
:10059000006400401C1002400004004810B53C22DA
:1005A000835C0222012B41D003463C33012911D048
:1005B00000291FD15978222908D05978422905D01D
:1005C0005978622902D05978722931D100201870E7
:1005D000104610BD5978322908D05978522905D0D3
:1005E0005978622902D05978722903D100201870F5
:1005F000104610BD5978122905D0422905D022296C
:1006000005D1622104E0522102E0722100E0322192
:100610005970002202648F210902006844690C436A
:1006200044611A70416950230B434361104610BD69
:100630005978122905D0522905D0322905D16221D5
:1006400004E0422102E0722100E0222159700022E0
:1006500002648F210902006844690C4344611A70E6
:1006600041690A230B434361104610BDF0B585B0C4
:10067000044605463C35006882688B4B5B1E1A4277
:100680000AD18268120107D48268D20004D40420FF
:100690006870012005B0F0BD2A78012A02D102203D
:1006A00005B0F0BD01262E706A78222A05D0622A94
:1006B00005D0322A05D1522204E0422202E0722201
:1006C00000E012226A7082681A4000270292002A13
:1006D000019707D10127FB0682681A4000D1022743
:1006E000D20E019204913901401803210091C901F1
:1006F0004258324042504018216B8A68002A08D084
:10070000CB6837464E68F6001E43036833433E46C7
:1007100004E0CF680B685A053A4303681343624FFD
:10072000036042680F239A4342600A691A40436893
:10073000134343604B6983608B69C3600A6101683E
:100740003143016000F046FB039020688168029A03
:10075000002A25D03940B94250D0049900295ED0F2
:10076000491C10D181683940B94247D0816839406D
:10077000B94243D081683940B9423FD0816839409D
:10078000B942EFD13AE000F025FB0399401A0499F1
:10079000884269D8206880683840B842F3D12DE09B
:1007A000019A002A26D0424F3940B94226D00499F6
:1007B000002967D0491C15D181683940B9421DD044
:1007C00081683940B94219D081683940B94215D0A1
:1007D00081683940B942EFD110E020688068384024
:1007E000B8420BD000F0F6FA0399401A04998842F7
:1007F000F3D939E02D4F3940B94213D168784228F6
:1008000005D0722805D0522804D1322602E02226D3
:1008100000E06226002028706E7005B0F0BD0098E0
:10082000687026E0049900292CD0491C15D18168F4
:100830003940B942E2D081683940B942DED081689E
:100840003940B942DAD081683940B942EFD1D5E7B1
:10085000206880683840B842D0D000F0BBFA0399D5
:10086000401A04998842F3D90098687002990029C7
:100870000BD02368996880220A439A60002129706E
:1008800005B0F0BD03206870009823689968019A4C
:10089000002A01D0F20300E0F20511439960002123
:1008A000297005B0F0BDC046010000040000011031
:1008B00000010008F0B583B0CF4DE8680290C84E43
:1008C0003046FFF7E1FC002801D003B0F0BDC54879
:1008D00000210191C16128682027384328602868D9
:1008E0004024204328603046FFF7CEFC2968B943F6
:1008F00029600028E9D13046FFF7C6FC0028E4D182
:10090000B8480199C16128683843286028682043A5
:1009100028603046FFF7B8FC2968B94329600028F1
:10092000D3D1062002990140286810242043286072
:10093000042901D0AA2200E0CC22022900D1BB2246
:1009400004490A803046FFF79FFC2968A1432960CB
:1009500003B0F0BD00F8FF1F072101600B494A6892
:1009600082600A680968090A417306211140042956
:1009700004D05522D243022906D103E03322D243C8
:10098000022901D14421CA43027370471C2002404E
:10099000F0B583B00446934E307E012802D1022088
:1009A00003B0F0BD012737762068C10709D1810760
:1009B00052D4410700D582E0000700D59FE03846B9
:1009C000B8E08D4805696168A768854801291AD192
:1009D000FFF75AFC002800D0ACE000200290F06144
:1009E000FFF768FF002800D0A4E0BD43E9B2824DC4
:1009F0002868102202432A60FF29029822D04F481B
:100A00000088084019E0FFF73FFC002800D091E083
:100A100000200290F061FFF74DFF002800D089E030
:100A20003D43E9B2744D2868102202432A60FF2931
:100A3000029807D041480088084340490880684828
:100A4000FFF722FC2968102291432960002871D108
:100A5000206800278107ACD5257B6148FFF714FC8F
:100A6000002867D10027F7612946634D2868029165
:100A70002021019108432860286840210143296012
:100A80005748FFF701FC2968019A9143029A2960AF
:100A900000284FD12B462868102528431860274886
:100AA000083802804E48FFF7EFFB534A1168A9430C
:100AB000116000283ED12068410700D47CE7657BA7
:100AC000474F3846FFF7E0FB002833D13846002770
:100AD000F761494A116810230293194311601749BD
:100AE000891F0D80FFF7D0FB434A1168029B994391
:100AF000116000281ED12068000700D45FE7257D23
:100B00002469374F3846FFF7BFFB002812D138461B
:100B10000027F761384B1A68294610252A431A60C6
:100B20002180FFF7B1FB344A1168A9431160002806
:100B300000D144E70021317603B0F0BD08F8FF1F73
:100B40002D48016880220A43026000207047C04699
:100B5000F0B581B001246003204E716801437160DB
:100B600000F038F905463068C00708D01C4F00F087
:100B700031F9401BB8422CD83068C007F7D1306833
:100B8000800601D5202030603068C00606D4306869
:100B9000400703D40024204601B0F0BD3068C006F1
:100BA00004D40020316849070FD508E00D48C16919
:100BB00002220A43C26110203168490705D509495C
:100BC000CA692243CA61042108433060204601B04B
:100BD000F0BD0324204601B0F0BDC0460C20024009
:100BE00050C30000C01200200120400202490A68E0
:100BF00082430A6000207047102002400548816847
:100C0000890505D40B4901600B490160002070473C
:100C100001207047082002400548C168090601D438
:100C200001207047034901600349016000207047BB
:100C30000420024023016745AB89EFCDF0B588B0B1
:100C40000A68002A00D1B0E004465948844201D025
:100C5000052000E00220009000273B463D460BE0C7
:100C600003980243F2606D1C0A681046E8403F1D7D
:100C70009B1C002800D198E001260496AE4032402B
:100C8000F1D006950593029703924A68102010430D
:100C900012280B460FD11C20029908400F218140D9
:100CA000069AD508AD0065192F6A8F4319698140EE
:100CB000394329625A681946032710463840059B74
:100CC000984001979F402568BD4305432560F84340
:100CD000122A12D8049D9540374B1D42059B0CD01B
:100CE000A5680540CF689F402F43A7601509069F60
:100CF000BD406768B7432F436760E5680540886873
:100D000098402843E060D000029F069DABD5754A0D
:100D10001068049B184310601068184007900C205E
:100D200038402E460F258540019A9643079A234B5B
:100D3000F258AA43F5180926F606B44205D0204B0E
:100D40009C42009E02D1049E00E00026864016438D
:100D50002E60184E32684868C503059B0ED5039D6A
:100D60002A433260726885030ED4039DAA437260E1
:100D7000B268C5020ED4039DAA430DE0039DAA43A9
:100D8000326072688503F0D5039D2A437260B268B1
:100D9000C502F0D5039D2A43069DB260F268800229
:100DA00000D55DE7039882435CE708B0F0BDC0461C
:100DB0000008004800040140060006000800014049
:100DC00000040048002A02D01822815070472822CF
:100DD000815070471E4800687047C046B0B5002873
:100DE00017D004460068114901601149016061682B
:100DF0004160A1688160FFF7EDFF05462068C1688A
:100E0000002908D0FFF7E6FF401B2728F6D903206A
:100E1000B0BD0120B0BDE16802698A4203D1084932
:100E200001600020B0BD01610020B0BDCCCC00004D
:100E30005555000000680249016000207047C04617
:100E4000AAAA000002480168491C01607047C04618
:100E5000E012002010B50648016810220A43026023
:100E60000024204600F006F800F016F8204610BDD9
:100E700000200240B0B5044601F0ECFB7D21C90022
:100E8000FFF754F901F02EFE0025E84321462A46DB
:100E900000F03EF82846B0BDB0B582B011480168F8
:100EA0000125294301600168294001910199290721
:100EB00042680A434260406808400090009804205D
:100EC000C04300242146224600F022F8E843214690
:100ED000224600F01DF8E0432146224600F018F8B3
:100EE00002B0B0BD181002401F210140012088400F
:100EF000014908607047C04680E100E01F210140C1
:100F000001208840014908607047C04600E100E0C8
:100F1000002805D4032203469343094A9A1803E0A4
:100F20000C220240074BD2188007C00E8901C9B2BB
:100F30008140FF2383401068984308431060704746
:100F400000E400E014ED00E0B0B51C240D060DD562
:100F50007F2529404C4300192830002A0DD0C3803A
:100F6000190C0181012181720020B0BD4C43001990
:100F70002121C9004018002AF1D18380002181720B
:100F80000020B0BD80B58722920083581C224A43BE
:100F90008018826B184602F0EDF880BD80B587227C
:100FA000920083581C224A4380182322D200825880
:100FB000184602F037F980BDF0B57F220A401C23A5
:100FC0005343C3184CB2002C03D42125ED005B1908
:100FD00000E02833CD095D701A703D22D200855C97
:100FE000012D01D10220F0BD821805684806000ECF
:100FF0004100685A69189D7A1F4B002D13D00125B6
:10100000AE030640BF4D07462F40002E19D14025A4
:1010100005401BD17519002C002D00D00880B94C5B
:101020002040044621E0002C17D40124A4034504E9
:1010300004D5B44D2840B74D40190880F13C044018
:1010400013E0B448381840250540E3D01F43384624
:101050007519002C002DE1D1E1E74406A94C02D519
:101060002040184308803034044000201070403B7A
:1010700023430B80F0BDC046C080000070B502461F
:101080001C237F2008404CB2002C05D44B43D318BE
:101090002125ED005B1902E04343D3182833CD0925
:1010A0005D701870002098703D23DB00D55C012D29
:1010B00001D1022070BDD31815684906090E4900F8
:1010C0006A5A6918002C0FD4E64C2546F1352A429D
:1010D00004D08C4D2A408F4D52190A8022408E4CEC
:1010E000544018700C8070BD5406864C074D01D4D6
:1010F000164604E022402E46103616430E80303449
:1011000034406C4018700C8070BDC046B080000048
:101110007F220A401C215143401809214901405AAD
:1011200070470000F0B585B07F240C401C25654356
:1011300047194DB2002D049503D42125ED007F19E8
:1011400000E02837FA60CD097D703C70FB703D25CA
:10115000ED00465D012E02D1022005B0F0BD46191A
:101160000125039502963570032B14D89B0001A529
:10117000EB589F46851100089B110008AF1100082D
:10118000C111000800684B061B0E5E00855B5C4BBE
:101190002B40039D1CE000681DE000684B061B0E01
:1011A0005E00855B564B2B40039DAD0211E000684D
:1011B0004B061B0E5B00C65A514D3540C5520AE026
:1011C00000684B061B0E5E00855B4D4B2B400325D4
:1011D0006D025B198353A300C55A4A4E35400D4337
:1011E00049492943C152C318B97A0029019333D020
:1011F00047490D4370218D431D805021425A009272
:10120000E4002418039A95026419D543FE882E4001
:10121000009BE652405A2018398929408180920368
:10122000019F38880240044636490C40002A01D00C
:10123000384820434025054003D03448403004431B
:1012400020465219049B002B029C002A00D03880B3
:1012500008402E4B03434EE05021465ABD88039B65
:101260009D43E4000499002915D4211850309C02B4
:1012700009198C19A5808C1D00883F2A17D3D10627
:101280005209002900D11F32019F204B9102803B5F
:101290000B43039A11E09902611808188553019FC6
:1012A0003A8850061BD41046F049184B1EE05108EE
:1012B0001A4089181A468B02019F035390033B88FA
:1012C000590401D41A4604E0E8490B40E84A1A439D
:1012D0003A80029CF13810400F4B43400BE0E34949
:1012E0000A400A4B1846403010433880029C303187
:1012F000014020334B40002020703B8005B0F0BD02
:101300008F89FFFF0F0F00008080FFFF80800000AB
:101310008081000080C0FFFF80B0FFFFF0B57F2418
:101320000C401C21614341182125ED004C554D19FD
:101330000021A9612A616970EA689E1A00D20E46EE
:101340006E6100685021415A9A4200D31A46E30068
:10135000AD7A002D10D0054650351D4E371F1F4366
:101360003F183F2A17D3D6065209002E00D1521E2D
:101370009602184A324313E0154D2B431B183F2A9F
:1013800016D3D5065209002D00D1521E9202114DDE
:101390001543CD5212E001261640520892199202CE
:1013A000CA530B490B4319182B88C9180A8005E04A
:1013B00001251540520852199202CA52A100425A00
:1013C000284B1340044A5A4042520020F0BDC04608
:1013D000060400000080FFFF80B0000070B53D22D1
:1013E000D200835C012B01D1022070BD1C257F241B
:1013F0000C404BB2002B05D44D4345192126F60075
:10140000AD1902E06543451928358218CE096E7082
:101410002C700126AE70002C0BD000684906090E16
:101420004C00015B0019002B0FD40E4B19400E4BE2
:101430000EE00C493031006803880B400A49103136
:10144000594001800020107070BD044B1940044BBE
:101450004B4003800020107070BDC0463F0F00005D
:10146000908000000F3F00008090FFFFF0B584B037
:101470007F240C401C216143461828210394745496
:1014800000253564B26331462831012401944C7043
:10149000746B27461C1B00D22C46F4639F4200D37A
:1014A0001F460297897A0468704D002914D0039D65
:1014B000AB00E15A5020205A009020464C06E9002B
:1014C000019DAF02002C4ED4BC1C21430918029D83
:1014D000009C0D532E364DE001988102029B1804AA
:1014E000019132D06018B18D461898B2401C47085F
:1014F00003233B40781E002B0CD0009010785178CD
:10150000090208183080012B00D087E0921CB61C1D
:1015100000980746032818D3107851780902081854
:1015200030809078D178090208187080107951794C
:1015300009020818B0809079D17909020818F08062
:1015400008363F1F0832002FE6D15020205A01995B
:10155000891C039BDA000A431119029A0A52980067
:10156000205A5A0046E0BC1D21430918029D009CE8
:101570000D5330360446C318A8B2002832D0029466
:10158000E11934880D19401C460803273740701EA6
:10159000002F0BD00190107851780902081828808C
:1015A000012F30D1921CAD1C01980646029C0328E5
:1015B00018D3107851780902081828809078D178CB
:1015C0000902081868801079517909020818A88062
:1015D0009079D17909020818E8800835361F083259
:1015E000002EE6D1039842001988204D294020485A
:1015F00008431880303505401E486840510060524D
:10160000002004B0F0BD9078D178090208186880F5
:10161000022F11D1B61E121D2D1D15E09078D17824
:10162000090208187080022B13D1BF1E121D361D2F
:101630000098032889D36FE71079517909020818B7
:10164000A880F61E921DAD1D029C01980328B0D201
:10165000C8E71079517909020818B080FF1E921D61
:10166000B61D0098032800D356E76EE70F0F000061
:1016700080C0FFFFB0800000F0B597B007463D2066
:10168000C0003D183A6844201490105E0123D9022E
:1016900011919C0300280FD5194607930C9410460E
:1016A000443015A900240C80005F16A9088000288A
:1016B00009957AD40C9C099D1498105AEA49491C42
:1016C000084210D044321088E84901401180384661
:1016D00000F0EEFD3A682878012804D04C208021E3
:1016E000115200202870104640308188214204D0D9
:1016F000FA49813983880B4083808188890403D526
:101700008188F74B0B408380F64B713381881C46F0
:1017100019420FD00188042291430180BD210902A2
:101720000180384600F0D0FD3A68149BD05AEE494B
:101730000140D152104640308188119B19420ED091
:101740008188EA4B0B408380018808230B43038088
:10175000018804230B4303808088204209D0149819
:10176000105A80050DD41498105AC00516D417B01D
:10177000F0BD384600F0ECFD3A681498105A800528
:10178000F1D544321088DA4901401180384600F022
:10179000ADFD3A681498105AC005E8D54432108857
:1017A000D4490140118017B0F0BD2120C0000B903A
:1017B00038180890384624300A9028460A3002909B
:1017C000284608300190A81D0390281D0690079810
:1017D0008602129713940E960AE01099FFF7D2FB37
:1017E0003A681498105E16A90880002800D461E7B2
:1017F00016A800880F2505400BD0A800115A15AB7C
:101800001980195F002931D415A800880006E7D592
:1018100031E216A801881088C90667D4B649084085
:1018200010805020105AB11808180A9E3179C9004A
:1018300040184088A84908403864B96B0818B86354
:10184000002538462946FFF79DFB30780E9E00287C
:10185000C6D0F86B0028C3D10A9B187880210143B9
:10186000C8B239684C2288521D70B9E71018018837
:101870009C4B194001801C2068433C180B98201891
:10188000817A00294AD0109401788B00D45AC9007B
:101890008B185021515A0C9FF31859183C4262D1B1
:1018A000C9888D4B1940139F00D1B9E19219038962
:1018B000D2180369012962D00D914F0803243C40DE
:1018C000791E0F91002C00D100E116881E70360A97
:1018D0005E70012C00D020E19B1C921C0F9C2746BF
:1018E0000E9E0D99032C00D35FE194E115A90880A9
:1018F00008881199084244D05020105A91190818AC
:10190000089B1A78D2008018C088734A10409861EA
:101910009A888918022864D2069BCAE05021535A3B
:10192000B118CA180378DB00D218D7886A4A174062
:101930006DD0828889180269012F00D127E11094A7
:101940007B0803241C405E1E0F96002C00D101E191
:101950000E881670360A5670012C00D0CEE0921C0C
:10196000891C0F9BF6E049885B4B1940139F00D1FF
:1019700056E19219C388D2180369012949D1079FFA
:101980004CE1002015A9085E002800D428E7108843
:101990005449084010805025515BB0184118089CEC
:1019A0002278D2008918CA884B490A40A26100D126
:1019B000EAE2A18840182169012A00D1DEE2530839
:1019C00003241C405E1E002C00D1BBE207880F7070
:1019D0003F0A4F70012C00D0A2E2891C801C3346C4
:1019E000AFE2420803231340551E002B2AD0109566
:1019F0000C88099D2C71240A6C71012B26D1891C3D
:101A0000039B109D2A46139C032D3CD251E00027D6
:101A100012E10D914F0803243C40791E0F91002CD8
:101A200076D016881E70360A5E70012C00D07FE0DA
:101A30009B1C921C0F9C27460E9E0D99032C00D3D5
:101A4000D4E0E8E0069B032D1DD232E04C88AC7157
:101A5000240AEC71022B0BD1921E091D019B139CD1
:101A6000109D032D25D30EE0FF030000FFFB0000B7
:101A70008B882B721B0A6B72D21E891D029B139CD2
:101A8000109D032D15D30C881C70240A5C704C88A3
:101A90009C70240ADC708C881C71240A5C71CC88D0
:101AA0009C71240ADC710831121F0833002AEAD124
:101AB000139CC00701D00878187038680188094A5B
:101AC00011400180384600F02EFC89E60F9C0D99EC
:101AD000032C6AD29FE0C046FF03000080C0FFFFD6
:101AE000FFDF00008F0F0000FFEF0000FFF7000096
:101AF000FFFD0000FFFE00000F8F00004E88967073
:101B0000360AD670022C1ED19B1E121D091D21E023
:101B10000F9C0D99032C69D27DE056889E70360A81
:101B2000DE70022C0D9935D1BF1E1B1D121D38E031
:101B300056889E70360ADE70022C0D994BD1BF1E5E
:101B40001B1D121D4EE08C881471240A5471DB1E7B
:101B5000921D891D109C0F9E032E15D30C881470A6
:101B6000240A54704C889470240AD4708C881471A0
:101B7000240A5471CC889471240AD47108311B1F33
:101B80000832002BEAD1109CFB070E9E54D0097836
:101B9000117051E094881C71240A5C71FF1E9B1D1A
:101BA000921D0E9E0F9C032C35D314881C70240AA2
:101BB0005C7054889C70240ADC7094881C71240A20
:101BC0005C71D4889C71240ADC7108323F1F083391
:101BD000002FEAD11FE094881C71240A5C71FF1E5B
:101BE0009B1D921D0E9E0F9C032C14D314881C70F9
:101BF000240A5C7054889C70240ADC7094881C71E0
:101C0000240A5C71D4889C71240ADC7108323F1F5D
:101C10000833002FEAD1CC070F4601D01178197094
:101C200012990968027892008B5AEC4C803C1C4057
:101C3000EB4B1C438C52109C8169C919816101696D
:101C4000CA1902614369002B04D0452189006158FB
:101C5000B94205D90178129F3846FFF79FF904E091
:101C60000178129F3846FFF759FB139C15A800888E
:101C7000000600D4B4E5680040003A68115AD94B18
:101C8000194011521C2068433818014628318B7ABC
:101C9000002B4CD00D78A90053180D93515A5023A6
:101CA000D45A034640334906EF00002910950F9798
:101CB0006AD4B91871180919CC88C7490C401C603E
:101CC00000D19AE00E995118038ECF18611C4D086F
:101CD00003242C40866B691E002C0CD005913178B2
:101CE00073781B0259183980012C00D0B5E0B61C5E
:101CF000BF1C05990D4603297FD3317873781B02E9
:101D000059183980B178F3781B02591879803179E4
:101D100073791B025918B980B179F3791B025918EC
:101D2000F98008372D1F0836002DE6D165E05023D5
:101D3000D45AB3189D1C2C1909781091C9000F9121
:101D4000645AA5490C40046463D0868D9F19631CB6
:101D50005B0803241C40866B591E002C6ED0049532
:101D60000D913178059171780902059D49193980E5
:101D7000012C67D1B61CBF1C0D990B46139C049D0A
:101D8000032900D395E091E0B518E91909194C88A9
:101D900091490C401C6030D0C18D6F18611C4D08FA
:101DA00003242C40866B691E002C0BD005913178E2
:101DB00073781B0259183980012C5CD1B61CBF1CEA
:101DC00005990D46032918D3317873781B025918E9
:101DD0003980B178F3781B02591879803179737999
:101DE0001B025918B980B179F3791B025918F9808F
:101DF00008372D1F0836002DE6D1784980390D9C13
:101E000023880B4078490B4323800E9EB1188D1C0C
:101E1000129F139C5021515A0F9A5219515A6E4ACF
:101E200011400164826B52188263C36B3846002BE9
:101E300000D1D2E41099FFF719FBD1E4139C0329D8
:101E400034D336E0B578F178090249197980022C4B
:101E50001FD19B1E361D3F1D23E0B178F3781B0276
:101E600059187980022C41D1AD1E361D3F1D0599B0
:101E70000329C2D341E7B178F3781B02591879805E
:101E8000022C40D1AD1E361D3F1D059903299BD262
:101E9000B3E73179747924026118B980DB1EB61D6D
:101EA000BF1D139C0D99049D032902D2129F0E9E03
:101EB000B0E731787478240261183980B178F47809
:101EC0002402611879803179747924026118B9800B
:101ED000B179F47924026118F98008371B1F08369C
:101EE000002BE6D1129F139C0E9E93E731797379F4
:101EF0001B025918B980ED1EB61DBF1D0599032997
:101F000000D27AE7F9E6317973791B025918B98062
:101F1000ED1EB61DBF1D0599032900D26DE753E7DD
:101F200047888F703F0ACF70022C03D19B1E091D7A
:101F3000001D06E084880C71240A4C71DB1E891D8B
:101F4000801D129F089C032E0E9E15D304880C70D2
:101F5000240A4C7044888C70240ACC7084880C71DC
:101F6000240A4C71C4888C71240ACC7108301B1F60
:101F70000831002BEAD1089CD20701D00078087004
:101F8000A06921690818206100213846FFF706F88A
:101F90003868415B3218921DE3683F2B0BD3DC0697
:101FA0005B09002C00D11F330C9D9C020C4BC03BE5
:101FB0002343139C06E001241C405B081B19139C5F
:101FC0009B020C9D8B522946F13902880A40074931
:101FD0004A40028004E4C046FF0300008F0F000067
:101FE000C08000000F8F000080C0000080B00000A3
:101FF000F0B587B0002822D007463D20C0003D182C
:102000006878002804D100202870384600F02EF9A6
:102010003E46243603236B707868002800D114E113
:10202000014619400691411E032904960597039322
:10203000029107D20026069F002F43D173E00120B2
:1020400007B0F0BD019502469A433C465034002744
:102050003E460121617427606760A760E7612762DF
:102060006762E77423460B3B19702346143B1F60DD
:102070002346183B1F6023461C3B1F602346253B1D
:102080001F702346283B1E702346273B19702346AA
:10209000093B1F7023460C3B751C1D7023462C33D7
:1020A0005970B11C2174F11C2C256155A763E7639D
:1020B0002764DF70361D70349642CAD1019D069F99
:1020C000002F30D01C2421467143059A5318282133
:1020D00001915E54002159639963D9632833D97003
:1020E000012200925A70012F1DD0731C22465A43C0
:1020F000059FBA18019FD35551639163D16328326C
:10210000D170009B5370069A022A0CD0B21C544323
:10211000059B1B19019C1A5559639963D963283390
:10212000D970009959700028059F049E039A00D128
:102130008BE00299032904D200230698002858D185
:1021400083E0172109013C467E18904300273B4657
:1021500031464B390F70314654390F60314658398A
:102160000F6031465C390F60314665390F7031467A
:1021700068390B70314667390F7031462F390F704F
:10218000314638390F6031463C390F6031464039AD
:102190000F60314649390F7031464C395A1C0A706C
:1021A000314613390F7031461C390F6031462039E2
:1021B0000F60314624390F6031462D390F7031469A
:1021C00030399A1C0A703760311F0F603146083968
:1021D0000F60314611390F7031461439DA1C0A701C
:1021E0001B1D70368342B3D12746049E06980028F3
:1021F0002BD01C200146594379182122D2008B5440
:102200008C180021E16021616161E1706170069CC0
:10221000012C1AD05C1C2E46054665437D19AC5432
:10222000AC183546049EE16021616161E170617026
:10223000069C022C09D09B1C5843381883548018E4
:10224000C16001614161C170417039684022012360
:102250008B52002088520C464034A0802082BF243C
:1022600024028C5230706B7007B0F0BD10B582B094
:1022700000680D49884201D002B010BD0120C005A0
:102280000A490A6802430A600968014001910198FD
:102290001F24002120460A46FEF73AFE2046FEF79C
:1022A0002DFE02B010BDC046005C00401C10024074
:1022B000B0B50446872085006059012101F0B1F8CE
:1022C000605901F077F8B0BD10B504468069002868
:1022D00006D02748016806229143016000F062FCA5
:1022E00087208000205801F087F810BD80B5872135
:1022F0008900405801F087F880BD3D22D200835C00
:10230000012B01D1022070478218002904D024300B
:10231000017000201070704700684C2180234352E8
:1023200000201070704780B58721890042587B21BA
:1023300089004118104601F087F880BD00685821D7
:10234000425A0123DB03134343520020704700002D
:1023500010B5044687208000205801F0CBF8A06912
:10236000002804D00248016806220A43026010BD1A
:1023700010ED00E0F0B585B004468078C007464B0C
:102380004FD00120039001071A1F106808400290E7
:1023900006D1106808431060106808400490049843
:1023A000009201913D4E3068C00513D40398070296
:1023B000306838433060FEF70DFD0546306838421E
:1023C00008D1FEF707FD401B6428F7D903252846EE
:1023D00005B0F0BD032528022F4B1968014012D02B
:1023E0006268024091420ED00398000419681A688E
:1023F00002431A601A6882431A600846284A10404D
:102400001860C8073AD11868254908406168014337
:1024100019600298002804D1009A10680199884335
:1024200010602068C10707D181060DD4810313D441
:1024300000254005CBD518E0196903229143A26815
:102440000A431A618106F1D5196910229143E268A5
:102450000A431A618103EBD51969802291436269AD
:102460000A431A6100254005B1D518694021884307
:10247000216901431961284605B0F0BDFEF7AAFCA9
:1024800006466E4F044B18688007BCD4FEF7A2FCCA
:10249000801BB842F6D99AE7201002400070004035
:1024A000FFFCFFFFF0B581B00D460446614A11689C
:1024B00001200140A94208D211680126B1432943F5
:1024C000116011683140A94244D121688A0706D5BC
:1024D000594E3268F0239A43A36813433360C90707
:1024E00021D15449086801263040A84205D908681E
:1024F000B04308600868C0072CD12078400707D592
:10250000072000024C4A11688143E06808431060CC
:10251000494804682007810F4948022979D30329D3
:1025200062D1484875E06168434A032909D0121F07
:1025300002290BD0012910D112689203064609D551
:102540000FE0126BD203064604D50AE0126892012E
:10255000064606D4304601B0F0BD12689207064622
:10256000F8D5354A10680326B04308431060FEF7DB
:1025700031FC07466068012822D002282DD00328AC
:102580000CD12D4800680C2101400C29A9D0FEF780
:1025900021FCC01B29498842F3D9DBE726480068A3
:1025A0000007800F9DD0FEF715FCC01B2349884211
:1025B000F4D9CFE7FEF70EFCC01B20498842C9D8EA
:1025C0001D4800680C2101400429F3D189E7FEF77A
:1025D00001FCC01B19498842BCD8174800680C216F
:1025E00001400829F3D17CE70321C90322460A40B0
:1025F0008A4200D113481049896A0F220A401249C1
:10260000895CFDF793FD0146A002000F0F4A105CA4
:102610004843094909680906090F0D4A515CC84039
:102620000E49086000263046FEF724FC304601B013
:10263000F0BDC04600200240041002408813000094
:1026400000127A00006CDC026A5000085A50000840
:102650004A500008014800687047C0461C0000202E
:10266000F0B585B007460078C007F94E039719D03A
:1026700071680C20014004290DD0716801400829BF
:1026800000D0BDE00320C0037168014001200004B8
:10269000814200D0B4E03068800303D57868002818
:1026A00000D110E1387880071ED570680007800FD0
:1026B0000CD070680C210140082978D10320C00398
:1026C000716801400120C003814270D130688007E9
:1026D00003D5F868012800D0F5E03068F821884378
:1026E0003969C900014331603878000724D438784B
:1026F000400736D43878C00600D4BDE0039840695E
:10270000411D00D1ACE0012800D0FBE0706B04213A
:1027100001437163706B012101437163FEF75AFB42
:102720000546706B800700D59EE0FEF753FB411B0A
:1027300003200229F5D9BDE1706AF96900296BD03F
:10274000012108437062FEF745FB0546706A800769
:10275000CDD4FEF73FFB401B0228F7D9032005B07C
:10276000F0BD012002900107F0690840019006D1F8
:10277000F0690843F061F069084004900498009102
:10278000CF4F3868C00527D4029804023868204328
:102790003860FEF71FFB0546386820421CD1FEF763
:1027A00019FB401B6428F7D9032005B0F0BD306841
:1027B000F968002942D0012108433060FEF70AFB86
:1027C00005463068800788D4FEF704FB401B0228CA
:1027D000F7D9032005B0F0BD03988068B94F0028F1
:1027E00000D1B9E0052800D1CBE0012800D1CCE030
:1027F000306A029988433062306A04218843C7E016
:102800007868002800D1DCE0052800D1F2E001283A
:1028100000D0F8E00120F2E0012188437062FEF769
:10282000D9FA0546706A800700D460E7FEF7D2FA4D
:10283000401B0228F6D9032005B0F0BD01218843D2
:102840003060FEF7C7FA05463068800700D44BE7D2
:10285000FEF7C0FA401B0228F6D9032005B0F0BDF0
:10286000706B042188437063706BF821884303996F
:102870008969C9000143716303980078800618D5FF
:1028800072680C210A40012007040C2A09D07268E2
:102890000A40082A4BD10321C90372680A408A42C0
:1028A00045D1716B394204D00399096A012900D0DE
:1028B00000E10398476A0022002F07D070680C21BE
:1028C0000140082905D1012005B0F0BD104605B032
:1028D000F0BD0292012421063068019188433060E6
:1028E000FEF778FA0546022F00D0A6E067063068AA
:1028F000384200D1BEE0FEF76DFA411B03200229E9
:10290000F5D9D7E0706B042101437163706B01212D
:1029100088437063FEF75EFA0546706B8007ABD59F
:10292000FEF758FA411B03200229F6D9C2E0706B6A
:102930000399096A002900D18CE038437063FEF7DF
:1029400049FA0546706B3842B3D1FEF743FA411B92
:1029500003200229F6D9ADE0306A0299884330623B
:10296000306A042188433062FEF734FA0546306A43
:1029700080071CD5FEF72EFA411B0320B942F6D979
:1029800098E0306A042101433162306A02990843B9
:102990003062FEF71FFA0546306A800707D4FEF75B
:1029A00019FA401BB842F7D9032005B0F0BD0198D1
:1029B0000028039F00D09DE6F06900998843F061EC
:1029C00098E60120010432688A433260810432684B
:1029D0008A4332604404FEF7FDF90546039F3068E0
:1029E000204200D15EE6FEF7F5F9411B0320642981
:1029F000F5D95FE00120810432680A4332600104A6
:102A00003068084307E00120010432688A433260DD
:102A1000810430688843306001204404FEF7DAF90D
:102A200005463068204200D03CE6FEF7D3F9401B53
:102A30006428F6D9032005B0F0BD64063068204252
:102A40003AD0FEF7C7F9411B03200329F6D331E042
:102A500000100240B8437063FEF7BCF90546706B86
:102A6000384200D125E7FEF7B5F9411B03200229C2
:102A7000F5D91FE0F06A0F218843039A116B0143D7
:102A8000F1627B20C00371688143D06A0843916A78
:102A9000014371603068019908433060FEF79AF98C
:102AA00004463068384207D1FEF794F9011B032031
:102AB0000229F6D905B0F0BD029805B0F0BDC046B8
:102AC0000070004088130000001F4142414188000F
:102AD0000F490A6804239A43101808607047C046DB
:102AE00070470000401E010E01D0012070470749C9
:102AF000074A5060074803680B40032189075918AB
:102B0000016000209060072111607047FFFFFF0007
:102B100010E000E020ED00E080B5FFF7E1FF80BDB0
:102B2000FEE7000010B5094C09490022204600F0DC
:102B3000EAFA0849204600F00DFD0749204600F05A
:102B400059F9204600F01DFD10BDC046340E00208E
:102B50000000002020000020440100207047704742
:102B600010B586B06C462046FDF7F6FE7720607300
:102B700004200090FEF750F8FEF740F8FDF79AFEAB
:102B80002046FDF705FFFEF72FF8FDF7D9FFFDF70B
:102B9000DFFF06B010BD704780B5FEF753F9FFF7B1
:102BA000BBFF80BDB0B598B00120139028210B91D8
:102BB0000024149412900BA8FFF752FD002800D0B7
:102BC000FEE70A940994032008900720079007A8BD
:102BD00001252946FFF766FC002800D0FEE7069491
:102BE0006804019001A8FFF7C5FB002800D0FEE7AC
:102BF000FFF730FD7D21C900FDF798FAFFF772FF5E
:102C00000420FFF761FFE04321462246FEF780F9EA
:102C100018B0B0BD1248026801210A430260426840
:102C2000104B1340436002680F4B134003608A044B
:102C30000368934303603F22120443689343436055
:102C4000C26A0F239A43C262FF22D432036B9343BA
:102C50000363426B8A434263002181607047C04630
:102C6000001002400CB8FF08FFFFF6FE4321C90028
:102C70004158002904D085208200002088507047E8
:102C80000220704770B505464320C600A85981222E
:102C900092008418284600F0FCFAA060A859002889
:102CA00008D0A919206808344968CA6821469047A5
:102CB000002070BD022070BD10B50446812100F0D7
:102CC00049FA0121204600F045FA8221204600F011
:102CD00041FA4320C0002158002908D02418606818
:102CE00040688047206800F01BFE00202060002024
:102CF00010BD10B54321C90042185368002B0BD0FA
:102D00004158012040020C182078FF2804D0627836
:102D10009B689847FF202070002010BD0A21018089
:102D200000487047E00000204321018000487047C0
:102D30005800002043210180004870479C0000207B
:102D40004321018000487047EC000020F0B583B0BB
:102D50000446007C012675020028029500D040251B
:102D600081210227204601913A462B4600F0FEFAC7
:102D7000204631463A462B4600F0F8FA82210322DB
:102D80000823204600F0F2FA8720800000F0CAFDF8
:102D90004321C9006050002813D06118019A9200A5
:102DA000851848680068804700262E616E61207C87
:102DB0000028029B00D040232A680121204600F011
:102DC000E9FA304603B0F0BD10B54321C9004258BE
:102DD000002A05D0037C0121002B03D0402302E010
:102DE000022010BD4B028124A400125900F0D2FA37
:102DF000002010BD002904D08722920081500020BD
:102E00007047022070474322D200805881229200EE
:102E10008150002070474323DB00C0584123DB0072
:102E2000C150C018826000207047000070B50D4688
:102E3000044608786021014017D020291DD1432184
:102E4000CB00E118EA88002A19D0E65840B20028E1
:102E50001DD401204002301842706978017020466C
:102E6000314600F056F8002070BD68780A2804D179
:102E70000D490122204600F06BF8002070BD6878F3
:102E800049688B68002229469847002070BD687801
:102E900049688B6831469847EA882046314600F0F9
:102EA00057F8002070BDC046DC01002080B54321EA
:102EB000C9004158002907D04122D2008918CA68A8
:102EC000002A03D0012080BD022080BD0122CA60FB
:102ED0000A680B89812100F017FB002080BD80B5B6
:102EE00085229200825852689047002080BD10B51C
:102EF00013460A460024214600F04CFA204610BD35
:102F000010B513460A460024214600F0FDFA20467B
:102F100010BDB0B513460A462121C90043507D2497
:102F2000A4000325055141184B600024214600F000
:102F300031FA2046B0BD10B57D21890005224250EE
:102F4000002421462246234600F024FA204610BDE4
:102F500010B513460A467D2189000224445083613E
:102F6000C3610024214600F0CFFA204610BD10B501
:102F70007D21890004224250002421462246234616
:102F800000F0C2FA204610BD10B50A4603A0314C2D
:102F9000214600F061F8204610BDC046434443205E
:102FA000436F6E6669670000122008800048704712
:102FB0003001002010B50A4603A0264C214600F03F
:102FC0004BF8204610BDC04643444320496E74650B
:102FD0007266616365000000042008800048704745
:102FE0005401002010B50A4603A01A4C214600F0F7
:102FF00033F8204610BDC04643414E4465766963B0
:103000006573000010B50A4603A0124C214600F07B
:1030100023F8204610BDC04643414E5F5553425FE2
:10302000436F6E7665727465724261736963000006
:1030300010B50A4603A0074C214600F00DF82046C3
:1030400010BDC0463030303030303030303031415B
:1030500000000000E001002070B5002852D0037885
:10306000002B14D0041D0023E51E2D78002D10D058
:10307000A51E2D78002D0ED0651E2D78002D0CD0AC
:10308000251D1B1D2478002C2C46EDD107E00023C4
:1030900005E0012402E0022400E003242343DBB224
:1030A0005B009B1C138003224A700B700378002B7B
:1030B00028D0021D0220C5B24B5501231D43002418
:1030C0004C55D51E2D78002D1CD0861CF6B28D5582
:1030D0001E438C55951E2D78002D13D0061DF6B27B
:1030E0008D551E438C55551E2D78002D0AD0861DFA
:1030F000F6B28D553343CC54141D08301378002B91
:103100002246D8D170BD10B5002811D07F239B0076
:10311000C3189C69002C01D000249C61002900D0B8
:10312000596102700121197000F0BAF8002010BD39
:10313000022010BD80B5112252018058FDF79EFF7C
:10314000042802D30220C0B280BDC100F648C840A6
:10315000C0B280BD80B5112252018058FDF72CFF0E
:10316000042802D30220C0B280BDC100EE48C8408E
:10317000C0B280BDF0B581B004467D208000271824
:1031800000290BD0386A4269002A04D0387A032813
:1031900001D120469047002001B0F0BD38680228D8
:1031A00038D1E069266AB0420ED9801BE06183B253
:1031B000204611461A46FFF7A3FE002120460A4684
:1031C0000B4600F0E7F825E0A56928463146FCF7F4
:1031D000ADFFB54212D3002910D1786885420DD2D7
:1031E0000025204629462A46FFF78AFE7D602046B4
:1031F00029462A462B4600F0CDF80BE0386AC16814
:10320000002904D0387A032801D120468847204677
:10321000FFF791FE387B0128BDD1002038730020D4
:1032200001B0F0BDB0B504467D2080002018002913
:103230000AD0026A9269002A04D0007A032801D1D8
:10324000204690470020B0BD01680329FAD14321F0
:10325000890063181D6859688D420CD9681A186076
:10326000884200D3084683B2204611461A46FFF72B
:103270003EFE0020B0BD016A0969002904D0007A31
:10328000032801D1204688472046FFF770FE002022
:10329000B0BD80B5112252018058FDF739FF80BDC5
:1032A00070B511214A012049815087239B00C850E5
:1032B00000238B61CB610B62022408251B4E0E603C
:1032C0004D608C60CB600C6186180846FEF790FE5E
:1032D00001210C02002804D02146343114A000F052
:1032E0002DFB30680025182329462A46FDF72CFEC1
:1032F0003068802158232A46FDF726FE3068812158
:10330000C0232A46FDF720FE3068234610330121F2
:103310002A46FDF719FE306882212A462346FDF72A
:1033200013FE284670BDC0469C100020005C004083
:103330002E2E2F5372632F757362645F636F6E66F8
:103340002E6300007F220A401C23534311225201A6
:103350008058C01849B2002904D48521490040187A
:10336000007870472A3000787047000010B5144686
:103370001122520180581A462346FDF7D3FE042835
:1033800002D30220C0B210BDC1006748C840C0B21D
:1033900010BDC04610B5112464010059FDF7BEFFF1
:1033A000042802D30220C0B210BDC1005E48C8404C
:1033B000C0B210BD70B504460026402531463246E5
:1033C0002B46FFF7D3FF1120000125508021204616
:1033D00032462B46FFF7CAFF7F208000012121548F
:1033E00025622018C169002904D0217980694268CA
:1033F00020469047002070BD7F21890042185278F6
:1034000042540020704780B57F218900425C032A26
:1034100005D141188969C969002900D08847002071
:1034200080BD01740020704780B511225201805880
:10343000FEF763FF042802D30220C0B280BDC100A2
:103440003948C840C0B280BDF0B581B004467D2087
:103450008600A7193D461435284600F067F801207C
:10346000A051788B7860397D1F20084002280AD04F
:1034700001280FD0002814D12046294600F086F8F4
:10348000002001B0F0BD2046294600F0A7F9002039
:1034900001B0F0BD2046294600F014FA002001B02A
:1034A000F0BD80200140204600F004F8002001B06B
:1034B000F0BD000080B5112252018058FDF78EFF4B
:1034C000042802D30220C0B280BDC1001648C84003
:1034D000C0B280BD80B5112149014058FEF72EFFD2
:1034E000042802D30220C0B280BDC1000E48C840EB
:1034F000C0B280BD7F218900425C04234354401840
:10350000427000207047000010B51124640100597A
:10351000FDF7ACFF042802D30220C0B210BDC100E9
:103520000148C840C0B210BD000201020A78027012
:103530004A7842708A78CB781B029A1842800A79BE
:103540004B791B029A1882808A79C97909028918F5
:10355000C1807047002904D085229200815000204C
:1035600070470220704780B5852292008258002A59
:1035700005D012689047411E8841400080BD02205E
:1035800080BD80B5FFF7A6FF002080BD70B582B07A
:103590000D4604464978092900D9CEE07F208200F3
:1035A000A618C0467944097949008F440410C625FD
:1035B000C65D78C636453078FE210140022900D02C
:1035C000BBE0B068002800D17DE003207CE03078CB
:1035D000FE210140022900D0AFE06888012800D018
:1035E000DDE00020B060B06982682046294690473F
:1035F0002046FFF7BCFCD2E06888012800D0CEE06E
:103600000120B060B0698268204629469047204674
:10361000FFF7ADFC002002B070BDE888012800D0A3
:103620008BE03078032854D0022800D085E00020B9
:10363000A060214608314DE06888674D2870C1B20E
:10364000022900D379E03078032845D0022800D041
:1036500073E00029DBD00320307061602046FFF763
:1036600082FF0228D3D168E0A988002965D1E988C2
:10367000002962D1317803295FD0AD780540B5705B
:1036800020462946FFF7D0FE2046FFF770FC002DAC
:1036900000D187E002203070002002B070BD688841
:1036A000010A491E062948D87944097949008F44FE
:1036B0000332244444384100207C71690A6801A91E
:1036C0009047014659E00120E06021460C3102227A
:1036D0005FE0211D01225CE0002939D060680128EB
:1036E00095D0C1B22046FFF7FAFB297861602046E9
:1036F000FFF739FF022820D089E7C0B205281CD87F
:1037000078440079400087440252565A5E62207C19
:1037100071694A68D3E7B069217C002920D0C16A69
:103720001FE0207C002808D1B069416B01A88847C0
:10373000014622E0207C002818D080212046FFF797
:10374000B9FE00212046FFF7B5FE002002B070BD93
:1037500000206060022030702046FFF7C0FB56E773
:10376000816A01A888470146022005E0B069016B23
:1037700001A8884701460720487001A80288002A4E
:103780000DD0E88800280AD0824200D3024601A862
:1037900002802046FFF7DCFB002002B070BD002055
:1037A00002B070BD01203070002002B070BD207CDE
:1037B00071698A6883E7207C7169CA687FE7207C29
:1037C00071690A697BE7207C71694A6977E7207C27
:1037D00071698A6973E7C046DD010020F0B581B0E8
:1037E0000D4604467F2081006718297860220A4030
:1037F000202A05D1B869826820462946904747E0CB
:10380000AE88697800290ED001291CD003293FD148
:103810003978032925D002291AD080212046FFF7C4
:1038200049FE002117E0387803280FD1F1B2204675
:10383000FFF788FD411E88417106490D6118320667
:1038400029D514312AE0387803281ED00228E4D183
:1038500070061DD0F1B22046FFF72CFE002001B00B
:10386000F0BD6988002905D1304003D0F1B220466F
:10387000FFF720FEB8698268204629469047204617
:10388000FFF775FB002001B0F0BD688800280DD05F
:10389000002001B0F0BD4122920089180860022288
:1038A0002046FFF755FB002001B0F0BD7006E6D0C2
:1038B000F1B22046FFF73EFCB869826820462946EF
:1038C0009047DCE7B0B50D4604467F208000215CC0
:1038D00003290DD1A9880906490E13D0802120465D
:1038E000FFF7E8FD00212046FFF7E4FD0020B0BD12
:1038F00080212046FFF7DEFD00212046FFF7DAFD9C
:103900000020B0BD20188069826820462946904773
:10391000E8880028F4D12046FFF729FB0020B0BD3D
:103920007047000000487047E003002080B502485F
:10393000FDF7A2FE80BDC0469C100020FEE710B53A
:1039400086B06C462046FDF707F8607B7F2811D0D3
:103950006C467F20607304200090FDF75DF9FDF751
:103960004DF9FCF7A7FF2046FDF712F8FDF73CF9EB
:10397000FDF7EEF806B010BD86B046480068006856
:1039800000021630444F7860FFF7D9FFFDF762FA66
:10399000FFF708F90126B105404802680A430260B2
:1039A00002680A4001920199710402680A430260A8
:1039B00002680A4001920199B10402680A43026058
:1039C0000068084001900198354C0025204631469A
:1039D0002A46FDF7F7F9049503950296019601A989
:1039E0002046FDF72BF92F4C26626562A562E56241
:1039F0000320010500910522520433062A49216063
:103A00006060A560E360226100982146143161C1C5
:103A10002046FCF701FD002800D0FEE7FFF782F802
:103A200022480421224ABA60F960386178613E4632
:103A300008363046FDF7D2F9002800D0FEE73D7089
:103A400038463430394618312163606301F084F818
:103A50001E2002210A46FDF75BFA20462946FCF7A4
:103A60009DFD144D02E03046FDF7E4F9284600F0D4
:103A700055F801F0BFF838780028F4D0606B01F0F9
:103A8000DBF83878FE210140397000212046FCF730
:103A900085FDE8E758010020600100201410024075
:103AA000001400485810002000640040FF0F000080
:103AB00000300040D00D0020F0B581B00346002654
:103AC00016600120002923D000905624E44330469C
:103AD00008E025462735491EF619761916605B1C45
:103AE0000D0617D01D78002D12D0360116601F78F4
:103AF0003D46303D0A2DECD33D46413D062D02D2D8
:103B000025462035E7E73D46613D052D2546E2D9AE
:103B100001B0F0BD009801B0F0BD0000F0B59DB05F
:103B2000044601780727762900D96FE300208A0030
:103B300001A39A589746C046274200080D42000844
:103B40000D4200080D4200080D4200080D42000819
:103B50000D4200080D4200080D4200080D42000809
:103B60000D4200080D4200080D4200080D420008F9
:103B70000D4200080D4200080D4200080D420008E9
:103B80000D4200080D4200080D4200080D420008D9
:103B90000D4200080D4200080D4200080D420008C9
:103BA0000D4200080D4200080D4200080D420008B9
:103BB0000D4200080D4200080D4200080D420008A9
:103BC0000D4200080D4200080D4200080D42000899
:103BD0000D4200080D4200080D4200080D42000889
:103BE0000D4200080D4200080D4200080D42000879
:103BF0000D4200080D4200080D4200080D42000869
:103C00000D4200080D4200080D4200080D42000858
:103C10000D4200080D4200080D4200080D42000848
:103C20000D4200080D4200080D4200080D42000838
:103C30000D4200080D4200080D4200080D42000828
:103C40000D4200081B3F00080D4200080D4200080D
:103C5000593E0008533F00080D4200080D4200087D
:103C60000D4200080D420008DF3F0008313D00080A
:103C7000ED3E0008493D00080D4200080D420008D5
:103C8000153D0008933E0008153D00080D42000850
:103C9000613F0008533F00080D4200080D42000834
:103CA0002F3F00080D4200080D4200080D42000899
:103CB0000D4200080D4200080D4200082540000892
:103CC000313E00080D4200080D4200080D42000878
:103CD0000D4200080D4200080D4200080D42000888
:103CE0000D4200080D42000805400008313D000863
:103CF0000D420008493D00080D4200080D42000831
:103D0000153D00087D3D0008153D00080D420008E6
:103D1000E93D00086B484078022800D076E2202078
:103D20000143722900D085E100200C90022084E13B
:103D30006678642E14D100F00FFF6248C178002924
:103D400000D09AE10D2799E15F4800218160FCF7DE
:103D50004BFA002800D059E21E20FDF7CFF85AE1B7
:103D60000727002E00D151E25620C143304630389B
:103D70000A2800D38EE10A46273267E2514D68785F
:103D8000002800D042E2601C022110AAFFF794FE36
:103D90000727002800D139E2E01C02211CAAFFF706
:103DA0008BFE002800D131E2601D02211BAAFFF723
:103DB00083FE002800D129E2E01D04211AAAFFF7A2
:103DC0007BFE002800D121E23F4810991C9A1B9BE2
:103DD00006460C360EC61A994160FCF705FAE878DB
:103DE000002800D111E2B9E0364801781F290DD82A
:103DF0000178411876220A710178491C0170017816
:103E00001F2906D901781F290ED9D5E001781F296D
:103E1000F8D80178411830220A710178491C0170E4
:103E200001781F2900D9C7E0017841183422ABE09E
:103E300060786F2800D0E9E1A0786F2800D0E5E134
:103E4000E078742800D0E1E10020E070A07060709C
:103E50002070FEF785FED9E11B48FCF7DBFA194913
:103E60000A781F2A39D80A788A18462313710A78E3
:103E7000521C0A70C0B20A781F2A32D90A781F2A47
:103E800000D939E10F221040092800D91AE1302267
:103E900019E10C4D6878002800D0B7E1607830381F
:103EA000092800D9B2E14000784480884000874466
:103EB0000D00BE02C602CE02D602DE02E602EE020D
:103EC000F602FE02B801002058100020002001F088
:103ED0002BF8E878002841D197E1C0B20A781F2A70
:103EE000CCD89F2800D9FAE03022F9E0FA480178CE
:103EF0001F2906D8017841184E220A710178491C01
:103F00000170F6490A68D2B203781F2B00D901E18B
:103F10009F2A00D9F5E03023F4E01E20FCF7E4FFEF
:103F2000FB4800214170C078002817D16DE160780E
:103F3000010600D16AE101463039C9B20A2908D325
:103F4000C0B201466139062903D34138052800D99A
:103F50005CE1EF48C078002800D156E10A2755E11E
:103F6000EB4801781F291AD80178411856220A71A6
:103F70000178491C017001781F2913D901781F2984
:103F80001AD80178411831220A710178491C017050
:103F900001781F2913D901781F291BD931E1017834
:103FA0001F29EBD80178411830220A710178491C89
:103FB000017001781F29E4D901781F29EBD8017815
:103FC000411830220A710178491C017001781F29BB
:103FD00000D916E10178411831220A712AE1CC4D4D
:103FE0006878002800D011E10126F007C9498860EF
:103FF0001E20FCF783FFFCF7F7F86E70E8780028C6
:10400000ACD102E101208007C24988601E20FCF784
:1040100075FFFCF7E9F8BE4802214170C07800281E
:104020009CD1F2E0BA48C17801224A40C27000290E
:1040300094D0EAE001200C900020B649096B0D9164
:10404000C860617820785A280BD2002900D184E317
:104050005620C543084630380A2823D22846273040
:104060000CE1002900D178E35620C0430A46303ADB
:104070000A2A1FD2024627321AE10A2701781F298D
:1040800000D9C3E0017841184D220A710178491C1A
:104090000170BBE030464138062800D3D1E00A4623
:1040A0002032D3E008464138062800D3E0E0284615
:1040B0002030E3E00A46413A062A00D3F2E0024605
:1040C0002032F5E0372210180A788A181071087823
:1040D000401C0870C878002800D196E03EE73722DF
:1040E0000309D2180B78CB181A710A78521C0A707F
:1040F0000A781F2A00D8C5E6C878002800D184E0D5
:104100002CE7372315095B19057845192B710378BE
:104110005B1C037003781F2B0DD80F231A40092A4C
:1041200001D8302300E037239A180378C3181A7196
:104130000278521C02700A68120AD2B203781F2B4E
:104140000CD89F2A01D8302300E0372315095B19CA
:10415000057845192B7103785B1C037003781F2BBE
:104160000DD80F231A40092A01D8302300E0372345
:104170009A180378C3181A710278521C02700A68E0
:10418000120CD2B203781F2B0CD89F2A01D83023EF
:1041900000E0372315095B19057845192B71037861
:1041A0005B1C037003781F2B0DD80F231A40092ABC
:1041B00001D8302300E037239A180378C3181A7106
:1041C0000278521C02700968090E02781F2A03D86F
:1041D0009F290AD8302209E002781F2A11D80F221D
:1041E0001140092921D8302220E037220B09D218AA
:1041F0000378C3181A710278521C027002781F2AC1
:10420000EDD9C078002800D0A8E60D270020207046
:104210003F490A7801201F2A05D80A788A181771A1
:104220000A78521C0A701DB0F0BD3722511802786E
:10423000821811710178491C0170C0780028E4D0FF
:104240008CE63046613805280A46DFD8A378002B73
:10425000DCD0184630380A280D9302D20B4627339B
:1042600043E01846413806283AD20B4620333CE05A
:10427000084661380528284600D96EE2A278002A4F
:1042800000D16AE21346303B0A2B03D22B46273378
:104290000A9347E01346413B062B3DD22B46203381
:1042A0000A933FE00A46613A052A024600D954E2E1
:1042B000A578002D00D150E22B46303B0A2B03D2CB
:1042C000034627330B9349E02B46413B062B3FD255
:1042D000034620330B9341E0B80100206401002025
:1042E0001846613805280B4690D8E578002D8DD00A
:1042F000284630380A280C9502D20846273042E07A
:1043000028464138062839D2084620303BE0C046CE
:10431000B8010020581000201346613B052B0A9578
:1043200000D91AE2E3780B93002B00D115E20B9E23
:104330003346303B0A2B03D22B46273308933AE00F
:104340003346413B062B31D22B462033089332E0D3
:104350002B46613B052B0B9000D9FEE1E678002E41
:1043600000D1FAE13346303B0A2B01D227303EE040
:104370003346413B062B35D2203038E0613D052DD8
:10438000084600D942E72579002D00D13EE70A9082
:10439000284630380A280B9501D22731B3E0284649
:1043A0004138062800D3AAE02031ACE0613E052E5A
:1043B000089500D9D1E123790993002B00D1CCE1F4
:1043C000099E3346303B0A2B03D22B4627330693F4
:1043D000EDE03346413B062B00D3E3E02B46203390
:1043E0000693E4E03346613B052B00D9B5E1511853
:1043F000090149190B9A8918090100220D9B9A603D
:10440000891908181860032001194A78002A00D178
:10441000A3E15623DB431546303D0A2D01D2273355
:1044200052E01546413D062D49D220334CE0012093
:1044300000F07AFDE878002800D1E6E68EE502205B
:1044400000F072FDE878002800D1DEE686E5032062
:1044500000F06AFDE878002800D1D6E67EE5042069
:1044600000F062FDE878002800D1CEE676E5052070
:1044700000F05AFDE878002800D1C6E66EE5062077
:1044800000F052FDE878002800D1BEE666E507207E
:1044900000F04AFDE878002800D1B6E65EE5082085
:1044A00000F042FDE878002800D1AEE656E5242071
:1044B00000F03AFDE878002800D1A6E64EE5154662
:1044C000613D052D00D948E19A180D9B1A610C9B9E
:1044D000002B00D132E1D2B2082A00D30822002AF0
:1044E00000D12BE10D928B78002B00D135E11A46DB
:1044F000303AD2B20A2A00D38AE0D025B0E0613D3A
:10450000052D00D982E6079308920991601D0121CB
:104510001CAAFFF7D1FA002800D177E6A01D0821D8
:104520000FAAFFF7C9FA002800D16FE620460E3027
:1045300001211BAAFFF7C0FA002800D166E6204639
:104540000F3008210EAAFFF7B7FA002800D15DE668
:104550002046173001251AAA2946FFF7ADFA002890
:1045600000D153E606950898801900010D9940186E
:104570000799401808900C980A99081800010B999F
:104580004018099947181CA8057868070D901B98D2
:104590000F9977D400F0F8FA06460E991A9800F0B1
:1045A000F3FA76E0613E052E069500D9D5E06379F1
:1045B0000793002B00D1D0E0079E3346303B0A2BF7
:1045C00003D22B46273304930CE03346413B062BA2
:1045D00003D22B462033049304E0613E052E04955C
:1045E00000D9BAE0A3790593002B00D1B5E0059E70
:1045F0003346303B0A2B03D22B462733029313E07A
:104600003346413B062B0AD22B46203302930BE064
:104610001A46413AD2B2062A1CD2C92520E0613E90
:10462000052E029500D998E0E3790393002B00D181
:1046300093E0039E3346303B0A2B03D22B462733AD
:1046400000935BE03346413B062B53D22B4620338D
:10465000009353E01A46613AD2B2052A7DD8A925C3
:104660008A1C5678002E78D03246303AD2B20A2AC6
:1046700001D2D02258E03246413AD2B2062A4DD277
:10468000C92251E000F09EFA06460E991A9800F0F1
:1046900099FA199708991591069929401891010CD2
:1046A000139180B21290300C1190B0B210900D980E
:1046B000C00F1790A807C00F16902807C00F1490BE
:1046C000FB4D28781F2806D8287828184D2101711D
:1046D0002878401C2870F74810A9FBF72BFEE978D2
:1046E000002901D10D2700E00A27002800D18DE51F
:1046F00007278BE5613E052E00952ED8237A01937E
:10470000002B2AD0019E3346303B0A2B01D227359D
:1047100049E0413E062E42D2203544E03246613A1D
:10472000D2B2052A19D8A922EB181B019B199A1895
:10473000E04B1B6B1A750D9A012A24D11E252846C1
:10474000FCF7D2FBDB480021FBF790FF064628462A
:10475000FCF7D4FB002E00D058E52078FD4A1178F4
:104760001F290AD85A2801D37A2000E05A2011784C
:10477000511808711078401C1070D078002800D1B2
:1047800043E5FFF7EBFB04221043235C002BE4D04E
:104790001A46303AD2B20A2A31D2D0253CE0019BE7
:1047A000613B052BD9D84018000180180A994018A0
:1047B00000010B9940180899401800010999401808
:1047C0000699401800010799401804994018000103
:1047D0000599401802994018000103994018009962
:1047E000401800010421019A801840190D9A506068
:1047F0009160082001194A78002AAED009E61A46CD
:10480000413AD2B2062A01D2C92505E01A46613AD8
:10481000D2B2052AA1D8A9252018407800289CD01A
:104820000246303AD2B20A2A01D2D0220CE0024625
:10483000413AD2B2062A01D2C92205E00246613AC3
:10484000D2B2052A89D8A922EB181B0118188018A2
:10485000CC4A126B50750D98022800D16EE788790A
:10486000002800D179E70246303AD2B20A2A01D2B2
:10487000D0230DE00246413AD2B2062A01D2C92322
:1048800006E00246613AD2B2052A00D965E7A923BB
:104890008A1D5578002D00D15FE72A46303AD2B202
:1048A0000A2A01D2D0220DE02A46413AD2B2062A83
:1048B00001D2C92206E02A46613AD2B2052A00D9BD
:1048C0004BE7A9221818000140198018AD4A126B55
:1048D00090750D98032800D130E7087A002800D1A0
:1048E0003BE70246303AD2B20A2A01D2D0230DE089
:1048F0000246413AD2B2062A01D2C92306E0024654
:10490000613AD2B2052A00D927E7A9230A4608321C
:104910005578002D00D120E72A46303AD2B20A2A33
:1049200001D2D0220DE02A46413AD2B2062A01D263
:10493000C92206E02A46613AD2B2052A00D90CE71C
:10494000A92218180001401980188E4A126BD075E0
:104950000D98042800D1F1E6887A002800D1FCE601
:104960000246303AD2B20A2A01D2D0230DE00246E2
:10497000413AD2B2062A01D2C92306E00246613A80
:10498000D2B2052A00D9E8E6A9230A460A325578A8
:10499000002D00D1E1E62A46303AD2B20A2A01D2ED
:1049A000D0220DE02A46413AD2B2062A01D2C922CB
:1049B00006E02A46613AD2B2052A00D9CDE6A922FC
:1049C00018180001401980186E4A126B10760D9865
:1049D000052800D1B2E6087B002800D1BDE60246DA
:1049E000303AD2B20A2A01D2D0230DE00246413A2F
:1049F000D2B2062A01D2C92306E00246613AD2B2F7
:104A0000052A00D9A9E6A9230A460C325578002DBB
:104A100000D1A2E62A46303AD2B20A2A01D2D022E6
:104A20000DE02A46413AD2B2062A01D2C92206E056
:104A30002A46613AD2B2052A00D98EE6A922181870
:104A40000001401980184F4A126B50760D980628C5
:104A500000D173E6887B002800D17EE60246303A1A
:104A6000D2B20A2A01D2D0230DE00246413AD2B294
:104A7000062A01D2C92306E00246613AD2B2052ACB
:104A800000D96AE6A9230A460E325578002D00D1D6
:104A900063E62A46303AD2B20A2A01D2D02212E084
:104AA0002A46413AD2B2062A06D2C9220BE0C046B3
:104AB000B8010020581000202A46613AD2B2052AD7
:104AC00000D94AE6A92218180001401980182D4A79
:104AD000126B90760D98072800D12FE6087C0028ED
:104AE00000D13AE60246303AD2B20A2A01D2D022A6
:104AF0000DE00246413AD2B2062A01D2C92206E0AE
:104B00000246613AD2B2052A00D926E6A92210311E
:104B10004978002900D120E60B46303BDBB20A2B56
:104B200001D2D0230DE00B46413BDBB2062B01D274
:104B3000C92306E00B46613BDBB2052B00D90CE62E
:104B4000A923101800014018C0180E49096BC87637
:104B5000F4E5C046B801002080B58AB00120079076
:104B60000021069105910091019102910391049118
:104B70000991089003486946FBF7DCFB411E884118
:104B80000AB080BD5810002070B5FF221502002326
:104B900082071C461A4605D54A01D4B22A404E0562
:104BA000760F3419060705D5E035CE0A2E404901A7
:104BB0004B0F33434000182101400C4322431004A3
:104BC000184370BDFF2212028307580F002B04D434
:104BD000490113460B40002205E0CB001A40C018E3
:104BE0008903C90E0023C9B21943C0B2104300049F
:104BF0000818704710B5CA4C207800281AD04320F6
:104C0000C000C8490858852189004018016800295A
:104C100008D00168002905D00168002902D0016888
:104C20000029F3D12178201DFBF716FB0028F9D1CC
:104C30000020207010BDC046B0B5B94C2278836802
:104C4000C168042B23D11F2A30D9C17922781F2AA9
:104C50003FD922781F2A5DD9817922781F2A7BD9F2
:104C600022781F2A00D895E0417922781F2A00D89F
:104C7000A3E022781F2A00D8B0E0017922781F2A09
:104C800000D8BEE02278202A00D2CAE0D7E01F2A4E
:104C900010D9417822781F2A2AD9017822781F2A30
:104CA0004AD922781F2A00D8BBE0C8E0022905D0E3
:104CB000542104E0022910D074210FE052212278FF
:104CC000A21811712178491C2170C17922781F2AFC
:104CD000BFD89F2912D8302211E072212278A21861
:104CE00011712178491C2170417822781F2AD4D86B
:104CF0000F221140092913D8302212E037220B0964
:104D0000D2182378E3181A712278521C2270227864
:104D10001F2AA1D80F221140092911D8302210E0F2
:104D2000372251182278A21811712178491C21705C
:104D3000017822781F2AB4D89F2911D8302210E098
:104D4000372251182278A21811712178491C21703C
:104D5000817922781F2A83D89F290ED830220DE02E
:104D600037220B09D2182378E3181A712278521CC3
:104D7000227022781F2A54D961E037220B09D218F9
:104D80002378E3181A712278521C227022781F2A85
:104D900000D969E70F221140092901D8302200E02B
:104DA000372251182278A21811712178491C2170DC
:104DB000417922781F2A00D95BE79F2901D8302248
:104DC00000E037220B09D2182378E3181A712278F1
:104DD000521C227022781F2A00D94EE70F22114060
:104DE000092901D8302200E0372251182278A21870
:104DF00011712178491C2170017922781F2A00D96C
:104E000040E79F2901D8302200E037220B09D21851
:104E10002378E3181A712278521C22702278202AF3
:104E20000DD20F220A40092A01D8302100E0372193
:104E300089182278A21811712178491C2170016902
:104E400022781F2A0DD8CAB2092A01D8302200E0E0
:104E5000372251182278A21811712178491C21702B
:104E60000169002902D0C168022907D1E0782178C0
:104E70001F2935D800282CD10D202BE00022114607
:104E80000CE030239A182378E3181A712278521C08
:104E90002270491CCAB203699342E7D08218127D7E
:104EA00023781F2B0CD89F2A01D8302300E037230A
:104EB00015095B19257865192B7123785B1C237004
:104EC00023781F2BE5D80F231A40092AD9D9372375
:104ED000D8E70A202178611808712078401C2070DA
:104EE000207800281AD04320C0000E490858852198
:104EF000890040180168002908D00168002905D000
:104F00000168002902D001680029F3D12178201D11
:104F1000FBF7A2F90028F9D1002020700020B0BDD5
:104F2000B8010020340E0020B0B5032213053D491E
:104F30000524640401252D06CD600C614B612428F5
:104F40005FD8800001A318588746C046E14F00088B
:104F5000E74F0008EB4F0008EF4F0008F34F000841
:104F6000F74F0008FB4F00080350000801500008ED
:104F700003500008035000080350000803500008C5
:104F800003500008035000080350000803500008B5
:104F900003500008035000080350000803500008A5
:104FA0000350000803500008035000080350000895
:104FB0000350000803500008035000080350000885
:104FC0000350000803500008035000080350000875
:104FD000035000080350000803500008FF4F00086A
:104FE0004B2082000CE096220AE03C2208E01E22C0
:104FF00006E0182204E00C2202E0062200E024224F
:105000004A600848FBF708FA032809D1064C054D09
:105010002046FBF70FFF2846FBF7FEF90328F7D0E1
:10502000B0BDC046581000206801002002E008C84A
:10503000121F08C1002AFAD170477047002001E012
:1050400001C1121F002AFBD17047000000000000C0
:10505000000001020304060708090203040506070D
:1050600008090A0B0C0D0E0F1010010203040506AF
:105070000708090A0B0C0D0E0F100000A0500008C5
:105080000000002060010000900100086851000845
:1050900060010020881500003C500008000000005E
:1050A00013A92F1B08D9041AE5041305301B083176
:1050B000041A890C1AB5041113127A134D2D140811
:1050C000B92C1C082D2E10311AF30C1A6D041A85F8
:1050D00004C11A35281A29041A41041A1D04140996
:1050E000024313020125C03209041B01020B130500
:1050F00024161001052401100901042402020524CC
:105100000617010705820308151009040133020A76
:105110002E0705010240072A810711093744113A79
:1051200002441907112B0A0606112B4001502A07C9
:10513000500A2204500A16FF941A12171302021E74
:1051400040830440574D1B020359131D021B0819CD
:10515000041A15041A4104400904030904B0F7FFB6
:085160001F0000000000000028
:04000005080000C12E
:00000001FF
