:020000040800F2
:10000000481300208101000811310008D730000892
:1000100000000000000000000000000000000000E0
:100020000000000000000000000000004B3100084C
:100030000000000000000000133100084D310008EE
:10004000B1010008B1010008B1010008B1010008C8
:10005000B1010008B1010008B1010008B1010008B8
:10006000B1010008B1010008B1010008B1010008A8
:10007000B1010008B1010008B1010008B101000898
:10008000B10100080000000000000000B1010008FC
:1000900000000000B1010008B1010008B101000832
:1000A00000000000B1010008B1010008B101000822
:1000B0002D35000800000000490700081143000822
:1000C00000F002F800F030F80CA030C8083824180E
:1000D0002D18671EA246AB4654465D46AC4201D180
:1000E00000F022F87E460F3EB6460FCC0126334282
:1000F00000D0FB1A3343A246AB4618478057000096
:10010000A05700000023002400250026103A01D348
:1001100078C1FBD8520700D330C100D50B607047BF
:100120001FB51FBD10B510BD00F0A5F91146FFF7B2
:10013000F7FF04F013F900F0BDF903B4FFF7F2FF85
:1001400003BC00F0C3F9000070B505460C46164626
:1001500002E00FCC0FC5103E102EFAD2082E02D3AB
:1001600003CC03C5083E042E07D301CC01C5361FBE
:1001700003E021782970641C6D1C761EF9D270BDD5
:100180000F4880F308880F480168090E0E4A914213
:1001900005D10E480E4901600E480F4901600F4815
:1001A00080470F480047FEE7FEE7FEE7FEE7FEE771
:1001B000FEE700000B480C490C4A0D4B704700004D
:1001C00048130020040000001F0000001810024027
:1001D000010000000000014000000000C9310008DB
:1001E000C1000008480D002048130020480F0020DF
:1001F000480F0020F8B5042A2CD3830712D00B78BF
:10020000491C0370401C521E83070BD00B78491CFD
:100210000370401C521E830704D00B78491C0370E6
:10022000401C521E8B079B0F05D0C91ADF002023EC
:10023000DE1B08C90AE0FFF787FFF8BD1D4608C9A5
:10024000FD401C46B4402C4310C0121F042AF5D2B6
:10025000F308C91A521EF0D40B78491C0370401CD5
:10026000521EEAD40B78491C0370401C012AE4D4C6
:1002700009780170F8BD0000002203098B4273D396
:10028000030A8B4258D3030B8B423CD3030C8B42A3
:1002900021D312E003460B437FD4002243088B4254
:1002A00074D303098B425FD3030A8B4244D3030BFD
:1002B0008B4228D3030C8B420DD30902FF2212BAC2
:1002C000030C8B4202D31212090265D0030B8B423E
:1002D00019D300E0090AC30B8B4201D3CB03C01A28
:1002E0005241830B8B4201D38B03C01A5241430B03
:1002F0008B4201D34B03C01A5241030B8B4201D3F3
:100300000B03C01A5241C30A8B4201D3CB02C01A5D
:100310005241830A8B4201D38B02C01A5241430AD5
:100320008B4201D34B02C01A5241030A8B4201D3C4
:100330000B02C01A5241CDD2C3098B4201D3CB016B
:10034000C01A524183098B4201D38B01C01A52411A
:1003500043098B4201D34B01C01A524103098B421E
:1003600001D30B01C01A5241C3088B4201D3CB0009
:10037000C01A524183088B4201D38B00C01A5241EC
:1003800043088B4201D34B00C01A5241411A00D29C
:1003900001465241104670475DE0CA0F00D0494205
:1003A000031000D3404253409C46002203098B4275
:1003B0002DD3030A8B4212D38901FC2212BA030AFD
:1003C0008B420CD3890192118B4208D3890192117F
:1003D0008B4204D389013AD0921100E08909C30904
:1003E0008B4201D3CB01C01A524183098B4201D306
:1003F0008B01C01A524143098B4201D34B01C01AF1
:10040000524103098B4201D30B01C01A5241C30868
:100410008B4201D3CB00C01A524183088B4201D3D7
:100420008B00C01A5241D9D243088B4201D34B00F2
:10043000C01A5241411A00D2014652411046634649
:100440005B1001D34042002B00D549427047634600
:100450005B1000D3404201B50449002802DC491C6E
:10046000084000E00846C046C04602BDFFFFFF7FCF
:10047000704770477047754600F024F8AE46050097
:1004800069465346C008C000854618B020B5FFF73E
:1004900091FE60BCB64600260027C0C5C0C5C0C5D9
:1004A000C0C5C0C5C0C5C0C5C0C5403D490849009C
:1004B0008D46704710B50446C046C0462046FFF73B
:1004C0003CFE10BD00487047600100200149182023
:1004D000ABBEFEE726000200704770B58C180578A9
:1004E000401C6B075B0F01D10378401C2A1106D119
:1004F0000278401C03E00678401C0E70491C5B1E0D
:10050000F9D12B0705D40023521E0DD40B70491CC2
:10051000FAE70378401CCB1A921C03E01D780D709B
:10052000491C5B1C521EF9D5A142D8D3002070BDD6
:10053000B0B5884800F0B8FA032809D1054C854DBC
:10054000204600F013FF284600F0AEFA0328F7D04B
:100550000020B0BDF4090020F0B581B0002901D021
:10056000382200E0342282580B010468E4181B256D
:100570002D01675904263E40966067196459002E84
:1005800002D1640D146001E0E40854603E687D68A7
:100590007C680094BF6817750768FF183724E4006B
:1005A0003F593F0A57750768FF183F593F0C977529
:1005B0000768FF183C59240ED4750468E4186F27A7
:1005C000BF00E45914760468E418E459240A547608
:1005D0000468E418E459240C94760468E318DB59A1
:1005E0001B0ED3761162B307DB0F0F242C40D360B0
:1005F0001461009B1B0ADBB2D361002901D01022D9
:1006000000E00C2203689C58202525439D50502271
:10061000D243002900D146325C6914405C613D221E
:10062000845C02463D32222C02D01478322C04D154
:100630008F2424025D69A5435D611378002907D0EA
:10064000522B0DD0722B0DD0622B0DD1222112E036
:10065000422B0BD0722B0BD0622B0BD132210AE034
:10066000122108E0422106E0012104E0122102E00B
:10067000522100E00121117000F03AFB01B0F0BD01
:1006800080B5222801D104F0A9FD002080BD002002
:1006900070470000B0B52A4C2A49002520462A465A
:1006A00003F021F80249204603F015F82846B0BDB2
:1006B00024060020F0B581B004460868002814D054
:1006C0000D46002603E0761C286886420DD004F013
:1006D000B7FF0746A05D04F047FD002FF3D10028C7
:1006E000F1D0074803F028FFEDE7154D28462146D5
:1006F00002F0F1FF284602F0CFFF002001B0F0BD6C
:100700002807002070B50C4601464320C0000C4A63
:100710001058852292008058002801D0012070BD19
:10072000084D28462246FFF765FD054E304629460E
:10073000224602F0D8FF304603F020F870BDC046D4
:100740008C070020A406002080B5024800F0CEF8F7
:1007500080BDC046B0090020F0B581B0044600F06D
:10076000D5FD0146274F3868C00712D1386880068A
:1007700001D5202038603868C00605D438684007A5
:1007800002D4002001B0F0BD3868C0060AD40020B1
:100790000EE003200090661C18D0002C2AD100988F
:1007A00001B0F0BD1848C16902220A43C26110209D
:1007B0003968490706D51449CA6901231343CB6137
:1007C000042108433860012001B0F0BD3868C0073B
:1007D000CCD0002E0ED13868C007C7D0002E09D16A
:1007E0003868C007C2D0002E04D13868C007BDD019
:1007F000002EEBD00D4600F089FD2946401BA0429B
:10080000E4D9CCE70C200240980C0020F0B584B06D
:100810000122540205682859314B0340486A0002FE
:100820001843401C28514E6902921346B3402819C0
:10083000C4699C43C461DC430394CF69012F14D085
:10084000002F2DD1C768039C2740C760F700EC1923
:1008500001948C88CF683F04E41900940927BF01F4
:10086000019C009AE2510F4611E0C4681C43C46029
:10087000F4002C1901948F880C6824043C1900940E
:100880000927BF01019C009AE2510F460C37F40082
:100890002C193D888E683604AD199126B600A551F5
:1008A00045688C69002C01D01D4301E0039C254064
:1008B000456045690C69002C01D01D4301E0039C93
:1008C00025404561096A012902D1C1691943C16105
:1008D0000168029A91430160002004B0F0BDC04657
:1008E000FEC0FFFF7047006C7047000070B5044603
:1008F0000068C1680025C90606D54169090703D506
:100900001021C16001214D020169C90607D5416965
:10091000490604D510210161012189026D18416940
:10092000C9073FD08168554A1140914209D081687A
:10093000534A1140914204D08168524A1140914279
:1009400030D18168890709D48168890506D4816816
:10095000890303D40121C9026D181FE042690121F6
:100960008A4342613D22A35C22463D32122B04D1D0
:10097000454B5B3346691E4046611078422807D0DC
:10098000722803D0522804D1322102E0622100E013
:1009900022211170204600F06BFA206881683B4AE2
:1009A0000A4382604169890707D5C168890704D075
:1009B00000212046FFF7D0FD20684169C90606D511
:1009C0000069800703D001212046FFF7C5FD206C98
:1009D000284320640121CA0320688369DB0708D00B
:1009E0004369DB0505D54369134202D0236C0B43F1
:1009F000236483699B0709D543699B0506D5436931
:100A0000134203D0236C02251D43256483695B07D1
:100A100009D543695B0506D54369134203D0236CAE
:100A200004251D43256483695B065B0F14D043696D
:100A30001B0511D5436913420ED083697022134000
:100A4000103B5F2B05D89B0811A5EB58256C1D4367
:100A50002564836993438361226C002A0CD0426829
:100A60000423134343603D22A1544169064A0A40CE
:100A700042612046FFF736FF70BDC046010000040A
:100A80000001000800000110A470FFFF190501001B
:100A900008000000100000002000000040000000DE
:100AA0008000000000010000F0B581B0002825D0D2
:100AB000044607463C377878002804D10020387077
:100AC000204600F089F80220787021680A68824385
:100AD0000A60086801252843086000F017FC0646F4
:100AE00020684168C9070BD100F010FC801B0B285F
:100AF000F6D30020387003257D7069E0012567E09A
:100B00004168C90702D10420787061E0A169491EDB
:100B10004A424A41D101026880239A435118016038
:100B2000E169491E4A424A419101026840239A43C1
:100B300051180160216A491E4A424A415101026826
:100B400020239A4351180160616A491E4A424A4172
:100B50001101026810239A4351180160A16A491ECD
:100B60004A424A41D100026808239A435118016061
:100B7000E16A491E4A424A419100026804239A43AD
:100B800051180160A168E2680A4321691143626952
:100B90000A436168491E1143C1610168A9430160AC
:100BA00000F0B4FB064620684168C90709D000F090
:100BB000ADFB801B0B28F6D30020387003257D7019
:100BC00006E04068C0079ED1002020647D70054685
:100BD000284601B0F0BD000080B586B000680F491E
:100BE000884201D006B080BD012040060C490A6849
:100BF00002430A600968014000910420059000202A
:100C000003900220029003200490000201900098BB
:100C1000044801A900F0B4FA06B080BD00640040A9
:100C20001C1002400004004810B53C22835C0222E4
:100C3000012B46D003463C33012916D0002924D18C
:100C4000597822291DD0597842291AD05978622919
:100C500017D05978722914D05978122933D05229D3
:100C600033D0322933D1622132E05978322908D089
:100C70005978522905D05978622902D059787229B9
:100C800003D100201870104610BD5978122905D0E4
:100C9000422905D0222905D1622104E0522102E037
:100CA000722100E032215970002202648F21090272
:100CB000006844690C4344611A70416950230B4336
:100CC0004361104610BD422102E0722100E0222162
:100CD0005970002202648F210902006844690C43A4
:100CE00044611A7041690A230B434361104610BDE9
:100CF0000248017801220A4302707047240700204D
:100D0000F0B585B00D46044607463C37006881685B
:100D1000490109D48168090106D48168C90003D456
:100D20000420787001239CE03978012901D1022345
:100D300097E00122910604913A7079782229029273
:100D400005D0622905D0322905D1522104E0422183
:100D500002E0722100E012217970866804990E4049
:100D60000021002E039107D10121CB0682681A4091
:100D700000D10221D20E03920901401803210091F3
:100D8000C9014258029B1A4042504018216B8A68A0
:100D9000002A019707D0CB684F68FF001F43036804
:100DA0003B43134305E0CA680B685F0517430368BC
:100DB0003B43036042680F239A4342600A691A402A
:100DC0004368134343604B6983608B69C3600A6166
:100DD0000168029A1143016000F098FA0746206802
:100DE0008068002E04D10399002904D01E4903E035
:100DF0000499491C00E01D490840884215D0681C30
:100E0000EDD0002D04D000F081FAC01BA842E6D935
:100E10000199009B4B7000200870039800280ED1A8
:100E20000298C005002E0ED10EE0019948784228A4
:100E30000FD072280FD052280FD132200EE0029826
:100E4000C003002E00D0802021688A6802438A6097
:100E500007E0222002E0622000E0029800230B70ED
:100E60004870184605B0F0BD0001000800000110F0
:100E700070470000F0B583B0B04DE8680290AA4E0C
:100E80003046FFF769FC002801D003B0F0BD9A4856
:100E900000210191C1612868202738432860286813
:100EA0004024204328603046FFF756FC2968B943A8
:100EB00029600028E9D13046FFF74EFC0028E4D134
:100EC0008D480199C161286838432860286820430B
:100ED00028603046FFF740FC2968B94329600028A4
:100EE000D3D10620029901402868102420432860AD
:100EF000042901D0AA2200E0CC22022900D1BB2281
:100F000004490A803046FFF727FC2968A14329607D
:100F100003B0F0BD00F8FF1F072101600A494A68CD
:100F200082600A680968090A417306211140042990
:100F300001D0552200E03322D243022901D14421BD
:100F4000CA4302737047C0461C200240F0B583B00C
:100F50000446694E307E012802D1022003B0F0BD64
:100F6000012737762068C10709D1810752D441078C
:100F700000D582E0000700D59FE03846B8E06F4812
:100F800005696168A768684801291AD1FFF7E4FB81
:100F9000002800D0ACE000200290F061FFF76AFF6B
:100FA000002800D0A4E0BD43E9B2644D28681022B7
:100FB00002432A60FF29029822D050480088084046
:100FC00019E0FFF7C9FB002800D091E00020029053
:100FD000F061FFF74FFF002800D089E03D43E9B200
:100FE000564D2868102202432A60FF29029807D034
:100FF000424800880843414908804B48FFF7ACFB52
:101000002968102291432960002871D120680027A7
:101010008107ACD5257B4448FFF79EFB002867D1AC
:101020000027F7612946454D28680291202101914A
:101030000843286028684021014329603A48FFF7A7
:101040008BFB2968019A9143029A296000284FD1AD
:101050002B46286810252843186028480838028045
:101060003148FFF779FB354A1168A9431160002820
:101070003ED12068410700D47CE7657B2A4F384683
:10108000FFF76AFB002833D138460027F7612B4A67
:10109000116810230293194311601849891F0D80AC
:1010A000FFF75AFB254A1168029B994311600028FB
:1010B0001ED12068000700D45FE7257D24691A4F00
:1010C0003846FFF749FB002812D138460027F76160
:1010D0001A4B1A68294610252A431A602180FFF707
:1010E0003BFB164A1168A9431160002800D144E770
:1010F0000021317603B0F0BD980C002008F8FF1FE6
:101100000E48016880220A43026000207047C046F2
:1011100080B50120400309490A6802430A60024879
:10112000FFF71AFB80BDC04650C3000001204002FB
:1011300002490A6882430A6000207047102002407A
:1011400005488168890505D40B4901600B49016098
:101150000020704701207047082002400548C16800
:10116000090601D401207047034901600349016069
:10117000002070470420024023016745AB89EFCD72
:10118000F0B588B00A68002A00D1AAE004465648A3
:10119000844201D0052000E00220009000273B4659
:1011A0003D460BE003980243F2606D1C0A6810464E
:1011B000E8403F1D9B1C002800D192E001260496C8
:1011C000AE403240F1D006950593029703924A68EB
:1011D0001020104312280B460FD11C200299084002
:1011E0000F218140069AD508AD0065192F6A8F43FB
:1011F00019698140394329625A6819460327104604
:101200003840059B984001979F402568BD430543A2
:101210002560F843122A12D8049D9540344B1D4294
:10122000059B0CD0A5680540CF689F402F43A76061
:101230001509069FBD406768B7432F436760E5689F
:101240000540886898402843E060D000029F069DD2
:10125000ABD5724A1068049B1843106010681840A0
:1012600007900C2038402E460F258540019A964362
:10127000079A204BF258AA43F5180926F606B442FD
:1012800005D01D4B9C42009E02D1049E00E000262A
:10129000864016432E60154E32684868C503059B8C
:1012A00002D5039D2A4301E0039DAA433260726880
:1012B000850302D5039D2A4301E0039DAA43726082
:1012C000B268C50202D5039D2A4301E0039DAA43EB
:1012D000069DB260F268800200D563E703988243FE
:1012E00062E708B0F0BDC0460008004800040140B5
:1012F000060006000800014000040048002A02D051
:101300001822815070472822815070471E4800687B
:101310007047C046B0B5002817D004460068114990
:1013200001601149016061684160A1688160FFF757
:10133000EDFF05462068C168002908D0FFF7E6FFE9
:10134000401B2728F6D90320B0BD0120B0BDE168BD
:1013500002698A4203D1084901600020B0BD0161E1
:101360000020B0BDCCCC00005555000000680249FB
:10137000016000207047C046AAAA00000248016828
:10138000491C01607047C046440D002010B5064856
:10139000016810220A4302600024204600F006F88B
:1013A00000F016F8204610BD00200240B0B50446FB
:1013B00001F0A2FB7D21C90004F048F901F010FE04
:1013C0000025E84321462A4600F03EF82846B0BDF5
:1013D000B0B582B011480168012529430160016858
:1013E000294001910199290742680A4342604068F7
:1013F0000840009000980420C04300242146224663
:1014000000F022F8E8432146224600F01DF8E043B0
:101410002146224600F018F802B0B0BD1810024074
:101420001F21014001208840014908607047C046E3
:1014300080E100E01F21014001208840014908604F
:101440007047C04600E100E0002805D403220346AF
:101450009343094A9A1803E00C220240074BD21822
:101460008007C00E8901C9B28140FF238340106804
:10147000984308431060704700E400E014ED00E07A
:10148000B0B51C240D060BD57F2529404C4300190F
:101490002830002A0BD0C380190C0181012108E0FB
:1014A0004C4300192121C9004018002AF3D1838040
:1014B000002181720020B0BD80B587229200835840
:1014C0001C224A438018826B184602F0BBFA80BD8A
:1014D00080B58722920083581C224A438018232219
:1014E000D2008258184602F003FB80BDF0B57F227F
:1014F0000A401C235343C3184CB2002C03D42125AB
:10150000ED005B1900E02833CD095D701A703D22B3
:10151000D200855C012D01D10220F0BD8218056842
:101520004806000E4100685A69189D7A1B4B002D31
:1015300017D00125AE030640BA4D07462F40002EB6
:1015400001D0BC4838184025054001D01F4338461B
:101550007519002C002D00D00880B24C20400446A4
:1015600015E0002C0BD40124A403450404D5AD4D93
:101570002840B04D40190880F13C044007E0440683
:10158000A84C02D520401843088030340440002085
:101590001070403B23430B80F0BDC046C08000006C
:1015A00070B502461C237F2008404CB2002C05D4A5
:1015B0004B43D3182125ED005B1902E04343D318B8
:1015C0002833CD095D701870002098703D23DB0032
:1015D000D55C012D01D1022070BDD31815684906D4
:1015E000090E49006A5A6918002C0DD4E44C2546AE
:1015F000F1352A4204D08B4D2A408E4D52190A8073
:1016000022408D4C54400DE05406864C074D01D4C9
:10161000164604E022402E46103616430E80303423
:1016200034406C4018700C8070BDC046B080000023
:101630007F220A401C215143401809214901405A88
:1016400070470000F0B585B07F240C401C25654331
:1016500047194DB2002D049503D42125ED007F19C3
:1016600000E02837FA60CD097D703C70FB703D25A5
:10167000ED00465D012E02D1022005B0F0BD4619F5
:101680000125039502963570032B14D89B0001A504
:10169000EB589F46A5160008BB160008CF16000899
:1016A000E116000800684B061B0E5E00855B5C4B74
:1016B0002B40039D1CE000681DE000684B061B0EDC
:1016C0005E00855B564B2B40039DAD0211E0006828
:1016D0004B061B0E5B00C65A514D3540C5520AE001
:1016E00000684B061B0E5E00855B4D4B2B400325AF
:1016F0006D025B198353A300C55A4A4E35400D4312
:1017000049492943C152C318B97A0029019333D0FA
:1017100047490D4370218D431D805021425A00924C
:10172000E4002418039A95026419D543FE882E40DC
:10173000009BE652405A2018398929408180920343
:10174000019F38880240044636490C40002A01D0E7
:10175000384820434025054003D0344840300443F6
:1017600020465219049B002B029C002A00D038808E
:1017700008402E4B03434EE05021465ABD88039B40
:101780009D43E4000499002915D4211850309C028F
:1017900009198C19A5808C1D00883F2A17D3D10602
:1017A0005209002900D11F32019F204B9102803B3A
:1017B0000B43039A11E09902611808188553019FA1
:1017C0003A8850061BD41046EE49184B1EE05108CB
:1017D0001A4089181A468B02019F035390033B88D5
:1017E000590401D41A4604E0E6490B40E64A1A437C
:1017F0003A80029CF13810400F4B43400BE0E14926
:101800000A400A4B1846403010433880029C303161
:10181000014020334B40002020703B8005B0F0BDDC
:101820008F89FFFF0F0F00008080FFFF8080000086
:101830008081000080C0FFFF80B0FFFFF0B57F24F3
:101840000C401C21614341182125ED004C554D19D8
:101850000021A9612A616970EA689E1A00D20E46C9
:101860006E6100685021415A9A4200D31A46E30043
:10187000AD7A002D10D0054650351D4E371F1F4341
:101880003F183F2A17D3D6065209002E00D1521E08
:101890009602184A324313E0154D2B431B183F2A7A
:1018A00016D3D5065209002D00D1521E9202114DB9
:1018B0001543CD5212E001261640520892199202A9
:1018C000CA530B490B4319182B88C9180A8005E025
:1018D00001251540520852199202CA52A100425ADB
:1018E000274B1340044A5A4042520020F0BDC046E4
:1018F000060400000080FFFF80B0000070B53D22AC
:10190000D200835C012B01D1022070BD1C257F24F5
:101910000C404BB2002B05D44D4345192126F6004F
:10192000AD1902E06543451928358218CE096E705D
:101930002C700126AE70002C0BD000684906090EF1
:101940004C00015B0019002B0DD40D4B19400D4BC1
:101950000CE00B493031006803880B400949103115
:101960005940018004E0044B1940044B4B40038074
:101970000020107070BDC0463F0F00009080000036
:101980000F3F00008090FFFFF0B584B07F240C4033
:101990001C216143461828210394745400253564A2
:1019A000B26331462831012401944C70746B274690
:1019B0001C1B00D22C46F4639F4200D31F460297A3
:1019C000897A04686F4D002914D0039DAB00E15A59
:1019D0005020205A009020464C06E900019DAF029D
:1019E000002C4ED4BC1C21430918029D009C0D53B1
:1019F0002E364DE001988102029B1804019132D0ED
:101A00006018B18D461898B2401C470803233B402C
:101A1000781E002B0CD0009010785178090208181D
:101A20003080012B00D087E0921CB61C009807463E
:101A3000032818D31078517809020818308090785C
:101A4000D1780902081870801079517909020818B4
:101A5000B0809079D17909020818F08008363F1FCC
:101A60000832002FE6D15020205A0199891C039B8F
:101A7000DA000A431119029A0A529800205A5A00B1
:101A800046E0BC1D21430918029D009C0D533036D1
:101A90000446C318A8B2002832D00294E119348851
:101AA0000D19401C460803273740701E002F0BD02D
:101AB000019010785178090208182880012F30D140
:101AC000921CAD1C01980646029C032818D310787E
:101AD00051780902081828809078D17809020818EE
:101AE00068801079517909020818A8809079D17915
:101AF00009020818E8800835361F0832002EE6D1A2
:101B00000398420019881F4D29401F480843188038
:101B1000303505401D48684051006052002004B037
:101B2000F0BD9078D178090208186880022F0ED194
:101B3000B61E121D2D1D12E09078D17809020818EA
:101B40007080022B10D1BF1E121D361D14E01079BB
:101B5000517909020818A880F61E921DAD1D029C3D
:101B600001980328B3D2CBE71079517909020818FC
:101B7000B080FF1E921DB61D0098032800D359E7C0
:101B800071E7C0460F0F000080C0FFFFB08000006B
:101B9000F0B597B007463D20C0003D183A68442094
:101BA0001490105E0123D90211919C0300280FD5D7
:101BB000194607930C941046443015A900240C8054
:101BC000005F16A908800028099570D40C9C099D17
:101BD0001498105AFC49491C084210D0443210880D
:101BE000FA4901401180384600F0C4FD3A6828786F
:101BF000012804D04C20802111520020287010466A
:101C000040308188214204D0FA49813983880B40D1
:101C100083808188890403D58188F74B0B408380BA
:101C2000F64B713381881C4619420FD0018804227B
:101C300091430180BD2109020180384600F0A6FDD4
:101C40003A68149BD05AEE490140D15210464030B8
:101C50008188119B194212D08188EA4B0B40838006
:101C6000018808230B430380018804230B4303806E
:101C70008088204203D1384600F0CAFD3A681498A3
:101C8000105A800508D544321088DF490140118080
:101C9000384600F08DFD3A681498105AC00504D5F6
:101CA00044321088D9490140118017B0F0BD21207D
:101CB000C0000B9038180890384624300A90284607
:101CC0000A300290284608300190A81D0390281D74
:101CD000069007988602129713940E960AE01099C0
:101CE000FFF7EAFB3A681498105E16A908800028EE
:101CF00000D46BE716A800880F25054045D0A80042
:101D0000115A15AB1980195F002900D420E2101870
:101D10000188BA4B194001801C2068433C180B987D
:101D20002018817A002975D0109401788B00D45A3C
:101D3000C9008B185021515A0C9FF31859183C4276
:101D400000D08CE0C988AA4B1940139F00D1D9E17B
:101D500092190389D2180369012900D18BE00D91F2
:101D60004F0803243C40791E0F91002C00D11CE148
:101D700016881E70360A5E70012C00D02DE19B1C67
:101D8000921C0F9C27460E9E10E116A80188108811
:101D9000C90627D49E49084010805020105AB11817
:101DA00008180A9E3179C9004018408890490840B7
:101DB0003864B96B0818B863002538462946FFF720
:101DC0007BFB30780E9E00288CD0F86B002889D1E0
:101DD0000A9B187880210143C8B239684C22885286
:101DE0001D707FE715A9088008881199084244D022
:101DF0005020105A91190818089B1A78D2008018A0
:101E0000C0887B4A104098619A888918022864D259
:101E1000069BBDE05021535AB118CA180378DB0065
:101E2000D218D788724A17406DD082888918026903
:101E3000012F00D11DE110947B0803241C405E1E7D
:101E40000F96002C00D1F7E00E881670360A5670F7
:101E5000012C00D0AEE0921C891C0F9BECE049885D
:101E6000634B1940139F00D14CE19219C388D218DB
:101E70000369012949D1079F42E1002015A9085EA5
:101E8000002800D42EE710885C49084010805025B7
:101E9000515BB0184118089C2278D2008918CA8872
:101EA00053490A40A26100D1D7E2A18840182169B4
:101EB000012A00D1CBE2530803241C405E1E002CF3
:101EC00000D1A8E207880F703F0A4F70012C00D0A4
:101ED0008FE2891C801C33469CE242080323134096
:101EE000551E002B25D010950C88099D2C71240AB5
:101EF0006C71012B21D1891C039B109D2A46139CD8
:101F0000032D2FD244E0002708E10D914F08032450
:101F10003C40791E0F91002C5AD016881E70360A4C
:101F20005E70012C76D19B1C921C0F9C27460E9E46
:101F30004FE0069B032D15D22AE04C88AC71240A91
:101F4000EC71022B03D1921E091D019B06E08B88C8
:101F50002B721B0A6B72D21E891D029B139C109D53
:101F6000032D15D30C881C70240A5C704C889C705F
:101F7000240ADC708C881C71240A5C71CC889C71EA
:101F8000240ADC710831121F0833002AEAD1139C9D
:101F9000C00701D00878187038680188174A1140C6
:101FA0000180384600F01FFC9CE60F9C0D99032C25
:101FB0006DD2A2E04E889670360AD670022C34D1CB
:101FC0009B1E121D091D37E0FF030000FFFB0000F0
:101FD0000F9C0D99032C7BD28FE056889E70360A99
:101FE000DE70022C0D9947D1BF1E1B1D121D4AE049
:101FF000FF03000080C0FFFFFFDF00008F0F000025
:10200000FFEF0000FFF70000FFFD0000FFFE0000F3
:102010000F8F000056889E70360ADE70022C0D99D4
:102020004BD1BF1E1B1D121D4EE08C881471240A5B
:102030005471DB1E921D891D109C0F9E032E15D31B
:102040000C881470240A54704C889470240AD4703C
:102050008C881471240A5471CC889471240AD47128
:1020600008311B1F0832002BEAD1109CFB070E9E83
:1020700054D00978117051E094881C71240A5C7165
:10208000FF1E9B1D921D0E9E0F9C032C35D31488A2
:102090001C70240A5C7054889C70240ADC7094883C
:1020A0001C71240A5C71D4889C71240ADC7108328A
:1020B0003F1F0833002FEAD11FE094881C71240AC7
:1020C0005C71FF1E9B1D921D0E9E0F9C032C14D352
:1020D00014881C70240A5C7054889C70240ADC707C
:1020E00094881C71240A5C71D4889C71240ADC7168
:1020F00008323F1F0833002FEAD1CC070F4601D02A
:102100001178197012990968027892008B5AE74C7D
:10211000803C1C40E64B1C438C52109C8169C919C1
:1021200081610169CA1902614369002B04D045210C
:1021300089006158B94205D90178129F3846FFF7E6
:10214000C7F904E00178129F3846FFF777FB139C2C
:1021500015A80088000600D4C4E5680040003A686D
:10216000115AD44B194011521C20684338180146AB
:1021700028318B7A002B33D00D78A90053180D939A
:10218000515A5023D45A034640334906EF000029E0
:1021900010950F974ED4B91871180919CC88C249F7
:1021A0000C401C6000D103E10E995118038ECF182A
:1021B000611C4D0803242C40866B691E002C0BD03B
:1021C0000591317873781B0259183980012C63D13D
:1021D000B61CBF1C05990D46032900D3AAE0E7E011
:1021E0005023D45AB3189D1C2C1909781091C9009A
:1021F0000F91645AAC490C40046400D1E4E0868D30
:102200009F19631C5B0803241C40866B591E002C1D
:1022100033D004950D913178059171780902059DAF
:1022200049193980012C2CD1B61CBF1C0D990B46C5
:10223000139C51E0B518E91909194C889A490C40CA
:102240001C6000D1B4E0C18D6F18611C4D080324DF
:102250002C40866B691E002C0BD005913178737869
:102260001B0259183980012C21D1B61CBF1C0599BD
:102270000D46032900D382E09AE0139C03292ED354
:1022800030E0B578F178090249197980022C19D12A
:102290009B1E361D3F1D1DE0B178F3781B025918B7
:1022A0007980022C3BD1AD1E361D3F1D3FE0B17839
:1022B000F3781B0259187980022C55D1AD1E361DBA
:1022C0003F1D59E03179747924026118B980DB1E11
:1022D000B61DBF1D139C0D99049D032902D2129FA8
:1022E0000E9E72E031787478240261183980B178DA
:1022F000F4782402611879803179747924026118A4
:10230000B980B179F47924026118F98008371B1F6C
:102310000836002BE6D1129F139C0E9E55E03179B2
:1023200073791B025918B980ED1EB61DBF1D0599A2
:1023300003293DD3317873781B0259183980B1785D
:10234000F3781B0259187980317973791B02591877
:10235000B980B179F3791B025918F98008372D1F1C
:102360000836002DE6D123E0317973791B02591824
:10237000B980ED1EB61DBF1D0599032918D331780C
:1023800073781B0259183980B178F3781B025918F9
:102390007980317973791B025918B980B179F37951
:1023A0001B025918F98008372D1F0836002DE6D179
:1023B0003E4980390D9C23880B403F490B432380C5
:1023C0000E9EB1188D1C129F139C5021515A0F9ACA
:1023D0005219515A344A11400164826B5218826377
:1023E000C36B3846002B00D179E41099FFF7CCFA83
:1023F00078E447888F703F0ACF70022C03D19B1E70
:10240000091D001D06E084880C71240A4C71DB1E36
:10241000891D801D129F089C032E0E9E15D30488D3
:102420000C70240A4C7044888C70240ACC70848808
:102430000C71240A4C71C4888C71240ACC71083048
:102440001B1F0831002BEAD1089CD20701D000786D
:102450000870A06921690818206100213846FFF73B
:1024600037F83868415B3218921DE3683F2B0BD375
:10247000DC065B09002C00D11F330C9D9C020C4B29
:10248000C03B2343139C06E001241C405B081B193E
:10249000139C9B020C9D8B522946F13902880A40FD
:1024A00006494A4002801DE4FF0300008F0F000030
:1024B000C08000000F8F000080C0000080B00000CE
:1024C000F0B587B000281FD007463D20C0003D185A
:1024D0006878002804D100202870384600F028F9D8
:1024E0003E46243603236B707868002800D10EE145
:1024F000014619400691411E03290496059703934E
:10250000029104D200263FE0012007B0F0BD019502
:1025100002469A433C46503400273E4601216174EE
:1025200027606760A760E76127626762E7742346F8
:102530000B3B19702346143B1F602346183B1F605A
:1025400023461C3B1F602346253B1F702346283B28
:102550001E702346273B19702346093B1F702346F4
:102560000C3B751C1D7023462C335970B11C217413
:10257000F11C2C256155A763E7632764DF70361DC6
:1025800070349642CAD1019D069F002F30D01C2482
:1025900021467143059A5318282101915E54002168
:1025A00059639963D9632833D970012200925A7014
:1025B000012F1DD0731C22465A43059FBA18019F54
:1025C000D35551639163D1632832D170009B53700E
:1025D000069A022A0CD0B21C5443059B1B19019C7D
:1025E0001A5559639963D9632833D9700099597082
:1025F0000028059F049E039A00D188E002990329D0
:1026000001D2002354E0172109013C467E18904373
:1026100000273B4631464B390F70314654390F6025
:10262000314658390F6031465C390F6031466539A3
:102630000F70314668390B70314667390F7031467B
:102640002F390F70314638390F6031463C390F60F1
:10265000314640390F60314649390F7031464C39A7
:102660005A1C0A70314613390F7031461C390F60FD
:10267000314620390F60314624390F6031462D39FB
:102680000F70314630399A1C0A703760311F0F6065
:10269000314608390F60314611390F70314614390F
:1026A000DA1C0A701B1D70368342B3D12746049E84
:1026B000069800282BD01C20014659437918212266
:1026C000D2008B548C180021E16021616161E170BE
:1026D0006170069C012C1AD05C1C2E460546654391
:1026E0007D19AC54AC183546049EE16021616161EE
:1026F000E1706170069C022C09D09B1C584338186D
:1027000083548018C16001614161C17041703968B2
:10271000402201238B52002088520C464034A08076
:102720002082BF2424028C5230706B7007B0F0BD41
:1027300010B582B000680D49884201D002B010BDCA
:102740000120C0050A490A6802430A60096801407D
:10275000019101981F24002120460A46FEF774FECD
:102760002046FEF767FE02B010BDC046005C004088
:102770001C100240B0B50446872085006059012135
:1027800001F0B5FA605901F07BFAB0BD10B504460E
:102790008069002806D0264801680622914301601E
:1027A00000F0DAFC87208000205801F08BFA10BD81
:1027B00080B587218900405801F08BFA80BD3D2209
:1027C000D200835C012B01D10220704782180029BE
:1027D00002D02430017003E000684C218023435272
:1027E00000201070704780B58721890042587B21F6
:1027F00089004118104601F08DFA80BD006858210B
:10280000425A0123DB031343435200207047000068
:1028100010B5044687208000205801F0CBFAA0694B
:10282000002804D00248016806220A43026010BD55
:1028300010ED00E0F0B585B004468078C007444B49
:102840004DD00120039001071A1F10680840029024
:1028500006D110680843106010680840049004987E
:10286000009201913B4E3068C00511D403980702D5
:10287000306838433060FEF749FD0546306838421D
:1028800006D1FEF743FD401B6428F7D903253CE041
:10289000032528022E4B1968014012D062680240BD
:1028A00091420ED00398000419681A6802431A6016
:1028B0001A6882431A600846274A10401860C80701
:1028C00037D11868244908406168014319600298AB
:1028D000002804D1009A106801998843106020688C
:1028E000C10715D181061BD4810305D51969802242
:1028F000914362690A431A610025400505D51869AC
:1029000040218843216901431961284605B0F0BD83
:10291000196903229143A2680A431A618106E3D52B
:10292000196910229143E2680A431A618103DDD4D8
:10293000E2E7FEF7EBFC06466D4F054B1868800793
:10294000BFD4FEF7E3FC801BB842F6D9DDE7C046F2
:102950002010024000700040FFFCFFFFF0B581B086
:102960000D460446614A116801200140A94209D27E
:1029700011680126B1432943116011683140A94211
:1029800000D0AFE021688A0706D5754E3268F02383
:102990009A43A36813433360C90722D15349086897
:1029A00001263040A84206D90868B043086008688C
:1029B000C00700D096E02078400707D50720000226
:1029C000674A11688143E0680843106064480468FE
:1029D0002007810F6348022977D3032960D1624819
:1029E00073E061685E4A032909D0121F02290BD0E7
:1029F00001290ED112689203064673D50DE0126BC1
:102A0000D20306466ED508E012689201064669D5E3
:102A100003E012689207064664D5514A10680326FF
:102A2000B04308431060FEF771FC07466068012858
:102A300022D002282DD003280CD1494800680C214F
:102A400001400C29AAD0FEF761FCC01B284988422E
:102A5000F3D947E0424800680007800F9ED0FEF798
:102A600055FCC01B22498842F4D93BE0FEF74EFCDE
:102A7000C01B1F49884235D8394800680C210140E5
:102A80000429F3D18AE7FEF741FCC01B18498842AC
:102A900028D8334800680C2101400829F3D17DE78C
:102AA0000321C90322460A408A4200D12E482C49FC
:102AB000896A0F220A402D49895C02F0C7FD014650
:102AC000A002000F2A4A105C4843254909680906FC
:102AD000090F084A515CC8400E490860002630467C
:102AE000FEF764FC304601B0F0BDC0460020024055
:102AF0008813000042580008064800687047C04626
:102B000004480068164909684905490F024A515CA2
:102B1000C84070471C0000205258000810B51049EA
:102B20000C682007820F0F48022A02D3032A01D122
:102B30000D4810BD0322D20323461340934200D117
:102B40000948896A0F220A400849895C02F07EFD23
:102B50000146A002000F064A105C484310BDC04663
:102B60000410024000127A00006CDC026A5800086F
:102B70005A580008F0B585B007460078C007FB4EEC
:102B8000039719D071680C20014004290DD0716899
:102B90000140082900D0B7E00320C003716801405C
:102BA00001200004814200D0AEE03068800303D5EC
:102BB0007868002800D106E1387880071ED5706853
:102BC0000007800F0CD070680C210140082974D1D7
:102BD0000320C003716801400120C00381426CD111
:102BE0003068800703D5F868012800D0EBE0306832
:102BF000F82188433969C9000143316038780007FA
:102C000024D43878400734D43878C00600D4B3E0F0
:102C100003984069411D00D1A2E0012800D0F1E0F5
:102C2000706B042101437163706B01210143716377
:102C3000FEF76CFB0546706B800700D594E0FEF74D
:102C400065FB411B03200229F5D9B1E1706AF969DE
:102C5000002965D0012108437062FEF757FB054645
:102C6000706A8007CDD4FEF751FB401B0228F7D9CC
:102C70005EE1012002900107F0690840019006D151
:102C8000F0690843F061F0690840049004980091ED
:102C9000CA4F3868C00523D402980402386820431C
:102CA0003860FEF733FB05463868204218D1FEF73E
:102CB0002DFB401B6428F7D93AE13068F9680029F8
:102CC0003ED0012108433060FEF720FB0546306806
:102CD00080078CD4FEF71AFB401B0228F7D927E1A6
:102CE00003988068B64F002800D1B5E0052800D1D0
:102CF000C7E0012800D1C8E0306A029988433062F9
:102D0000306A04218843C3E07868002800D1D6E007
:102D1000052800D1ECE0012800D0F2E00120ECE031
:102D2000012188437062FEF7F1FA0546706A800758
:102D300000D466E7FEF7EAFA401B0228F6D9F7E06E
:102D4000012188433060FEF7E1FA054630688007CC
:102D500000D453E7FEF7DAFA401B0228F6D9E7E081
:102D6000706B042188437063706BF821884303996A
:102D70008969C9000143716303980078800618D5FA
:102D800072680C210A40012007040C2A09D07268DD
:102D90000A40082A4BD10321C90372680A408A42BB
:102DA00045D1716B394204D00399096A012900D0D9
:102DB000FEE00398476A0022002F07D070680C21BC
:102DC0000140082905D1012005B0F0BD104605B02D
:102DD000F0BD0292012421063068019188433060E1
:102DE000FEF794FA0546022F00D0A4E0670630688B
:102DF000384200D1BCE0FEF789FA411B03200229CA
:102E0000F5D9D5E0706B042101437163706B01212A
:102E100088437063FEF77AFA0546706B8007ABD57E
:102E2000FEF774FA411B03200229F6D9C0E0706B4B
:102E30000399096A002900D188E038437063FEF7DE
:102E400065FA0546706B3842B3D1FEF75FFA411B55
:102E500003200229F6D9ABE0306A02998843306238
:102E6000306A042188433062FEF750FA0546306A22
:102E700080071AD5FEF74AFA411B0320B942F6D95A
:102E800096E0306A042101433162306A02990843B6
:102E90003062FEF73BFA0546306A800705D4FEF73C
:102EA00035FA401BB842F7D942E001980028039F49
:102EB00000D0A9E6F06900998843F061A4E60120FA
:102EC000010432688A433260810432688A43326086
:102ED0004404FEF71BFA0546039F3068204200D1E8
:102EE0006AE6FEF713FA411B03206429F5D95FE077
:102EF0000120810432680A433260010430680843CB
:102F000007E00120010432688A433260810430689E
:102F10008843306001204404FEF7F8F90546306824
:102F2000204200D048E6FEF7F1F9401B6428F6D9AC
:102F3000032005B0F0BD6406306820423AD0FEF7A9
:102F4000E5F9411B03200329F6D331E0B843706350
:102F5000FEF7DCF90546706B384200D129E7FEF731
:102F6000D5F9411B03200229F5D921E000100240C8
:102F7000F06A0F218843039A116B0143F1627B20B1
:102F8000C00371688143D06A0843916A014371604C
:102F90003068019908433060FEF7B8F9044630689C
:102FA000384207D1FEF7B2F9011B03200229F6D9F6
:102FB00005B0F0BD029805B0F0BDC04600700040FD
:102FC00088130000001F4142414188000F490A68F0
:102FD00004239A43101808607047C04670470000E9
:102FE000401E010E01D0012070470749074A50607A
:102FF000074803680B400321890759180160002026
:103000009060072111607047FFFFFF0010E000E0B3
:1030100020ED00E080B5FFF7E1FF80BDB0B50028EE
:1030200030D00446054668356878002804D1002071
:103030002870204600F028F8242068702068016875
:103040000125A9430160204600F0DCF9012817D0D2
:10305000606A002802D0204600F0E2F80920C00291
:1030600021684A6882434A6088682A2290438860BF
:103070000868012202430A60204600F03BF9054639
:103080002846B0BD0120B0BD80B586B000680F49AC
:10309000884201D006B080BD0D480168012205922A
:1030A0005204114301600068104000900320049016
:1030B00000200390022002900C2001900920C006FD
:1030C000009901A9FEF75CF806B080BD00440040FD
:1030D0001C1002407047FEE710B5094C0949002258
:1030E000204600F078FC0849204600F093FE07498E
:1030F000204600F0E7FA204600F0A3FE10BDC046CF
:103100008C07002000000020200000204401002047
:103110007047704710B586B06C462046FDF7FCFE40
:103120007720607304200090FEF718F8FEF708F887
:10313000FDF7A0FE2046FDF709FFFDF7F7FFFDF7BD
:10314000DFFFFDF7E5FF06B010BD704780B5FEF765
:1031500015F9FFF75FFF80BDB0B598B0012013905F
:1031600028210B910024149412900BA8FFF702FD64
:10317000002800D0FEE70A94099403200890072055
:10318000079007A801252946FFF7E8FB002800D093
:10319000FEE706946804019001A8FFF74BFB0028A6
:1031A00000D0FEE7FFF7A8FC7D21C90002F04EFA2F
:1031B000FFF716FF0420FFF705FFE04321462246F4
:1031C000FEF742F918B0B0BD1248026801210A4367
:1031D00002604268104B1340436002680F4B13407B
:1031E00003608A040368934303603F221204436828
:1031F00093434360C26A0F239A43C262FF22D432D0
:10320000036B93430363426B8A43426300218160F3
:103210007047C046001002400CB8FF08FFFFF6FEE2
:10322000B0B5416ACA070CD18A0714D44A071CD426
:103230000A0724D4CA062CD48A0634D44A063CD4BD
:103240004CE00122520403685C689443826A224382
:103250005A608A07EAD50122120403685C68944325
:10326000C26A22435A604A07E2D5012292040368E7
:103270005C689443026B22435A600A07DAD5012244
:10328000D20303685C689443426B22435A60CA06C7
:10329000D2D50122120303689C689443826B2243B7
:1032A0009A608A06CAD50122520303689C68944337
:1032B000C26B22439A604A0610D5012213050268A8
:1032C00054689C43056C2C4354609D4206D10323F3
:1032D0005B0554689C43436C23435360090607D540
:1032E0000121C904026853688B43806C1843506005
:1032F000B0BD0000F0B581B004460026C6660746A2
:103300006837FEF703F8054620687F498842304653
:1033100035D10096086800070ED5C86980020BD425
:1033200001204605FDF7F2FF401B2168174A904235
:103330001AD8C8693042F5D008684007009E304668
:103340001DD5C8694002304619D401208605FDF715
:10335000DDFF401B21680D4A904205D8C869304204
:10336000F5D0009E30460AE00D2040010A688243F5
:103370000A6088680122904388600320009E202113
:1033800079703E70B97001B0F0BDC046FFFFFF011B
:1033900070B5026801465A314B880C7C222C0ED144
:1033A000948C012215038668AE4202D10569002D76
:1033B0000BD0456D6E1C46651C402C700AE0906970
:1033C00008210143916102240AE01C40436D1C80E6
:1033D0009B1C43650B885B1E0B8000241B0401D0E3
:1033E000204670BD09235B0105682E689E432E6050
:1033F000AB689343AB6020220A74FFF76BFE204654
:1034000070BD000070B50446056828683C4901405D
:10341000A06822690243606910430843E1690843D8
:103420002860032000036A688243E06810436860F4
:10343000A069226A02430B200002AB688343134356
:10344000AB603048854209D02F48854208D12F48CB
:1034500000688007000F2EA2125802E0002200E050
:1034600008220120C303994211D1012000212E4DD1
:10347000042A26D82B4BC0467A441279520097442E
:10348000021913201700FFF73BFB430012E0042A48
:1034900034D8C0467A4412795200974402181D2F3E
:1034A0002700FFF72DFB19E0FFF738FB430001E091
:1034B0002B46103361684808C01802F0C7F801466F
:1034C00000200D400907490F2943256815E0616870
:1034D0004808134A80180CE0FFF720FB61684A088F
:1034E000101802F0B3F881B2256805E06168480859
:1034F000C01802F0ABF881B20020E96070BDC04690
:10350000F369FFEF004400400038014030100240F2
:1035100000000000020000000400000001000000A4
:1035200000127A000024F400F0FF000080B5024889
:10353000FFF72EFF80BDC046240C00204321C900A8
:103540004158002904D0852082000020885070470F
:103550000220704770B505464320C600A859812255
:1035600092008418284600F0FAFAA060A8590028B2
:1035700008D0A919206808344968CA6821469047CC
:10358000002070BD022070BD10B50446812100F0FE
:1035900049FA0121204600F045FA8221204600F038
:1035A00041FA4320C0002158002908D0241860683F
:1035B00040688047206800F0A6FE002020600020C0
:1035C00010BD10B54321C90042185368002B0BD021
:1035D0004158012040020C182078FF2804D062785E
:1035E0009B689847FF202070002010BD0A210180B1
:1035F00000487047E00000204321018000487047E8
:103600005800002043210180004870479C000020A2
:103610004321018000487047EC000020F0B583B0E2
:103620000446007C012675020028029500D0402542
:1036300081210227204601913A462B4600F0FCFAF0
:10364000204631463A462B4600F0F6FA8221032204
:103650000823204600F0F0FA8720800000F054FE96
:103660004321C9006050002813D06118019A9200CC
:10367000851848680068804700262E616E61207CAE
:103680000028029B00D040232A680121204600F038
:10369000E7FA304603B0F0BD10B54321C9004258E7
:1036A000002A05D0037C0121002B03D0402302E037
:1036B000022010BD4B028124A400125900F0D0FA60
:1036C000002010BD002904D08722920081500020E4
:1036D0007047022070474322D20080588122920016
:1036E0008150002070474323DB00C0584123DB009A
:1036F000C150C018826000207047000070B50D46B0
:10370000044608786021014017D020291DD14321AB
:10371000CB00E118EA88002A19D0E65840B2002808
:103720001DD4012040023018427069780170204693
:10373000314600F056F8002070BD68780A2804D1A0
:103740000D490122204600F06BF8002070BD68781A
:1037500049688B68002229469847002070BD687828
:1037600049688B6831469847EA882046314600F020
:1037700057F8002070BDC0460002002080B54321EC
:10378000C9004158002907D04122D2008918CA68CF
:10379000002A03D0012080BD022080BD0122CA6022
:1037A0000A680B89812100F00FFB002080BD80B5E5
:1037B00085229200825852689047002080BD10B543
:1037C00013460A460024214600F04AFA204610BD5E
:1037D00010B513460A460024214600F0F5FA2046AB
:1037E00010BDB0B513460A462121C90043507D24BF
:1037F000A4000325055141184B600024214600F028
:103800002FFA2046B0BD10B57D2189000522425017
:10381000002421462246234600F022FA204610BD0D
:1038200010B513460A467D21890002244450836165
:10383000C3610024214600F0C7FA204610BD10B530
:103840007D2189000422425000242146224623463D
:1038500000F0BAFA204610BD10B50A4603A0314C5C
:10386000214600F061F8204610BDC0464344432085
:10387000436F6E6669670000122008800048704739
:103880003001002010B50A4603A0264C214600F066
:103890004BF8204610BDC04643444320496E746532
:1038A000726661636500000004200880004870476C
:1038B0005401002010B50A4603A01A4C214600F01E
:1038C00033F8204610BDC04643414E4465766963D7
:1038D0006573000010B50A4603A0124C214600F0A3
:1038E00023F8204610BDC04643414E5F5553425F0A
:1038F000436F6E766572746572426173696300002E
:1039000010B50A4603A0074C214600F00DF82046EA
:1039100010BDC04630303030303030303030314182
:10392000000000000402002070B5002852D0037887
:10393000002B14D0041D0023E51E2D78002D10D07F
:10394000A51E2D78002D0ED0651E2D78002D0CD0D3
:10395000251D1B1D2478002C2C46EDD107E00023EB
:1039600005E0012402E0022400E003242343DBB24B
:103970005B009B1C138003224A700B700378002BA2
:1039800028D0021D0220C5B24B5501231D4300243F
:103990004C55D51E2D78002D1CD0861CF6B28D55A9
:1039A0001E438C55951E2D78002D13D0061DF6B2A2
:1039B0008D551E438C55551E2D78002D0AD0861D21
:1039C000F6B28D553343CC54141D08301378002BB8
:1039D0002246D8D170BD10B5002811D07F239B009E
:1039E000C3189C69002C01D000249C61002900D0E0
:1039F000596102700121197000F0B8F8002010BD63
:103A0000022010BD80B5112252018058FDF7C8FD7B
:103A1000042802D30220C0B280BDC100F248C840D1
:103A2000C0B280BD80B5112252018058FDF75EFD05
:103A3000042802D30220C0B280BDC100EA48C840B9
:103A4000C0B280BDF0B581B004467D20800027184B
:103A5000002909D0386A4269002A46D0387A0328FA
:103A600043D12046904740E03868022838D1E069C9
:103A7000266AB0420ED9801BE06183B2204611460F
:103A80001A46FFF7A5FE002120460A460B4600F025
:103A9000E7F825E0A56928463146FCF7EDFBB5427D
:103AA00012D3002910D1786885420DD20025204616
:103AB00029462A46FFF78CFE7D60204629462A4685
:103AC0002B4600F0CDF80BE0386AC168002904D01D
:103AD000387A032801D1204688472046FFF793FE15
:103AE000387B012801D100203873002001B0F0BDDF
:103AF000B0B504467D208000201800290AD0026A53
:103B00009269002A04D0007A032801D12046904708
:103B10000020B0BD01680329FAD143218900631850
:103B20001D6859688D420CD9681A1860884200D304
:103B3000084683B2204611461A46FFF740FE002091
:103B4000B0BD016A0969002904D0007A032801D1B7
:103B5000204688472046FFF772FE0020B0BD80B5A2
:103B6000112252018058FDF763FD80BD70B511210F
:103B70004A012049815087239B00C85000238B6154
:103B8000CB610B62022408251B4E0E604D608C60D9
:103B9000CB600C6186180846FEF792FC01210C02EE
:103BA000002804D02146343114A000F0B9FB30685D
:103BB0000025182329462A46FDF762FC306880213B
:103BC00058232A46FDF75CFC30688121C0232A4631
:103BD000FDF756FC30682346103301212A46FDF7D5
:103BE0004FFC306882212A462346FDF749FC2846CF
:103BF00070BDC046040A0020005C00402E2E2F53EA
:103C000072632F757362645F636F6E662E6300006C
:103C10007F220A401C235343112252018058C018AE
:103C200049B2002904D48521490040180078704722
:103C30002A3000787047000010B514461122520156
:103C400080581A462346FDF7FDFC042802D30220C3
:103C5000C0B210BDC1006448C840C0B210BDC0466B
:103C600010B5112464010059FDF7E8FD042802D3C2
:103C70000220C0B210BDC1005B48C840C0B210BD38
:103C800070B5044600264025314632462B46FFF7E4
:103C9000D3FF1120000125508021204632462B46BB
:103CA000FFF7CAFF7F2080000121215425622018E0
:103CB000C169002904D02179806942682046904773
:103CC000002070BD7F2189004218527842540020A4
:103CD000704780B57F218900425C032A05D14118D5
:103CE0008969C969002900D08847002080BD017416
:103CF0000020704780B5112252018058FEF75FFD09
:103D0000042802D30220C0B280BDC1003648C8409A
:103D1000C0B280BDF0B581B004467D208600A719F1
:103D20003D461435284600F061F80120A051788BFB
:103D30007860397D1F200840022808D001280BD068
:103D400000280ED12046294600F080F80EE02046DB
:103D5000294600F015FA09E02046294600F0A5FAA8
:103D600004E080200140204600F004F8002001B06B
:103D7000F0BD000080B5112252018058FDF7BEFD54
:103D8000042802D30220C0B280BDC1001648C8403A
:103D9000C0B280BD80B5112149014058FEF72EFD0B
:103DA000042802D30220C0B280BDC1000E48C84022
:103DB000C0B280BD7F218900425C04234354401877
:103DC000427000207047000010B5112464010059B2
:103DD000FDF7DAFD042802D30220C0B210BDC100F5
:103DE0000148C840C0B210BD000201020A7802704A
:103DF0004A7842708A78CB781B029A1842800A79F6
:103E00004B791B029A1882808A79C979090289182C
:103E1000C1807047002904D0852292008150002083
:103E200070470220704780B5852292008258002A90
:103E300005D012689047411E8841400080BD022095
:103E400080BD80B5FFF7A6FF002080BD70B582B0B1
:103E50000D460446497809292CD87F208200A618EF
:103E60007944097949008F440410252E255F6F2578
:103E70003D503078FE210140022900D079E0B06841
:103E8000002800D1AAE00320A9E03078FE210140FB
:103E9000022900D076E06888012800D038E10020AF
:103EA000B060B06982682046294690472046FFF7F7
:103EB000C6FC2DE180212046FFF75CFF0021204653
:103EC000FFF758FF24E16888012800D020E1012095
:103ED000B060B06982682046294690472046FFF7C7
:103EE000AEFC15E1E888012855D13078032800D1CF
:103EF0007DE0022800D080E00020A060214608314B
:103F000001222046FFF78CFC02E168889B4D287057
:103F1000C1B2022948D380212046FFF72BFF0021A0
:103F20002046FFF727FFF3E0A988002903D1E9889D
:103F3000002900D1A6E080212046FFF71BFF0021C9
:103F40002046FFF717FFE3E06888010A491E0629AB
:103F500000D985E07944097949008F44036F57817E
:103F600081757E00207C71690A6801A9904701462D
:103F7000BFE080212046FFF7FDFE00212046FFF72D
:103F8000F9FEC5E080212046FFF7F4FE002120461F
:103F9000FFF7F0FEBCE080212046FFF7EBFE00219A
:103FA0002046FFF7E7FEB3E0307803283DD0022833
:103FB0005FD1002900D180E003203070616020468D
:103FC000FFF731FF022800D0A5E080212046FFF74F
:103FD000D1FE00212046FFF7CDFE99E00120E060F0
:103FE00021460C3102222046FFF71AFC90E0211DE9
:103FF00001222046FFF714FC8AE080212046FFF7CB
:10400000B9FE00212046FFF7B5FE81E0C0B20528C9
:1040100026D8C04678440079400087440294989C92
:10402000A0A4207C71694A689FE7002949D0606894
:10403000012874D12046FFF702FC69E0B069217CB9
:10404000002949D0C16A48E0207C002808D1B06925
:10405000416B01A8884701464BE0207C002841D0F5
:1040600080212046FFF786FE00212046FFF782FED2
:104070004EE080212046FFF77DFE00212046FFF71D
:1040800079FE45E03178032908D180212046FFF7E9
:1040900071FE00212046FFF76DFE39E0AD78054046
:1040A000B57020462946FFF725FE2046FFF7C7FBDF
:1040B000002D5CD0022030702AE02046FFF7BFFBC5
:1040C00026E000206060022030702046FFF76FFB82
:1040D0002046FFF7B4FB1BE0816A01A88847014630
:1040E000022005E0B069016B01A88847014607205E
:1040F000487001A80288002A0AD0E888002807D062
:10410000824200D3024601A802802046FFF788FBC6
:10411000002002B070BD2046FFF791FBF8E7C1B266
:104120002046FFF744FB297861602046FFF77BFEBD
:1041300002281FD180212046FFF71CFE00212046C7
:10414000FFF718FEE4E7207C71698A680DE7207CA0
:104150007169CA6809E7207C71690A6905E7207CF2
:1041600071694A6901E7207C71698A69FDE601206D
:104170003070CDE72046FFF762FBC9E7010200205F
:10418000F0B581B00D4604467F208100671829787C
:1041900060220A40202A05D1B86982682046294653
:1041A00090477FE0AE88697800290FD0012919D0A7
:1041B000032977D13978032920D0022930D170061C
:1041C00070D0F1B22046FFF7D5FD6BE038780328B8
:1041D0002FD002283AD1700664D0F1B22046FFF702
:1041E000C9FD5FE03878032839D0022849D170062C
:1041F00058D0F1B22046FFF7BDFD53E06988002991
:1042000005D1304003D0F1B22046FFF7B3FDB869C5
:1042100082682046294690472046FFF710FB41E080
:1042200080212046FFF7A6FD00212046FFF7A2FDD2
:1042300038E0F1B22046FFF7EBFC411E88417106E1
:10424000490D6118320625D5143126E0802120461B
:10425000FFF790FD00212046FFF78CFD22E06888E3
:1042600000281FD1700608D0F1B22046FFF7CAFB24
:10427000B86982682046294690472046FFF7DFFA52
:1042800010E080212046FFF775FD00212046FFF752
:1042900071FD07E041229200891808600222204641
:1042A000FFF7BEFA002001B0F0BDB0B50D460446E0
:1042B0007F208000215C03290DD1A9880906490EC1
:1042C00013D080212046FFF755FD00212046FFF73F
:1042D00051FD0020B0BD80212046FFF74BFD00219D
:1042E0002046FFF747FD0020B0BD20188069826896
:1042F000204629469047E8880028F4D12046FFF759
:104300009EFA0020B0BD70470048704704040020AA
:1043100080B50248FDF73CFC80BDC046040A002081
:10432000FEE710B586B06C462046FCF7F5FD607BD5
:104330007F2811D06C467F20607304200090FCF72A
:104340000DFFFCF7FDFEFCF795FD2046FCF7FEFD9A
:10435000FCF7ECFEFCF7DCFE06B010BD86B04E4864
:1043600000680068000216304C490860FFF7D9FF6A
:10437000FDF70CF8FEF7F0FE0126B105484802688B
:104380000A43026002680A400192019971040268BE
:104390000A43026002680A4001920199B10402686E
:1043A0000A43026000680840019001983D4C0025D6
:1043B000204631462A46FCF7A1FF04950395029654
:1043C000019601A92046FCF7DBFE374C256203204D
:1043D0000105052252043306344F27606060A56052
:1043E000E36022612046143062C06562A562E56226
:1043F0002046FCF759FB002800D0FEE72C480C2192
:104400002C4A05624562E1235B022CC005604560D1
:104410008160C56005610C38FEF700FE002800D001
:10442000FEE7FEF759FE244824490422244B03608A
:1044300042608160C160FCF76DFF002800D0FEE79C
:104440002048214921636063204F3D7000F0AEFE9B
:104450001E2002210A46FCF7F7FF20462946FCF7FA
:10446000E3FB1B4D144E02E03046FCF77FFF28466D
:1044700000F062F800F0F2FE38780028F4D0606BAB
:1044800000F012FF3878FE210140397000212046EB
:10449000FCF7CAFBE8E7C04658010020B80C002032
:1044A0001410024000140048B009002000640040CD
:1044B000240C002000440040F4090020FF0F0000FD
:1044C00000300040C0010020E4010020240700204B
:1044D00028070020F0B581B00346002616600120B1
:1044E000002923D000905624E443304608E02546B6
:1044F0002735491EF619761916605B1C0D0617D074
:104500001D78002D12D0360116601F783D46303DD3
:104510000A2DECD33D46413D062D02D225462035DD
:10452000E7E73D46613D052D2546E2D901B0F0BDE6
:10453000009801B0F0BD0000F0B59DB004460078D1
:104540000727762801D900F0FEFD810001A251580D
:104550008F46C04661510008475100084751000886
:1045600047510008475100084751000847510008CB
:1045700047510008475100084751000847510008BB
:1045800047510008475100084751000847510008AB
:10459000475100084751000847510008475100089B
:1045A000475100084751000847510008475100088B
:1045B000475100084751000847510008475100087B
:1045C000475100084751000847510008475100086B
:1045D000475100084751000847510008475100085B
:1045E000475100084751000847510008475100084B
:1045F000475100084751000847510008475100083B
:10460000475100084751000847510008475100082A
:10461000475100084751000847510008475100081A
:10462000475100084751000847510008475100080A
:1046300047510008475100084751000847510008FA
:1046400047510008475100084751000847510008EA
:1046500047510008475100084751000847510008DA
:104660008147000847510008475100088F4700085C
:1046700039510008475100084751000847510008C8
:1046800047510008BF4700084D470008E3470008AE
:1046900067470008475100084751000831470008A4
:1046A00011480008314700084751000865480008D4
:1046B0003951000847510008475100089F48000839
:1046C000475100084751000847510008475100086A
:1046D0004751000847510008D3480008EB4800083C
:1046E000475100084751000847510008475100084A
:1046F000475100084751000847510008475100083A
:10470000475100081B4900084D4700084751000861
:104710006747000847510008475100083147000823
:104720003549000831470008475100089B490008F7
:1047300046490978022901D000F005FD20210843EF
:10474000722800D068E10022022067E16678642EBA
:1047500000D054E100F02AFD3D480078002800D048
:104760007DE10D277CE13B4800218160FBF7E0FE05
:10477000002801D000F0E7FC1E20FCF75BFED5E02E
:104780001E20FCF74DFE3148002100F0D4FC3148DA
:10479000FCF7A9F830490A781F2A06D80A782F4B67
:1047A00046259D540A78521C0A70C0B20A781F2A06
:1047B00000D984E19F2800D978E1302277E1234DA8
:1047C0002878002801D000F0BEFC0126F00721491E
:1047D00088601E20FCF72EFEFBF7AAFE2E7000F06C
:1047E000ABFC1D4801781F2906D801781B4A4E23CF
:1047F00053540178491C017019490A68D2B20378F0
:104800001F2B00D96EE19F2A00D962E1302361E1BC
:104810000E480078002801D000F095FC6078303810
:10482000092801D900F08FFC4000C04678448088F8
:10483000400087440900DC02DE02E002E202E402FA
:10484000E602E802EA02EC020020E1E2420D00206A
:10485000430D0020B0090020410D0020210D002053
:10486000B80C0020F94801781F2906D80178F84AC9
:10487000562353540178491C017001781F2906D82A
:104880000178FD4A302353540178491C01700178A6
:104890001F2900D9A0E00178F74A312398E0607819
:1048A000010601D100F04FFC01463039C9B20A2996
:1048B00001D200F041FCC0B201466139062901D2A3
:1048C00000F03AFC4138052801D800F035FC00F032
:1048D0003AFCFD48017801224A400270002901D1CA
:1048E00000F030FC0D2700F02EFC60786F2801D01E
:1048F00000F029FCA0786F2801D000F024FCE078BB
:10490000742801D000F01FFC0020E070A0706070DF
:104910002070FEF7FFFB00F016FC01208007EB493A
:1049200088601E20FCF786FDFBF702FEE8480221A6
:1049300000F001FCE6480078002801D000F003FCFC
:10494000601C022110AAFFF7C5FD0727002800D12F
:10495000F9E3E01C02211CAAFFF7BCFD002800D1EE
:10496000F1E3601D02211BAAFFF7B4FD002800D16E
:10497000E9E3E01D04211AAAFFF7ACFD002800D1ED
:10498000E1E3D24810991C9A1B9B05460C350EC5D5
:104990001A994160FBF7CCFDCEE3C94801781F2985
:1049A00006D80178C74A762353540178491C017010
:1049B00001781F2906D80178C24A30235354017860
:1049C000491C017001781F2906D80178BD4A34239B
:1049D00053540178491C017001781F2906D80178C9
:1049E000B84A302353540178491C017001781F29BB
:1049F00000D9A1E30178B34A3123535499E307273F
:104A0000002E00D19FE35620C143304630380A289B
:104A100033D20A462732ECE001220020AB49096B71
:104A20000D91C860637820785A280CD2002B00D1F1
:104A300072E35620C543184630380A2825D2284646
:104A400027300C90EEE0002B00D165E35620C043E8
:104A5000194630390A2921D20546273500E10A27AF
:104A6000974801781F2900D96DE30178954A4D23B5
:104A700053540178491C017065E3304641380628DB
:104A800000D3B0E00A462032B3E018464138062889
:104A900000D3C1E0284620300C90C3E019464139CC
:104AA000062900D3D6E005462035D9E03722030990
:104AB000D2180B78834DEA540A78521C0A700A788F
:104AC0001F2A00D938E30F221040092813D83022BA
:104AD00012E0372315095B1905787A4E7355037870
:104AE0005B1C037003781F2B16D80F231A40092A6A
:104AF0000AD8302309E0372210180A78714B9854ED
:104B00000878401C087017E337239A1803786D4D16
:104B1000EA540278521C02700A68120AD2B2037870
:104B20001F2B0CD89F2A01D8302300E0372315090A
:104B30005B190578634E735503785B1C037003782B
:104B40001F2B0DD80F231A40092A01D8302300E06B
:104B500037239A1803785B4DEA540278521C02708E
:104B60000A68120CD2B203781F2B0CD89F2A01D8E6
:104B7000302300E0372315095B190578514E735532
:104B800003785B1C037003781F2B0DD80F231A408A
:104B9000092A01D8302300E037239A180378494DB9
:104BA000EA540278521C02700968090E02781F2A22
:104BB0000CD89F2901D8302200E037220B09D218E7
:104BC0000378404DEA540278521C027002781F2A82
:104BD00000D9B1E20F221140092901D8302200E0AA
:104BE00037225118A2E23046613805280A4600D91A
:104BF000A9E2A378002B00D1A5E2184630380A2894
:104C00000D9302D20B46273346E01846413806285A
:104C10003CD20B4620333FE01846613805280C95FE
:104C200000D979E2A078002800D175E20146303938
:104C30000A2903D229462731099151E00146413919
:104C4000062947D229462031099149E0410D00202B
:104C5000210D0020194661390529054600D95BE27E
:104C6000A678002E00D157E2314630390A2905D204
:104C7000014627310C9151E0210D00203146413988
:104C8000062945D2014620310C9147E0184661388B
:104C900005280B4600D956E2E578002D00D152E2F6
:104CA000284630380A280C9502D2084627304BE0B7
:104CB00028464138062842D20846203044E0C04603
:104CC000410D0020210D0020430D0020B0090020DF
:104CD000420D0020014661390529099500D91BE2E2
:104CE000E1780B91002900D116E216460B9A114685
:104CF00030390A290A9603D22946273108913BE028
:104D000011464139062932D229462031089133E033
:104D10003146613905290C9000D9FDE1E17800297F
:104D200000D1F9E10A920A46303A0A2A01D2273024
:104D30003CE00A46413A062A33D2203036E0613D53
:104D4000052D084600D9FEE12579002D00D1FAE1B4
:104D50000A90284630380A280B9501D22731C2E044
:104D600028464138062800D3B9E02031BBE0613A3B
:104D7000052A089500D9CFE12679002E00D1CBE194
:104D8000314630390A2903D2294627310691FFE0FE
:104D900031464139062900D3F4E0294620310691F5
:104DA000F6E00A46613A052A00D9B5E1EA1812018F
:104DB00092190C9BD218120100230D9DAB60511863
:104DC00008182860032003195878002800D1A3E1AF
:104DD0000A9D5621C9430246303A0A2A01D2273198
:104DE0001EE00246413A062A15D2203118E0012081
:104DF0000EE002200CE003200AE0042008E0052079
:104E000006E0062004E0072002E0082000E024205D
:104E100000F094FB90E10246613A052A00D97BE15B
:104E200008180D990861002D49D0C0B2082800D398
:104E30000820002843D0D91C00220D900DE0D0207E
:104E4000EB181B01E44D2D6BAD189B191818287534
:104E5000891C521C0D98904231D0481E0378002BBB
:104E600000D159E118463038C0B20A2801D2D02505
:104E70000DE018464138C0B2062801D2C92506E027
:104E800018466138C0B2052800D945E1A9250E7839
:104E9000002E00D140E130463038C0B20A28CED3CF
:104EA00030464138C0B2062801D2C920C8E7304692
:104EB0006138C0B2052800D92EE1A920C0E71E251F
:104EC0002846FCF7ADFAC4480021FBF719FF064657
:104ED0002846FCF7AFFA002E00D034E11CE1613D1A
:104EE000052D00D92FE1079308920991601D01213A
:104EF0001CAAFFF7EFFA002800D124E1A01D082129
:104F00000FAAFFF7E7FA002800D11CE120460E3077
:104F100001211BAAFFF7DEFA002800D113E1204689
:104F20000F3008210EAAFFF7D5FA002800D10AE1B8
:104F30002046173001251AAA2946FFF7CBFA002888
:104F400000D100E106950898801900010D994018DC
:104F50000799401808900C980A99081800010B99B5
:104F60004018099947181CA8057868070D901B98E8
:104F70000F9959D400F03CF906460E991A9800F0A2
:104F800037F958E0314661390529069500D9C3E063
:104F900061790791002900D1BEE0079A11463039A6
:104FA0000A2903D22946273104910CE011464139E0
:104FB000062903D229462031049104E0613A052AEA
:104FC000049500D9A8E0A1790591002900D1A3E0BA
:104FD000059A114630390A2903D229462731029110
:104FE0000CE011464139062903D2294620310291AD
:104FF00004E0613A052A029500D98DE0E179039138
:10500000002900D188E0039A114630390A2903D2D9
:105010002946273100913EE011464139062936D212
:1050200029462031009136E000F000F906460E993D
:105030001A9800F0FBF819970899159106992940DC
:105040001891010C139180B21290300C1190B0B2F3
:1050500010900D98C00F1790A807C00F1690280742
:10506000C00F14908E4801781F2906D801788D4A08
:105070004D2353540178491C0170574810A9FBF780
:10508000C5FB38490978002915D10D2714E0613A8C
:10509000052A009540D8217A019100293CD0019A37
:1050A000114630390A2901D227350DE0413A062A46
:1050B00006D2203508E00A27002844D0072742E01E
:1050C00001996139052927D80C99C91809010818CF
:1050D0000999401800010B994018089940180001DF
:1050E0008019069940180001079940180499401842
:1050F00000010599401802994018000103994018D1
:105100000099401800010421019A801840190D9B54
:1051100058609960082056E62178614802781F2A75
:105120000AD85A2901D37A2100E05A2102785D4B2E
:1051300099540178491C01700A480078002801D16F
:10514000FFF7D0FB0A2700202070F8490A780120D9
:105150001F2A05D80A78F64B9F540A78521C0A7009
:105160001DB0F0BD430D002010B5014600200A29F6
:1051700015D00D2909D10A4802780A4900248C5417
:105180000948FAF7E1FF012007E0054A1278054BCC
:105190009954622A03D8541C002001490C7010BD98
:1051A000200D0020BC0C00202807002080B58AB00C
:1051B0000120079000210691059100910191029133
:1051C000039104910991089003486946FBF71EFB7F
:1051D000411E88410AB080BDB009002080B51E2064
:1051E000FCF71EF901480021017080BD420D00202E
:1051F00070B5FF221502002382071C461A4605D50A
:105200004A01D4B22A404E05760F3419060705D557
:10521000E035CE0A2E4049014B0F334340001821A0
:1052200001400C4322431004184370BDFF221202B8
:105230008307580F002B04D4490113460B4000226A
:1052400005E0CB001A40C0188903C90E0023C9B27B
:105250001943C0B21043000408187047B0B5B34DED
:10526000287800281BD04320C000B3490858852166
:10527000890040180168002908D00168002905D07C
:105280000168002902D001680029F3D1A84C2978CF
:105290002046FBF737FA0028F9D100202870B0BD6E
:1052A000410D0020210D002070B5A04D2A788368A3
:1052B000C168042B05D11F2A10D8022907D0542118
:1052C00006E01F2A19D8022910D074210FE05221BC
:1052D0002A78974B99542978491C2970C1792A78E2
:1052E0001F2A1DD89F2912D8302211E072212A7856
:1052F0008F4B99542978491C297041782A781F2AA4
:105300001FD80F221140092913D8302212E037226A
:105310000B09D2182B78864CE2542A78521C2A703A
:105320002A781F2A1DD80F221140092911D83022AE
:1053300010E0372251182A787D4B99542978491C5E
:10534000297001782A781F2A1CD89F2911D8302269
:1053500010E0372251182A78754B99542978491C46
:10536000297081792A781F2A19D89F290ED83022CE
:105370000DE037220B09D2182B786D4CE2542A78B5
:10538000521C2A702A781F2A50D95DE037220B0957
:10539000D2182B78664CE2542A78521C2A702A784C
:1053A0001F2A0DD80F221140092901D8302200E010
:1053B000372251182A785E4B99542978491C297054
:1053C00041792A781F2A0CD89F2901D8302200E081
:1053D00037220B09D2182B78554CE2542A78521CEC
:1053E0002A702A781F2A0DD80F221140092901D8C6
:1053F000302200E0372251182A784D4B99542978F1
:10540000491C297001792A781F2A0CD89F2901D8B4
:10541000302200E037220B09D2182B78444CE2549A
:105420002A78521C2A702A78202A0DD20F220A408C
:10543000092A01D8302100E0372189182A783C4B0D
:1054400099542978491C297001692A781F2A0DD896
:10545000CAB2092A01D8302200E0372251182A782E
:10546000334B99542978491C29700169002902D0CD
:10547000C168022908D12F48007829781F2934D81B
:1054800000282BD10D202AE0002329491A460BE0E1
:105490003024E3182C780B552B785B1C2B70521C96
:1054A000D3B204699C42E6D0C3181B7D2C781F2C14
:1054B0000BD89F2B01D8302400E037241E09A419F3
:1054C0002E788C552C78641C2C702C781F2CE6D8E8
:1054D0000F242340092BDBD93724DAE70A20297867
:1054E000134A50542878401C2870287800281BD074
:1054F0004320C000104908588521890040180168E0
:10550000002908D00168002905D00168002902D0CF
:1055100001680029F3D1064C29782046FBF7F2F800
:105520000028F9D100202870002070BD410D002016
:10553000210D0020430D00208C070020B0B5032270
:1055400013053D490524640401252D06CD600C6139
:105550004B6124285FD8800001A318588746C046B5
:10556000F5550008FB550008FF55000803560008D4
:10557000075600080B5600080F560008175600087B
:105580001556000817560008175600081756000849
:105590001756000817560008175600081756000837
:1055A0001756000817560008175600081756000827
:1055B0001756000817560008175600081756000817
:1055C0001756000817560008175600081756000807
:1055D00017560008175600081756000817560008F7
:1055E00017560008175600081756000817560008E7
:1055F000135600084B2082000CE096220AE03C2261
:1056000008E01E2206E0182204E00C2202E0062236
:1056100000E024224A600848FBF746FA032809D133
:10562000064C054D2046FBF7A1FE2846FBF73CFA49
:105630000328F7D0B0BDC046B0090020F40900200F
:10564000014800787047C046420D002043088B4255
:105650001AD3002203098B4279D3030A8B425ED30B
:10566000030B8B4242D3030C8B4227D30902FF2248
:1056700012BA030C8B4202D31212090203D0030B9D
:105680008B4233D31AE0D3E0411A8041401C70476B
:1056900003460B4371D443088B42F5D30022030920
:1056A0008B4254D3030A8B4239D3030B8B421DD355
:1056B000030C8B4202D394466EE0090AC30B8B4263
:1056C00001D3CB03C01A5241830B8B4201D38B030E
:1056D000C01A5241430B8B4201D34B03C01A5241B3
:1056E000030B8B4201D30B03C01A5241C30A8B42F6
:1056F00001D3CB02C01A5241830A8B4201D38B02E1
:10570000C01A5241430A8B4201D34B02C01A524184
:10571000030A8B4201D30B02C01A5241CDD2C309F6
:105720008B4201D3CB01C01A524183098B4201D372
:105730008B01C01A524143098B4201D34B01C01A5D
:10574000524103098B4201D30B01C01A5241C308D5
:105750008B4201D3CB00C01A524183088B4201D344
:105760008B00C01A524143088B4201D34B00C01A30
:105770005241411A524110007047CA0F00D04942AD
:10578000031000D34042534000229C4603098B4241
:105790002DD3030A8B4212D38901FC2212BA030AC9
:1057A0008B420CD3890192118B4208D3890192114B
:1057B0008B4204D3890137D0921100E08909C309D3
:1057C0008B4201D3CB01C01A524183098B4201D3D2
:1057D0008B01C01A524143098B4201D34B01C01ABD
:1057E000524103098B4201D30B01C01A5241C30835
:1057F0008B4201D3CB00C01A524183088B4201D3A4
:105800008B00C01A5241D9D243088B4201D34B00BE
:10581000C01A5241411A00D2014652411046634615
:105820005B1000D34042704763465B1000D3404298
:1058300001B50021004201D0C9430846C046C04618
:1058400002BD000000000000000001020304060782
:105850000809000000000102030402030405060712
:1058600008090A0B0C0D0E0F1010010203040506A7
:105870000708090A0B0C0D0E0F100000A0580008B5
:105880000000002060010000DA04000860590008F0
:1058900060010020E8110000040100080000000081
:1058A0001379381B08A9041AB5041AD50413013951
:1058B0001B0859081A85041113127A131D3614088F
:1058C00089351B08FD08411AC30C1A3D041A5504FA
:1058D000C11A05201AF9141A11081AED0814090240
:1058E0004313020125C03209041B01020B130524D6
:1058F00016100105240110090104240202052406E2
:1059000017010705820308151009040133020A2E46
:105910000705010240072A810711093744113A029D
:10592000441907112B0A0606112B4001502A075073
:105930000A2204500A16FF941A12171302021E407C
:10594000830440574D1B0203591395061B088F040F
:105950001A81041AB504400904030904B0F7FF1FB3
:04000005080000C12E
:00000001FF
