:020000040800F2
:10000000481A002049010008CD1F0008751F00088C
:1000100000000000000000000000000000000000E0
:10002000000000000000000000000000D11F0008D8
:100030000000000000000000CF1F0008D31F0008D0
:1000400079010008790100087901000879010008A8
:100050007901000879010008790100087901000898
:100060007901000879010008790100087901000888
:100070007901000879010008790100087901000878
:10008000790100080000000000000000790100086C
:1000900000000000790100087901000879010008DA
:1000A00000000000790100087901000879010008CA
:1000B000790100080000000079010008D13F000824
:1000C00000F002F800F030F80CA030C8083824180E
:1000D0002D18671EA246AB4654465D46AC4201D180
:1000E00000F022F87E460F3EB6460FCC0126334282
:1000F00000D0FB1A3343A246AB461847B843000072
:10010000D84300000023002400250026103A01D324
:1001100078C1FBD8520700D330C100D50B607047BF
:100120001FB51FBD10B510BD00F067F91146FFF7F0
:10013000F7FF03F0F5FF00F07FF903B4FFF7F2FFDC
:1001400003BC00F085F900000F4880F308880F48D1
:100150000168090E0E4A914205D10E480E49016010
:100160000E480F4901600F4880470F480047FEE7DF
:10017000FEE7FEE7FEE7FEE7FEE700000B480C495E
:100180000C4A0D4B70470000481A00200400000084
:100190001F00000018100240010000000000014094
:1001A000000000004F200008C10000084814002093
:1001B000481A0020481600204816002001E004C01C
:1001C000091F0429FBD28B0701D50280801CC907B7
:1001D00000D00270704700290BD0C30702D0027014
:1001E000401C491E022904D3830702D50280801CCB
:1001F000891EE3E70022EEE70022DFE70022030981
:100200008B4273D3030A8B4258D3030B8B423CD3EC
:10021000030C8B4221D312E003460B437FD4002210
:1002200043088B4274D303098B425FD3030A8B428A
:1002300044D3030B8B4228D3030C8B420DD309020A
:10024000FF2212BA030C8B4202D31212090265D0AC
:10025000030B8B4219D300E0090AC30B8B4201D375
:10026000CB03C01A5241830B8B4201D38B03C01ABC
:100270005241430B8B4201D34B03C01A5241030B33
:100280008B4201D30B03C01A5241C30A8B4201D3E4
:10029000CB02C01A5241830A8B4201D38B02C01A8F
:1002A0005241430A8B4201D34B02C01A5241030A06
:1002B0008B4201D30B02C01A5241CDD2C3098B42EB
:1002C00001D3CB01C01A524183098B4201D38B0168
:1002D000C01A524143098B4201D34B01C01A52410B
:1002E00003098B4201D30B01C01A5241C3088B4250
:1002F00001D3CB00C01A524183088B4201D38B003B
:10030000C01A524143088B4201D34B00C01A5241DC
:10031000411A00D201465241104670475DE0CA0FB3
:1003200000D04942031000D3404253409C46002273
:1003300003098B422DD3030A8B4212D38901FC227D
:1003400012BA030A8B420CD3890192118B4208D353
:10035000890192118B4204D389013AD0921100E0B5
:100360008909C3098B4201D3CB01C01A52418309C9
:100370008B4201D38B01C01A524143098B4201D3F6
:100380004B01C01A524103098B4201D30B01C01A21
:100390005241C3088B4201D3CB00C01A524183089B
:1003A0008B4201D38B00C01A5241D9D243088B42F1
:1003B00001D34B00C01A5241411A00D201465241AA
:1003C000104663465B1001D34042002B00D54942E2
:1003D000704763465B1000D3404201B504490028D2
:1003E00002DC491C084000E00846C046C04602BD89
:1003F000FFFFFF7F704770477047754600F024F895
:10040000AE46050069465346C008C000854618B090
:1004100020B5FFF7B3FE60BCB64600260027C0C576
:10042000C0C5C0C5C0C5C0C5C0C5C0C5C0C5403DAC
:10043000490849008D46704710B50446C046C0467D
:100440002046FFF77AFE10BD004870477801002073
:1004500001491820ABBEFEE726000200704770B5C8
:100460008C180578401C6B075B0F01D10378401C8A
:100470002A1106D10278401C03E00678401C0E7059
:10048000491C5B1EF9D12B0705D40023521E0DD445
:100490000B70491CFAE70378401CCB1A921C03E04E
:1004A0001D780D70491C5B1C521EF9D5A142D8D392
:1004B000002070BD0020704700207047B0B50E4C82
:1004C0000549002520462A4602F03AF8034920460D
:1004D00002F02EF82846B0BDE4090020FC050020FB
:1004E00010B50146044C204602F022F8204602F0E6
:1004F00000F8002010BDC046CC0D0020EFF31080A6
:1005000072B6FEE7F0B581B000281DD00446202069
:100510000090205C002802D1204600F079F82746A0
:1005200020372068016801252943016000F06EF939
:10053000064620684168C90708D100F067F9801BAA
:100540000B28F6D3012511E001255DE001680222A8
:100550009143016000F05AF9064620684168890716
:100560000AD500F053F9801B0B28F6D36804616AA2
:1005700001436162052046E0217E491E4A424A410C
:10058000D101026880239A4351180160617E491E9F
:100590004A424A419101026840239A43511801603E
:1005A000A17E491E4A424A4151010268009B9A437A
:1005B00051180160E17E491E4A1E914109010268FD
:1005C00010239A4351180160217F491E4A424A4133
:1005D000D100026808239A4351180160617F491EC7
:1005E0004A424A419100026804239A43511801602B
:1005F000261D6ECE13432B433343491E1943C1615D
:100600000025656201203870284601B0F0BD000069
:1006100080B586B000681349884201D006B080BD1D
:1006200001204106104A93680B43936093680B4086
:100630000193019980041168014311601168014020
:1006400000910420059000200390022002900320D6
:100650000490000201900098674801A900F006F894
:1006600006B080BD0064004014100240F0B58BB0AD
:10067000059009910A68002A00D1B4E05B48059909
:10068000814201D0052000E00220009000231D4699
:100690001C460BE03943D160641C0998026810467F
:1006A000E0409B1C2D1D002800D19CE001200690FD
:1006B000A0400240F0D001940895049203252946F9
:1006C0009940C943099A1C4653681E462E40771E1E
:1006D000012F07910393029410D81746059A956845
:1006E0000D40FF68A7402F439760DD06ED0F019C8A
:1006F000A540576887432F43576008E0032E019CAD
:1007000005D12E46059F089D039A029B1FE0059F79
:10071000F86807990840099A9568029B9D4005432F
:10072000FD60022E089D039A11D11C2028400F2144
:100730008140E508AD007D192E6A8E43099A116942
:10074000814031432962089D5268032616409E402D
:10075000386807990840304338609003800F049F41
:100760009AD06E490868069A1043086008681040DD
:100770000A900C2028400F258540032126468E43F1
:100780000A991C4AB158A943B5180926F606059AD4
:10079000B24205D0184EB242009E02D1069E00E041
:1007A000002686400E432E60114A11680998406861
:1007B000C50301D5394300E0B94311605168850391
:1007C00001D5394300E0B94351609168C50201D5B4
:1007D000394300E0B943089D9160D168800200D59B
:1007E00058E7B94357E70BB0F0BDC04600080048D2
:1007F000000401400800014000040048002A02D023
:100800001822815070472822815070471E48006886
:100810007047C046B0B5002823D00446006813498D
:1008200001601349016061684160A1688160FFF760
:10083000EDFF05462068C16849070AD0FFF7E6FFCB
:10084000411B20682829F6D3C1684907F3D003204B
:10085000B0BDE16802698A4205D106490160002005
:10086000B0BD0120B0BD01610020B0BDCCCC000006
:1008700055550000AAAA00001B48007802490A68E2
:10088000101808607047C0464014002010B5064894
:10089000016810220A4302600024204600F006F896
:1008A00000F028F8204610BD00200240B0B50446F4
:1008B0007D20C0000C49097803F0E4FC01460B4898
:1008C000006803F0DFFC01F0AFFA0125032C09D822
:1008D000002807D10025E84321462A4600F02CF8DD
:1008E000034804602846B0BD720100201C000020AF
:1008F0007401002082B0094801680122114301609F
:100900000168114001910199110742680A43426050
:10091000406808400090009802B0704718100240EC
:10092000002805D41F2108400121814001480160B1
:100930007047C04600E100E0002805D403220346CA
:1009400093430A4A9A1803E00C220240064BD2183D
:100950008007C00E8901C9B28140FF23834010681F
:10096000984308431060704714ED00E000E400E095
:10097000F0B502685423D15A01242143D1521721E2
:100980004D0100214155D65A02273743D75240190D
:1009900084600846F0BD7047B0B528240D0609D51F
:1009A000072529404C4300192830002A09D08360CC
:1009B000012108E04C4300192D21C9004018002AEC
:1009C000F5D1C380002101730020B0BD80B52F2276
:1009D0001201835828224A438018C26B184601F03E
:1009E000F7FF80BD80B52F221201835828224A4389
:1009F00080185F2292008258184602F051F880BD9C
:100A000010B507220A4049B2002907D428215143D2
:100A100041182D23DB00C918002304E0282151438D
:100A20004118283101234B700A705522D200835C93
:100A3000012B01D1022010BD841801222270006810
:100A400002F086FD0020207010BDB0B50F220A40D4
:100A500043689A4201D90120B0BD07220A4049B239
:100A6000002907D42821514341182D23DB00C91840
:100A7000002304E0282151434118283101234B7001
:100A800000248C700A705522D200835C012B01D1A6
:100A90000220B0BD851801222A70006802F0CCFD4A
:100AA0002C702046B0BD07220A402821514340182F
:100AB0006121890040587047B0B507240C4049B205
:100AC000002907D42821614341182D25ED0049193B
:100AD000002504E0282161434118283101254D708B
:100AE0000A61CB700C704A78002A00D0CC81022BAE
:100AF00001D100220A715522D200835C012B01D161
:100B00000220B0BD841801222270006802F01CFC93
:100B100000202070B0BDB0B507240C4028216143EF
:100B200041182D25ED004C55491900240D4614356A
:100B30001CC54C70006802F0D3FD2046B0BD10B556
:100B400007220A4043689A4201D9012010BD4BB2E6
:100B5000002B07D428234B43C1182D23DB00C918D1
:100B6000002304E0282151434118283101234B7010
:100B70000A7001228A705523DB00C45C012C01D16C
:100B8000022010BDC4182270006802F08BFD002006
:100B9000207010BDF0B581B007240C4028252946EF
:100BA000614341184C2601278F554C5500240D46B2
:100BB0003C351CC58B6428314F70006802F090FDF5
:100BC000204601B0F0BD0000F0B591B004460068C9
:100BD000012211020D91099291030C9121462431B9
:100BE0000B9103F0FDF901462068090404D5442760
:100BF000C15F002900D583E003F0F2F9F049891FB5
:100C0000084218D05520C000251820684421425AB7
:100C1000EC4B13404352204600F0CAFC28780128D0
:100C200009D000260B980670099828702068314674
:100C300003F021FA2E701725206803F0D1F9014640
:100C400020680C9A114205D04421425AF34B813B53
:100C5000134043526D0103F0C3F901462068890433
:100C600004D54421425AEE4B13404352651903F018
:100C7000B7F901462068C90419D54021425A042316
:100C80009A434252425A08239A43425228780128F2
:100C900004D1002129702046FFF77DFE204600F098
:100CA00099FC20684421425ADE4B1340435203F022
:100CB00097F9000512D520684021425A08231343B2
:100CC0004352024640329388D74E1E409680425A85
:100CD000042313434352204600F0CAFC206803F06B
:100CE0007FF9000630D5206840308188802291430A
:100CF00081802978002915D0204600F0B9FC23E036
:100D00002D21C900089161180691014644312B221A
:100D10001201A2180392099AD3020793D2031092E8
:100D20000E9741E0018804220A43028001880822CC
:100D30000A43028009992970808A80083C22024077
:100D40006A602046FFF727FE206803F049F9800516
:100D500008D520684421425AB44B134043522046E0
:100D600000F04AFC206803F03BF90D99084205D0D9
:100D700020684421425AAE4B1340435211B0F0BD9B
:100D80005022825AA34BC01880182A78D200815270
:100D90000E9F29782046FFF719FE2068C25F0146A2
:100DA0004431002A00D427E70A880F25154007D0D0
:100DB000A900425E96B2002A31D43006EDD56BE12F
:100DC0000021415ED20675D49A4A1140109A11430F
:100DD0000180904909185022805A08180B9D2979E2
:100DE000C9004018001F0088934908406064E16B07
:100DF0000818E063002620463146FFF7E7FD287813
:100E00000028CAD0206C0028C7D10B9B18788021FD
:100E10000143C8B221684C2288521E70BDE74118B8
:100E20000A88844B1A40802313430B80282169438E
:100E3000631808995F18397B00290F9600D194E058
:100E4000FF216C31595C02290A9300D09CE05021AB
:100E5000415A09183A780492D20051180591032199
:100E6000C9015A585B180C990E4200D0ACE0694990
:100E7000059E765A70490E40911B00D200211960E0
:100E8000B24207D804998900425A6C4B1A406C4B05
:100E90005A4042520F99490608D404998900425A8F
:100EA000644B1A40109BC03313434352002E00D0B2
:100EB000CEE0D3E0079A11423CD1002900D46CE780
:100EC00001885C4A114080220A430280514941183E
:100ED0005025425B8918069E3278D2008B5A5649BB
:100EE0000B40F36110D03246716900290CD01646D0
:100EF000D28803F078F8F0697169081870610021F0
:100F00002046FFF76FFD20680188079A114200D044
:100F100043E740494118425B069B1B69002B00D107
:100F2000ECE13E2B00D91CE25D08099E3340EB1832
:100F30009B021EE25021415A364A82185118069DE2
:100F40002A78D2008B5A3C490B40EB61EA8803991E
:100F500003F049F820680188364A114080220A438C
:100F60000280204600F063FB17E75021415A294ACE
:100F7000821851183A78D2008E5A2F490E404BD021
:100F8000FA8879690A9365E039788A00835A294E8C
:100F90003340109EC0361E438652835AC9000A1839
:100FA0005021415A254EF13633424BD0194B9A18F5
:100FB0005118091F0E8820490E4028D14EE0C04626
:100FC00006040000FFFB00001249059E8919091F55
:100FD0000E8819490E40911B00D200211960B242BF
:100FE00007D804998900425A144B1A40144B5A40AE
:100FF00042520F99490608D504998900425A0D4B6F
:101000001A40109BC03313434352002E26D03A8916
:101010001FE0C04606040000002621E080C0FFFF5C
:10102000FFDF0000FFEF0000FFF70000FFFD000002
:10103000FFFE00000F0F0000FF0300000F3F000045
:1010400080A00000F84BD218565AF8490E4005D03F
:101050007A897969334602F0C6FF00E000260A9BD0
:10106000F8698019F861786980197861B869002891
:1010700004D02F20C0001858B04204D93978204637
:10108000FFF7B0FC03E02068394602F029FB0E9F11
:101090000F9E300600D480E6680041002068425A66
:1010A000FA4B1A40109B1A43425228216943671891
:1010B0003D462835E978022920D10D990E423AD1D2
:1010C0005021415AEF4A121852182978CB00D218F1
:1010D000121F1288EC4B1A403B6C9E1A00D200265D
:1010E0003E64934200D88AE0F96B8918F963796C01
:1010F00089187964294602F0F3FAC1E100213964C4
:10110000720662D42922BA5C012A00D138E6002A8C
:101110000E9F00D03DE65021415ADA4A801840180F
:101120002978C900425ADB4B1A404252425A109B5E
:101130001A4342522DE65021415A05910A952978C9
:101140000491C90009183B6C3A46403205465035B7
:1011500002950F96750656D4CA4D49190191059D01
:101160004E5BC9490E40991B00D200211160B34269
:101170000A9D00D887E00C990F9A0A4207D104997A
:101180008900425AC14B1A40C34B1A4342524C2168
:10119000795C012900D068E1F96B89190F91F96335
:1011A000796C89197964B96BBA6C3B4648338A42C9
:1011B00000D3E6E039464C31002A00D102E1002597
:1011C0000D701D600A9D1146FFE02922BA5C012ABC
:1011D0004ED0002A0E9F00D0DBE55021415AA94A8B
:1011E000101840182978C9004018001F0188A94A22
:1011F000114001800188109A11430180C9E5204601
:10120000FFF7E4FB3CE19F4D69180091091F019134
:10121000059D4E5B9C490E40991B00D20021116038
:10122000B3420A9D4CD90C990F9A0A4207D00499EF
:101230008900425A954B1A40974B1A4342524C210F
:10124000795C012900D010E1F96B89190F91F963DC
:10125000796C89197964BA6BBB6C934200D393E0C3
:101260003A464C3200211170002B00D08EE091E004
:101270005022825A834B181880182A78D20080187E
:10128000001F018084E52920385C01283CD000281B
:101290000F9E43D1029F3888019B1818001F0188B8
:1012A0007C4A114001800188109A114301803888DE
:1012B000195A784F39401952195A114319522DE0D1
:1012C0002920385C012831D000280F9E37D1029F99
:1012D00038882B46019D295A6E4A11402952295AB5
:1012E000109A114329521D463888009B195A694F9C
:1012F00039401952195A1143195220E0535A654D79
:101300002B405352535A32E0029A1088019B18180E
:10131000001F00210180108819520F9E2046049959
:10132000FFF754FB0C98064211D09EE0029A1088F9
:101330000021019B19521088009A11520F9E2046DD
:101340000499FFF743FB0C98064200D18DE020681A
:1013500029788900425A4D4B1A404F4B1A4342524A
:1013600083E0DD065B09002D00D15B1E9B02109D12
:101370002B4353520188464A1140484A514001804C
:101380000BE5521A1A6020E0991A13463A46483281
:1013900011601E462921795C01290ED0002951D106
:1013A00002990B88002E28D03E2E41D83146099A4A
:1013B000114072085118890242E002990988019A85
:1013C00056523FE000220A7031462922BA5C012AB7
:1013D0000ED0002A44D1029A1388002918D03E2941
:1013E00033D80A46099D2A404D08AA18920234E0D3
:1013F000029A1288019B995232E0019D595B254A5D
:1014000011405953595B109A114359530A9D19E0E1
:10141000019E9A5B1F4D2A409A539A5B109D2A4366
:101420000A9D9A531CE0C04606040000FF0300001A
:10143000F1067209002900D1521E9102109A11433F
:10144000019A99523A8EB3B20CE0CD064A09002DAA
:1014500000D1521E9202109D2A43019D5A530A9DAB
:101460007A8E8BB20F9902F00FFE206829788900DE
:10147000425A064B30331340109AB0325A4042520F
:101480000E9F8AE406040000FF0300000F0F000017
:101490000F3F0000FF83000080C0000080B000000C
:1014A000F0B589B000285DD004465520C00025184D
:1014B0006878002804D100202870204600F056F8F3
:1014C000204624300790032008956870206802F0B9
:1014D000A9F86168002925D0002215461346282066
:1014E000454365192B54DEB2EE86AA63EA632A648B
:1014F000283501266E70EA705B1CDDB2A942EED879
:10150000002215461346454365192D26F600AB55B6
:10151000AD192A616A61AA61EA706A705B1CDDB26A
:10152000A942F0D8A0680590E068069027461037D9
:10153000E0CFE269236A2068009501960297039242
:101540000493059A069B02F063F80025079805703E
:10155000012008994870E069012804D12046FFF76E
:1015600007FA00E00125284609B0F0BD10B582B0A9
:1015700000680D49884201D002B010BD0120C005AD
:101580000A490A6802430A6009680140019101980A
:101590001F24002120460A46FFF7CEF92046FFF718
:1015A000BFF902B010BDC046005C00401C100240F4
:1015B000B0B504468068022801D0FEF79FFF2F20B7
:1015C00005016059012101F071FB605901F02CFB0C
:1015D000B0BD000010B504468069002806D02C4834
:1015E000016806229143016000F0F7FC2F20000102
:1015F000205801F043FB10BD80B52F210901405850
:1016000001F046FB80BD10B55522D200835C012B52
:1016100001D1022010BD841802462432117001222B
:101620002270006802F027FD0020207010BD80B5F8
:101630002F21090142582B2109014118104601F0C0
:1016400049FB80BDB0B504465520C000215C01298E
:1016500001D10220B0BD251801202870206802F0B9
:10166000ABFC206801F0CCFF00202870B0BD00006A
:1016700010B504462F200001205801F07DFBA06921
:10168000002804D00248016806220A43026010BD07
:1016900010ED00E0F0B585B004468078C007444BFB
:1016A0004DD00120039001071A1F106808400290D6
:1016B00006D1106808431060106808400490049830
:1016C000009201913B4E3068C00511D40398070287
:1016D000306838433060FFF799F805463068384283
:1016E00006D1FFF793F8401B6428F7D903253CE0A7
:1016F000032528022E4B1968014012D0626802406F
:1017000091420ED00398000419681A6802431A60C7
:101710001A6882431A600846274A10401860C807B2
:1017200037D118682449084061680143196002985C
:10173000002804D1009A106801998843106020683D
:10174000C10715D181061BD4810305D519698022F3
:10175000914362690A431A610025400505D518695D
:1017600040218843216901431961284605B0F0BD35
:10177000196903229143A2680A431A618106E3D5DD
:10178000196910229143E2680A431A618103DDD48A
:10179000E2E7FFF73BF806465F4F054B1868800706
:1017A000BFD4FFF733F8801BB842F6D9DDE7C04657
:1017B0002010024000700040FFFCFFFFF0B581B038
:1017C000002848D00446534A1368012003408B4246
:1017D00009D213680126B3430B43136012683240E9
:1017E0008A4200D092E0009121688A07664B11D5A9
:1017F0004A0707D507221202634B1B681343624A4C
:101800001360614B1A68F0239A43A36813435E4A3E
:1018100013605D4BC90720D13E490868012630405E
:10182000009A904205D90868B04308600868C0076C
:101830006CD12078400706D5072000021968814343
:10184000E068084318601A681007810F4F480229A2
:1018500010D204464EE0012658E0616803290DD0FD
:101860001A1F02290FD0012912D1126892030646CD
:101870004CD511E0032926D1454C3BE01A6BD2032D
:10188000064643D508E01268920106463ED503E0BD
:1018900012689207064639D518680326B0430843F4
:1018A0001860FEF7B3FF07461B4D374B18680C2135
:1018B0000140606880008142AED0FEF7A7FFC01BE8
:1018C000A842F2D922E00321CB032F49896A0F24D1
:1018D0000C403049095D94021A40240F2E4D2C5DB6
:1018E0009A4202D033049A4200E0294802F0CAFC2E
:1018F0004443254B18680006000F0849085CC440A3
:101900000C48046000263046FEF7D0FF304601B098
:10191000F0BDC04600200240881300007A44000851
:1019200004480068184909684905490F024A515C92
:10193000C84070471C0000208A440008B0B5124916
:101940000A681007830F1148022B00D2B0BD032B89
:1019500001D10F48B0BD0323DB03896A0F240C407B
:101960000C49095D94021A40240F0B4D2C5D9A42DC
:1019700003D001231B049A4200E0054802F082FCD8
:1019800044432046B0BDC0460410024000127A0015
:10199000006CDC02A244000892440008F0B587B055
:1019A00004460120002C00D138E204902078C007C2
:1019B000F34E05940CD071680C200140042900D02E
:1019C0008BE03068800303D56068002800D117E100
:1019D0002078800721D570680007800F0ED07068CE
:1019E0000C210140082900D098E00320C003716851
:1019F00001400120C003814200D08FE030688007A1
:101A0000059C03D5E068012800D0F9E03068F82192
:101A100088432169C90001433160059C2078000793
:101A200024D42078400734D42078C00600D4CAE0FB
:101A300005984069411D00D1B9E0012800D026E198
:101A4000706B042101437163706B01210143716369
:101A5000FEF7DCFE0546706B800700D5ABE0FEF7B5
:101A6000D5FE411B03200229F5D9D7E1706AE1694F
:101A700000297BD0012108437062FEF7C7FE0546AE
:101A8000706A8007CDD4FEF7C1FE401B0228F7D94B
:101A900072E1012003900107F0690840029006D12D
:101AA000F0690843F061F0690840069006980191DA
:101AB000DB4F3868C00546D40398040238682043D9
:101AC0003860FEF7A3FE0546386820423BD1FEF79A
:101AD0009DFE401B6428F7D94EE17168014008293A
:101AE00008D10320C0037168014001200004814235
:101AF00000D166E7616801204704002900D110E1A8
:101B0000052900D124E1012900D125E10104326831
:101B10008A43326081043068884320E13068059C44
:101B2000E168002932D0012108433060FEF76EFEE3
:101B300005463068800700D568E7FEF767FE401B62
:101B40000228F6D918E105988068002800D1B3E092
:101B5000052800D1C6E0012800D1C7E0306A03990A
:101B600088433062306A04218843C2E001218843FF
:101B70007062FEF74BFE0546706A800700D450E79E
:101B8000FEF744FE401B0228F6D9F5E00121884308
:101B90003060FEF73BFE05463068800700D43CE726
:101BA000FEF734FE411B03200229F5D936E1706BA4
:101BB000042188437063706BF82188430599896913
:101BC000C900014371630598007880060BD57168E0
:101BD0000C2001400C2939D1706BC00303D5059846
:101BE000006A01280CD10598446A002C00D1DEE07F
:101BF00070680C210140082905D1012C00D0C1E0FA
:101C0000049807B0F0BD01200206316804929143A8
:101C100031604706FEF7FAFD0546022C0BD1049C05
:101C20003068384200D1DAE0FEF7F0FD411B0320B6
:101C30000229F5D9F2E03068384200D1B7E0FEF76A
:101C4000E5FD411B03200229F5D9E7E07168014059
:101C5000082905D10320C003716801408142BBD02F
:101C6000706B0599096A002900D1A6E001210C04D6
:101C700020437063FEF7CAFD0546706B2042B2D167
:101C8000FEF7C4FD411B03200229F6D9C6E0706BA4
:101C9000042101437163706B012188437063FEF777
:101CA000B5FD0546706B80078DD5FEF7AFFD411B76
:101CB00003200229F6D9B1E0306A039988433062E3
:101CC000306A042188433062564CFEF79FFD05467A
:101CD000306A80071BD5FEF799FD411B0320A14206
:101CE000F6D99BE0306A042101433162306A0399DE
:101CF000084330624B4CFEF789FD0546306A800789
:101D000005D4FEF783FD401BA042F7D934E00298CA
:101D10000028059C00D087E6F06901998843F061AE
:101D200082E6010432688A4332608004316881436C
:101D30003160FEF76BFD0546059C3068384200D1E6
:101D400046E6FEF763FD411B03206429F5D965E0F3
:101D5000810432680A43326001043068084330600D
:101D6000FEF754FD05463068384200D030E6FEF7F5
:101D70004DFD401B6428F6D9032007B0F0BDC046D6
:101D8000001002400320C20370680240F16A059C03
:101D9000A36A9A42049D0DD10F221140236B9942F0
:101DA00008D191040840E16A8842284636D10020D3
:101DB00007B0F0BD284607B0F0BD01210C04A043D8
:101DC0007063FEF723FD0546706B204200D10AE7E1
:101DD000FEF71CFD411B03200229F5D91EE0F06A25
:101DE0000F218843059A116B0143F1627B20C003E8
:101DF00071688143D06A0843916A01437160306819
:101E000020433060FEF702FD044630683842CED1F0
:101E1000FEF7FCFC011B03200229F6D907B0F0BD38
:101E20000070004088130000401E010E01D0012008
:101E300070470749074A5060074803680B40032171
:101E400089075918016000209060072111607047D0
:101E5000FFFFFF0010E000E020ED00E0F0B583B0F0
:101E600000283FD0044607467437806F002804D10D
:101E700000203870204600F051F82420A067206828
:101E800001680125A9430160204600F04BF90128B3
:101E90003FD0606A002802D0204600F0D9F809201F
:101EA000C00221684A6882434A6088682A229043B7
:101EB000886008680126304308600025FD60FEF751
:101EC000A5FC03462068016809070FD51248009059
:101ED000710500222046029300F0B8F9002803D0D3
:101EE000032516E0012514E02068029B00684007E6
:101EF0000AD509480090B1050022204600F0A6F955
:101F0000002801D0032504E02020A067E0673D7091
:101F10002566284603B0F0BDFFFFFF0180B586B0FF
:101F20000068C149884201D006B080BD1048816870
:101F30000122059252041143816081681140009191
:101F4000009901681143016000681040009003206F
:101F5000049000200390022002900C2001900920A0
:101F6000C006009901A9FEF781FB06B080BDC046FE
:101F700014100240FEE7000080B51048104900220E
:101F800000F0EFFC002801D0FEF7B8FA0B480D492D
:101F900000F022FF002801D0FEF7B0FA07480A49F6
:101FA00000F0BDFA002801D0FEF7A8FA034800F0BF
:101FB0002AFF002801D0FEF7A1FA80BDCC0D002039
:101FC000000000202000002044010020FEE77047B0
:101FD000704780B5FEF750FC80BDB0B598B00BAC33
:101FE000201D3021FEF708F90120139028210B91C4
:101FF00000251495129005950495039502952046A9
:10200000FFF7CCFC002803D0EFF3108072B6FEE798
:102010000A950995032008900720079007A8012436
:102020002146FFF7CBFB002803D0EFF3108072B6F8
:10203000FEE706956004019001A8FFF72BFB00283E
:1020400003D0EFF3108072B6FEE718B0B0BD704752
:10205000B0B5416ACA070CD18A0714D44A071CD408
:102060000A0724D4CA062CD48A0634D44A063CD49F
:102070004CE00122520403685C689443826A224364
:102080005A608A07EAD50122120403685C68944307
:10209000C26A22435A604A07E2D5012292040368C9
:1020A0005C689443026B22435A600A07DAD5012226
:1020B000D20303685C689443426B22435A60CA06A9
:1020C000D2D50122120303689C689443826B224399
:1020D0009A608A06CAD50122520303689C68944319
:1020E000C26B22439A604A0610D50122130502688A
:1020F00054689C43056C2C4354609D4206D10323D5
:102100005B0554689C43436C23435360090607D521
:102110000121C904026853688B43806C18435060E6
:10212000B0BD0000B0B50446006801683D4A0A40F1
:10213000A16823690B4365691D431543E1690D439C
:1021400005600322120343689343E2681A43426026
:10215000A269236A13430B221202856895431D432B
:102160008560314A904209D0304A904208D13048C7
:1021700000688007000F2FA2135802E0002300E040
:1021800010230125EA032F4891420FD1082B43D891
:102190007B441B795B009F44043F203F193F3F3F36
:1021A0001F00FFF7BDFB002817D113E0082B33D821
:1021B0007B441B795B009F44042F242F1D2F2F2F5E
:1021C0002300FFF7ADFB00281BD117E0FFF7B6FB9C
:1021D000002802D100251FE01046400061684A082F
:1021E000101802F04FF81849014015D00007400FB1
:1021F00008430EE0FFF7A2FB002802D100250BE008
:10220000104661684A08101802F03CF880B21028A5
:1022100002D32168C860002500206066A0662846B9
:10222000B0BDC046F369FFEF0044004000380140F4
:102230003010024000000000040000000800000010
:102240000200000000127A00F0FF0000F0B585B037
:10225000049316460F460368D9693940C91B4A42A0
:102260004A410021B24267D1029101467431019185
:102270000A9C01210091C902039106E0D969394005
:10228000C91B4A424A41B24234D1611CF6D00546CC
:10229000FEF7BCFA002C2FD00499401AA0422BD88C
:1022A00028462B6819684907E8D5D969039A11426D
:1022B000E4D003991962EFF31085009E86F310882D
:1022C0000D2149010268044613688B43136085F3AE
:1022D0001088EFF3108086F3108821688A68B24373
:1022E0008A6080F310882020A067E06701990D467E
:1022F0000C351CE002991FE0EFF31080009C84F382
:1023000010880D2149012A6813688B43136080F3FC
:102310001088EFF3108084F3108829688A68A2433C
:102320008A6080F310882020A8677C3501990020FE
:102330000870202028600321084605B0F0BDF0B5E4
:1023400081B00C4605465720C1006F58002F14D0AD
:10235000142060432E18F069002809D06918896894
:10236000282262438918896BFDF748FF002906D0AF
:102370008520800000263E500BE0022609E01C3636
:10238000304600260660284621463246334600F095
:10239000FDFC304601B0F0BD70B505465720C600C3
:1023A000A859812292008418284600F0BCFBA06046
:1023B000A859002808D0A919206808344968CA68B3
:1023C00021469047002070BD022070BDB0B5044684
:1023D000812100F0EDFA0025E5620121204600F0A0
:1023E000E7FA5B20800025508221204600F0E0FAC9
:1023F00025645720C0002158002907D024186068A0
:1024000040688047206800F099FF25600020B0BD3B
:1024100010B55721C90042185368002B0BD0415802
:10242000012040020C182078FF2804D062789B68B5
:102430009847FF202070002010BD00000A21018075
:1024400000487047E00000204321018000487047A9
:102450005800002043210180004870479C00002064
:102460004321018000487047EC000020F0B583B0A4
:102470000446007C012675020028029500D0402504
:1024800081210227204601913A462B4600F0A8FB05
:10249000E662204631463A462B4600F0A1FB5B201F
:1024A00080002650822103220823204600F098FB5A
:1024B00026648720800000F043FF5721C900605048
:1024C000002813D06118019A9200851848680068A6
:1024D000804700262E616E61207C0028029B00D080
:1024E00040232A680121204600F08EFB304603B0CD
:1024F000F0BD10B55721C9004258002A05D0037C11
:102500000121002B03D0402302E0022010BD4B022A
:102510008124A400125900F077FB002010BD00298F
:1025200004D0AF22920081500020704702207047F3
:102530005722D2008058812292008150002070479B
:102540005723DB00C0584123DB00C150C018826014
:1025500000207047F0B583B00E460546A7208000E6
:102560002918CF6902A80024047001A804803057FC
:102570006022024011D0202A1FD1F288002A22D0E6
:1025800000283AD401204002381842707178017056
:102590002846394600F074F84BE070780B281AD0C2
:1025A0000A2821D0002833D10878032836D101A980
:1025B0000222284600F083F83BE02846314600F02E
:1025C00055F8022435E07078096A8B68002431469A
:1025D000224698472DE0087803282AD0284631461D
:1025E00000F044F8022424E0087803281CD102A952
:1025F0000122284600F063F81BE07078096A8B68B6
:1026000039469847F2882846394600F058F810E0D5
:102610002846314600F02AF802240AE028463146CE
:1026200000F024F8022404E02846314600F01EF8A9
:102630000224204603B0F0BD80B5AD22920082583E
:1026400052689047002080BD10B513460A4600240A
:10265000214600F0D9FA204610BD10B513460A46AF
:102660000024214600F092FB204610BD10B5044620
:10267000802100F05FFB0021204600F05BFB10BDD5
:10268000B0B513460A46572189004350A524A4003B
:102690000325055141184B600024214600F0B4FA8F
:1026A0002046B0BD10B5A521890005224250002466
:1026B00021462246234600F0A7FA204610BD10B559
:1026C00013460A46A521890002244450C3610362CF
:1026D0000024214600F05AFB204610BD10B5A5216C
:1026E000890004224250002421462246234600F05D
:1026F0004DFB204610BD000010B50A4603A0284C33
:10270000214600F0D7F8204610BDC0464344432080
:10271000436F6E66696700001220088000487047AA
:102720003001002010B50A4603A01D4C214600F0E0
:10273000C1F8204610BDC04643444320496E74652D
:1027400072666163650000000420088000487047DD
:102750005401002010B50A4603A0114C214600F098
:10276000A9F8204610BDC04643414E4465766963D2
:102770006573000010B50A4603A0094C214600F01D
:1027800099F8204610BDC04643414E5F5553425F05
:10279000436F6E766572746572426173696300009F
:1027A000DC01002010B51A200880404801688268CA
:1027B000521879D041683E4800234376C37543756B
:1027C000C3744374C3734373C3724372C37143715D
:1027D000C3700F2313401407640F052C01D3373344
:1027E00000E030330374540F130F052C01D337333B
:1027F00000E0303383704C0F0B0F052C01D33733BF
:1028000000E03033837413065C0F1B0F052C01D3DB
:10281000373300E03033837313055C0F1B0F052C37
:1028200001D3373300E03033037313045C0F1B0F05
:10283000052C01D3373300E03033837213035C0F70
:102840001B0F052C01D3373300E030330372130222
:102850005C0F1B0F052C01D3373300E0303383713D
:102860001201530F120F052B01D3373200E0303223
:1028700002710A03530F120F052B01D3373200E008
:10288000303202760A02530F120F052B01D3373272
:1028900000E03032827509014A0F090F052A01D381
:1028A000373100E030310175014810BDACF7FF1F32
:1028B0005801002070B5002852D00378002B14D0A6
:1028C000041D0023E51E2D78002D10D0A51E2D78A7
:1028D000002D0ED0651E2D78002D0CD0251D1B1D42
:1028E0002478002C2C46EDD107E0002305E00124DC
:1028F00002E0022400E003242343DBB25B009B1CC4
:10290000138003224A700B700378002B28D0021D1D
:102910000220C5B24B5501231D4300244C55D51E42
:102920002D78002D1CD0861CF6B28D551E438C557B
:10293000951E2D78002D13D0061DF6B28D551E4321
:102940008C55551E2D78002D0AD0861DF6B28D555A
:102950003343CC54141D08301378002B2246D8D1B1
:1029600070BD10B5002811D0A7239B00C3189C6927
:10297000002C01D000249C61002900D05961027014
:102980000121197000F0D6F8002010BD022010BD02
:1029900080B50B2292018058FEF757F8042802D325
:1029A0000220C0B280BDC100F248C840C0B280BDA4
:1029B00080B50B2292018058FEF722F8042802D33A
:1029C0000220C0B280BDC100F848C840C0B280BD7E
:1029D000F0B581B00446A5208000271800290CD04E
:1029E000386A42690220002A05D03B7A032B02D1C3
:1029F00020469047002001B0F0BD3868002816D06E
:102A0000042814D0022816D1206A666AB0421CD964
:102A1000801B206283B2204611461A46FFF71DFE36
:102A2000002120460A460B4600F0EEF803E0802124
:102A3000204600F07FF9387B012803D1002038734D
:102A400001B0F0BD002001B0F0BDE5692846314677
:102A5000FDF7D4FBB54212D3002910D17868854226
:102A60000DD20025204629462A46FFF7F6FD7D6057
:102A7000204629462A462B4600F0C6F8DBE7386A8E
:102A8000C168002904D0387A032801D1204688473C
:102A90008021204600F04EF92046FFF703FECAE7EA
:102AA00070B50546A5208000281800290CD0026AC0
:102AB00092690224002A05D0007A032802D1284610
:102AC00090470024204670BD01680024052915D0D8
:102AD0000329F7D10B2149016B181E6859688E42F2
:102AE00013D9701A1860884200D3084683B228466A
:102AF00011461A46FFF7A8FD204670BD046028461F
:102B0000214600F017F9204670BD016A09690029C5
:102B100004D0007A032801D1284688472846FFF7C9
:102B2000DDFD204670BD80B50B2292018058FDF777
:102B3000BAFF80BD70B50B218A011D4981502F233A
:102B40001B01C85000238B61CB610B6202230B6118
:102B50000824184D0D604C608B6086180846FEF7FF
:102B60009FFC002801D0FDF7C9FC30680024182321
:102B700021462246FDF710FF306880215823224667
:102B8000FDF70AFF30688121C0232246FDF704FFCC
:102B9000306801210D022B4610332246FDF7FCFE62
:102BA0003068822122462B46FDF7F6FE204670BD96
:102BB000C8100020005C00407F220A4028235343B5
:102BC0000B2292018058C01849B2002904D4B521C3
:102BD00049004018007870472A300078704700009C
:102BE00010B514460B22920180581A462346FDF771
:102BF00063FF042802D30220C0B210BDC1006B489D
:102C0000C840C0B210BDC04610B50B24A401005985
:102C1000FDF781FF042802D30220C0B210BDC1001D
:102C20006248C840C0B210BDF0B581B0044600256E
:102C3000402629462A463346FFF7D2FF2B20C00004
:102C4000012727502018C660802120462A46334697
:102C5000FFF7C6FFA5208000255020180772666286
:102C6000A76105616560416A002904D0006A426875
:102C7000002120469047002001B0F0BDA721890027
:102C8000425C042A02D1401841780170002070474C
:102C900080B5A7218900425C032A05D141188969C2
:102CA000C969002900D08847002080BD0174002038
:102CB0007047000080B50B2292018058FEF7A3FCFC
:102CC000042802D30220C0B280BDC1003748C840EA
:102CD000C0B280BDF0B581B00446A5208600A7191A
:102CE0003D461435284600F063F80120A051788B4A
:102CF0007860397D1F200840022808D001280BD0B9
:102D000000280ED12046294600F082F80EE0204629
:102D1000294600F041FA09E02046294600F0D5FA9C
:102D200004E080200140204600F004F8002001B0BB
:102D3000F0BD000080B50B2292018058FDF7FFFE28
:102D4000042802D30220C0B280BDC1001748C84089
:102D5000C0B280BD80B50B2189014058FEF772FCDE
:102D6000042802D30220C0B280BDC1000F48C84071
:102D7000C0B280BD00020102A7218900425C042389
:102D800043544018427000207047000010B50B24D7
:102D9000A4010059FDF7FEFE042802D30220C0B2B0
:102DA00010BDC1000148C840C0B210BD0002010200
:102DB0000A7802704A7842708A78CB781B029A1897
:102DC00042800A794B791B029A1882808A79C979E4
:102DD00009028918C1807047002904D0AD229200F1
:102DE0008150002070470220704780B5AD229200CC
:102DF0008258002A05D012689047411E8841400041
:102E000080BD022080BD80B5FFF7A4FF002080BDFB
:102E100070B582B00D460446097860200840A721AD
:102E200089006618002809D0402801D0202821D127
:102E3000B069826820462946904723E068780928CF
:102E400031D8C0467844007940008744041E2C35B0
:102E50002C3E542C6E7E3078401E022800D98CE027
:102E6000E888022800D0BCE0B068002800D107E163
:102E7000032006E180212046FFF75CFF0021204669
:102E8000FFF758FF002002B070BD3078401E0228C6
:102E900000D97BE068880128F4D10020B06020468A
:102EA000FFF71CFCEEE780212046FFF743FF0021DF
:102EB0002046FFF73FFFE5E768880128E2D10120BF
:102EC000B0602046FFF70AFCDCE7A88800284BD159
:102ED000E888002848D168887F2845D831780329B8
:102EE00000D00DE180212046FFF724FF002120467D
:102EF000FFF720FFC6E701A8002101806888010ACA
:102F0000491E062900D938E14900C046794489881C
:102F100049008F44060077007D00320132018B00AA
:102F20009400207C71690A680DE1E888012836D197
:102F30003078411E02295DD20020A0602146083170
:102F400001222046FFF7BBFB9CE76888914D287063
:102F5000C1B202292CD380212046FFF7EBFE0021CD
:102F60002046FFF7E7FE8DE780212046FFF7E2FECF
:102F700000212046FFF7DEFE84E780212046FFF790
:102F8000D9FE00212046FFF7D5FE7BE780212046B1
:102F9000FFF7D0FE00212046FFF7CCFE72E780212C
:102FA0002046FFF7C7FE00212046FFF7C3FE69E772
:102FB000307803284ED0022855D1002972D0032042
:102FC000307061602046FFF710FF022800D07FE0DC
:102FD00080212046FFF7AEFE00212046FFF7AAFE23
:102FE00050E780212046FFF7A5FE00212046FFF78D
:102FF000A1FE47E703284CD1211D01222046FFF7FF
:103000005EFB3FE7B069217C00294FD0C16A4EE0EA
:10301000C0B2052800D9B0E0784400794000874468
:10302000028184878A8D7069426889E0207C00284B
:1030300000D0A2E0B069416B01A8884785E0207C00
:10304000002800D099E0B069016B01A888470146CB
:10305000072030E0002930D0606801283CD12046AC
:10306000FFF73CFB0EE780212046FFF763FE0021BF
:103070002046FFF75FFE29782046FFF7DDFA01E7DB
:103080000120E06021460C3102222046FFF717FBA9
:10309000F8E680212046FFF74DFE00212046FFF78D
:1030A00049FEEFE62046FFF719FBEBE6816A01A82F
:1030B000884701460220487048E0002060600220F6
:1030C00030702046FFF7B8FA2046FFF707FBD9E635
:1030D0002046FFF703FBD5E6C1B22046FFF7ACFA66
:1030E000297861602046FFF780FE022816D18021F2
:1030F0002046FFF71FFE00212046FFF71BFEC1E61A
:10310000B070C5B220462946FFF7D4FD2046FFF730
:10311000E5FA002D3AD002203070B3E62046FFF7E2
:10312000DDFAAFE6706982680AE07069C26807E09C
:103130007069026904E07069426901E0706982693E
:10314000002A1AD0207C01A99047014601A80288D4
:10315000002A0AD0E888002807D0824200D302461D
:1031600001A802802046FFF7AAFAE888002800D0CC
:1031700088E62046FFF7B2FA84E680212046FFF772
:10318000D9FD00212046FFF7D5FD7BE601203070F8
:1031900078E6C046D8010020B0B50A460446097852
:1031A00060200840A7218900631800280AD0402821
:1031B00001D020281ED1986983682046114698477F
:1031C0000020B0BD1179507800281DD0012829D0E9
:1031D00003283FD11878032827D1508800284BD1E5
:1031E0007F20084048D0D088002845D12046FFF7EE
:1031F000A1FD41E080212046FFF79CFD00212046F3
:10320000FFF798FD0020B0BD552080001A78032AF2
:1032100014D0022A1ED14A061CD109064CD52146DB
:1032200014314AE0187803281ED0022812D148062B
:1032300010D02046FFF77EFD802110E00F220A40CB
:1032400014235343E21880291BD22B23DB00D258CE
:10325000002A19D180212046FFF76CFD002120466D
:10326000FFF768FD0020B0BD50880028CAD148068D
:1032700002D02046FFF78CFB2046FFF72FFA0020F4
:10328000B0BD9269002AE5D07F220A40142353433F
:10329000E518802901D3143500E02D18480605D023
:1032A0002046FFF789FC411E884100E0002028608D
:1032B00002222046294604E021180020086002224C
:1032C0002046FFF7FCF90020B0BDB0B50D4604461E
:1032D00009786020084003D0402801D0202814D16C
:1032E000A720800020180178491E022903D8A98848
:1032F0000906490E13D080212046FFF71BFD00214F
:103300002046FFF717FD0020B0BD80212046FFF7C3
:1033100011FD00212046FFF70DFD0020B0BD8069A2
:103320008268204629469047E9880029F5D100287F
:10333000F3D12046FFF7D2F90020B0BD704700005E
:1033400000487047DC030020F0B583B002460F78D8
:10335000B8001318105A774C0440CE78032E0FD8BB
:1033600000200290B00001A5285887467D33000850
:1033700087330008933300088D330008012006E0EE
:103380000120029005E00120800201E003204002BC
:103390000443694804431C801C88BE4D2C403C43B8
:1033A00004431C80087B654D0028019603D0022E43
:1033B00023D0284622E05020105A0090C8880124CB
:1033C000A043FF004E78002E75D0D119009A8918BD
:1033D000A202885218884006AE4A05D518881040C7
:1033E0002946403101431980303219881140019833
:1033F0000128029C73D1294397E051481C88514E03
:10340000264006431E805020145AFE0096190127BC
:10341000BD027519FE430F8937402F53105A2818E3
:103420004A8932408280AC4A1446F13418882040E0
:10343000497800291CD00028029C964E04D0188898
:1034400030406E4901431980188840063B4D05D530
:103450001888304029464031014319803036188899
:1034600030400199012920D02946203148401DE0F3
:103470000028029C874E04D0188830405F490143E1
:103480001980188840062D4D05D5188830402946EA
:10349000403101431980188810402B494140198060
:1034A00030361988314029433FE028431880198875
:1034B0001140294339E0D6195032A702F619009F6E
:1034C000F719B880B61D0869118800280AD03E286F
:1034D00011D80440400800198502029C14E02035F0
:1034E000694022E0885B194A02408A53885B803D2C
:1034F0000543029C08E0C2064009002A029C00D154
:10350000401E8002803D05438D5319887248024653
:10351000F132114205D019885E4A1140374A0A43F8
:103520001A801A880240084951401980204603B089
:10353000F0BDC0468F89FFFF8080FFFF80800000C4
:103540008081FFFF0F0E000080B0FFFFFF830000AF
:10355000F0B50A789200875A80184A780B7B264982
:10356000002B28D05C4E3346F1331F40494B002AD4
:103570002AD04B4D002F03D002881A402A430280E4
:103580001C46303402885206324603D506881E4057
:103590000E43068006881E402E4306800B46403BA5
:1035A000058825401D430580038813404039194391
:1035B00001800020F0BD002A15D0364C2246303262
:1035C0007B060B46F0D5EBE7002F04D002881A40AB
:1035D0000A4C144304801A463032048864060D46AF
:1035E0003446D3D4D6E73C4A1346F1331F42DBD0EE
:1035F000284C2B4BD4E7C046C080000080C0FFFFA2
:103600005821425A0123DB031343435200207047E1
:10361000402201218152002181524030818001826B
:10362000084670474021425A024B13404352002043
:103630007047C0467F400000B0B50A7B002A01D029
:103640000020B0BD0A789200845A80184A78002A77
:103650000ED062060F4A104B05D5048814401D4653
:10366000203525430580C9780129E9D030320BE0A7
:10367000194A1146F131094B0C4205D00188054C1D
:103680000C400749611801800188114059400180B0
:103690000020B0BD0F0F0000A080000080B000002F
:1036A00080C0000010B54B78002B04D0094A002BD5
:1036B00004D1094B03E0064A002BFAD0074B0978E6
:1036C0008900445A1C4054404452002010BDC0465A
:1036D0008090FFFF9080FFFF0F3F00003F0F000032
:1036E000F0B589B007464A78012A57D18C69086934
:1036F000844200D3044626460A7B002A73D00A6A15
:10370000CB78022B00D0AFE0059407960E78B3007B
:10371000FC18FD5AEA4B2B407500824200D806E1A6
:103720000695E84D2B432380059D521B04920A62A7
:1037300023885022BA5AF6003C4650345B0608975C
:103740000394029600D563E1BB199A18DE4BD21898
:10375000121F079C1480AAB24B690193002A00D162
:1037600022E3521C570803223A40089BF74DEB18FE
:103770000D895B199E1F7D1E002A00D156E200951F
:10378000019C237865782D02EB183380012A00D044
:1037900050E2A21CB61C009D2F46E9E2087B0028DF
:1037A00045D0CB78012B00D197E0022B00D0BBE0B5
:1037B000002A00D154E1C869002800D123E108782B
:1037C0008200BB5AE2480340834202D0002B00D063
:1037D00019E1B818DF4A303A03881340DE4A9A18D4
:1037E000103202800FE12204D84B079600D1F7E097
:1037F000A2B2521C5408032222401846DB19CD887D
:103800005B199D1F4E69631E002A00D168E1069373
:103810000897337877783F02FB182B80012A00D075
:103820003AE1B61CAD1C069B1C46089F58E10A698C
:103830008C69A31A00D200238B61944200D31446F2
:103840005020385A3818C14A82180878C300002C12
:1038500000D1C7E03E2C00D9CBE001202040640815
:10386000201880029852CEE0101B0862087882006F
:10387000BA5A5023FB5A5506A2B2C4004000069023
:103880003819C018002D00D583E0B04D4019001F35
:103890000680B04BB14C002A00D108E1501C2A46EA
:1038A0004508384603272F40089010180A898018C9
:1038B000861F4969681E002F00D1FDE00790087837
:1038C0004A78120210183080012F00D031E1891C93
:1038D000B61C07980546089FD0E10B698E69F41A5B
:1038E00000D200248C619E4200D31E46002A00D0E4
:1038F00089E05020385A3818944BC018051F3C46B0
:1039000050340878C200002E00D145E13F2E00D38C
:103910006EE1012030407608301880025053FB18C9
:1039200024881B1998526EE0012009B0F0BD8A4826
:10393000303803432380F00038185023FB5AC01856
:10394000824E8019001F02801004824B834C00D1EC
:1039500020E3069590B2401C4508384603272F40C7
:10396000089030180A898018861F4969681E002F40
:1039700000D1A3E0079008784A781202101830802E
:10398000012F00D0F0E0891CB61C07980546089F5F
:103990009DE16E4BC652714C002A00D189E0501C4B
:1039A0004508384603272F40089018184A89801880
:1039B000861F4969681E002F0CD0079008784A7846
:1039C000120210183080012F00D0D9E0891CB61CDB
:1039D00007980546089F5F4B032800D3A5E1A2E1A5
:1039E000184698E0985A1F24A402A0439852985A67
:1039F00005E0E0066409002800D1641EA002564CD0
:103A0000B03C04439C5208784500554C554BC1E2EC
:103A1000BB199A184D4B079CD452AAB24B6901931B
:103A2000002A00D128E2521C570803223A40089B82
:103A3000464DEB184D895B199E1F7D1E002A00D153
:103A4000F6E00095019C237865782D02EB18338011
:103A5000012A00D0FBE0A21CB61C009D2F46EFE11E
:103A60005020385A3818394BC018051F0E693C468B
:103A700050340878C200002E00D1A3E03F2E00D3BE
:103A8000C5E0012030407608301880025053FB1802
:103A900024881B1998528EE6B378F7783F02FB18FA
:103AA0006B80022A12D1A41E361D2D1D16E0069D24
:103AB00070E2069D274B6DE2089FDFE0089F06E15C
:103AC0000F0E000080810000060400003279737937
:103AD0001B029A18AA80E41EB61DAD1D089F069B06
:103AE000032B18D3327873781B029A182A80B27885
:103AF000F3781B029A186A80327973791B029A183C
:103B0000AA80B279F3791B029A18EA800835241F3B
:103B10000836002CE6D15022BA5AC3199A180978EF
:103B2000CB00D218121F079810804D00094B0B4C88
:103B300030E28878CA78120210187080022F00D004
:103B400092E0AD1E091D361D96E0C0460604000039
:103B5000404000003F0F0000B080FFFFB080000039
:103B600080B000000F3F00008878CA781202101859
:103B70007080022F00D0A0E0AD1E091D361DA4E00C
:103B80008878CA78120210187080022F00D0BDE029
:103B9000AD1E091D361DC1E0505BE94E304050534B
:103BA000505B3E46E74FB03F38435053F0182388F0
:103BB000C018835AFD4C23408352835A3B433746F7
:103BC000835220E7505BF94E30405053505B3E46E5
:103BD000F54FB03F38435053F0182388C018835A2C
:103BE000F24C23408352835A3B4337468352E2E5EB
:103BF000F0067609002800D1761EB002EA4EB03EEB
:103C000006435653F8182388C0188652FBE6F00680
:103C10007609002800D1761EB002E34EB03E06437E
:103C20005653F8182388C0188652C4E5019AA0E0BC
:103C3000019A06E1A378E5782D02EB187380022A39
:103C4000009D00D08CE0BF1E221D361D90E0A378A1
:103C5000E5782D02EB187380022A009D00D0E7E082
:103C6000BF1E221D361DEBE008794A79120210189A
:103C7000B080ED1E891DB61D089F0798032801D24C
:103C8000069D87E108784A781202101830808878FB
:103C9000CA7812021018708008794A791202101836
:103CA000B0808879CA7912021018F08008362D1F6A
:103CB0000831002DE6D1069D6CE108794A7912029F
:103CC0001018B080ED1E891DB61D089F07980328A7
:103CD00001D2069D5EE108784A7812021018308001
:103CE0008878CA7812021018708008794A7912020E
:103CF0001018B0808879CA7912021018F08008363E
:103D00002D1F0831002DE6D1069D43E108794A793F
:103D100012021018B080ED1E891DB61D089FA44B1D
:103D20000798032801D2069D34E108784A781202E8
:103D3000101830808878CA781202101870800879BC
:103D40004A7912021018B0808879CA7912021018C4
:103D5000F08008362D1F0831002DE6D1069D19E1AF
:103D6000227963791B029A18B280FF1EA21DB61D2C
:103D7000079C032D18D3137855782D02EB18338048
:103D80009378D5782D02EB187380137955792D022D
:103D9000EB18B3809379D5792D02EB18F3800836B0
:103DA0003F1F0832002FE6D1049E864200D83446D9
:103DB000029A7C4BD218089BD218039B1B88D452C2
:103DC000059A019B9F184F618642069D01D80022EB
:103DD00000E0B21A0A62A2B2754B764C002A1AD0E1
:103DE000501C450803262E4008986E4A1018498931
:103DF0004018811F681E002E00D185E0079038789A
:103E00007A78120210180880BF1C012E05D1891C77
:103E10000798054678E0089FBCE038787A78120267
:103E200010184880BF1C022E65D1AD1E091D6AE026
:103E3000227963791B029A18B280FF1EA21DB61D5B
:103E4000079C032D18D3137855782D02EB18338077
:103E50009378D5782D02EB187380137955792D025C
:103E6000EB18B3809379D5792D02EB18F3800836DF
:103E70003F1F0832002FE6D1059A019B9F184F6122
:103E8000049B834201D8002200E09A1A039D029EFF
:103E90000A62834200D81C460898424A12189019B8
:103EA0002B88C018001F0480A5B2414B414C002D47
:103EB0006ED0681C450803262E4008891018811F03
:103EC000681E002E49D0079038787A7812021018B0
:103ED0000880BF1C012E03D1891C079805463CE0D1
:103EE00038787A78120210184880BF1C022E2BD125
:103EF000AD1E091D30E038787A78120210188880DB
:103F0000ED1EBF1C891D0798032841D338787A78A5
:103F1000120210180880B878FA7812021018488037
:103F200038797A79120210188880B879FA791202F1
:103F30001018C88008312D1F0837002DE6D127E062
:103F4000FF83FFFFB080FFFF38787A7812021018E5
:103F50008880ED1EBF1C891D0798032818D3387868
:103F60007A78120210180880B878FA7812021018BD
:103F7000488038797A79120210188880B879FA79ED
:103F800012021018C88008312D1F0837002DE6D105
:103F9000089F069D6800395A194061403952002037
:103FA00009B0F0BD06040000B080FFFFFF83FFFFF3
:103FB0003F0F0000B0800000024640320021918097
:103FC0004022024B835208467047C04680BF000023
:103FD00080B50248FCF7F8FD80BDC046C81000203F
:103FE0004421405A704770B580180122920280180F
:103FF000022B31D35A0803251540541E002D14D02E
:1040000006880E70360A4E70012D05D1891C801C61
:104010002246032C0BD21FE046888E70360ACE70E3
:10402000022D1ED1921E091D001D032C14D30488DD
:104030000C70240A4C7044888C70240ACC708488DC
:104040000C71240A4C71C4888C71240ACC7108301C
:10405000121F0831002AEAD1DA0701D0008808705F
:1040600070BD85880D712D0A4D71D21E891D801D70
:10407000032CDCD2F0E7002901D0002070474C214E
:10408000802242520020704770B5002B3CD080182F
:104090000122920280185A1C520803241440531E15
:1040A000002C16D00D784E78360275190580012C3B
:1040B00005D1891C801C1A46032B25D30BE08D7873
:1040C000CE78360275194580022C1ED1921E091D2C
:1040D000001D032B18D30B784C782402E3180380BF
:1040E0008B78CC782402E31843800B794C79240236
:1040F000E31883808B79CC792402E318C3800830DD
:10410000121F0831002AE6D170BD0C794D792D02BD
:104110002C198480D21E891D801D032BF4D3DAE76D
:1041200098B0FCF7B3FB0BAD281D3021FCF764F809
:104130000120139028210B910024149412900594CF
:104140000494039402942846FDF728FC002803D029
:10415000EFF3108072B6FEE70A94099403270897DC
:104160000720079007A801252946FDF727FB00280F
:1041700003D0EFF3108072B6FEE706946E0401964A
:1041800001A8FDF787FA002803D0EFF3108072B67C
:10419000FEE70F94A905324802680A4302600268EC
:1041A0000A40019201990168314301600168314080
:1041B00001910199A90402680A430260006808405D
:1041C00001900198274E304629462246FCF716FBFF
:1041D0000E940D940C950B950BA93046FCF746FAFE
:1041E0002148848329023A0505235B042D061F4ECE
:1041F000C0C0046045608360C26001610838FCF79C
:1042000081F9002803D0EFF3108072B6FEE718485A
:104210000C21184A04624462E1235B021CC0046062
:1042200044608160C46004610C38FDF717FE00280B
:1042300003D0EFF3108072B6FEE7FDF79DFE0E4847
:104240000E4904220E4B036042608160C160FCF79E
:10425000E1FA002803D0EFF3108072B6FEE7FEE724
:104260001410024000140048901000200064004028
:10427000BC13002000440040B8100020FF0F0000D5
:104280000030004043088B421AD3002203098B42BE
:1042900079D3030A8B425ED3030B8B4242D3030CC8
:1042A0008B4227D30902FF2212BA030C8B4202D39E
:1042B0001212090203D0030B8B4233D31AE0D3E06E
:1042C000411A8041401C704703460B4371D4430898
:1042D0008B42F5D3002203098B4254D3030A8B424D
:1042E00039D3030B8B421DD3030C8B4202D394466C
:1042F0006EE0090AC30B8B4201D3CB03C01A5241B3
:10430000830B8B4201D38B03C01A5241430B8B4268
:1043100001D34B03C01A5241030B8B4201D30B0351
:10432000C01A5241C30A8B4201D3CB02C01A524178
:10433000830A8B4201D38B02C01A5241430A8B423B
:1043400001D34B02C01A5241030A8B4201D30B0224
:10435000C01A5241CDD2C3098B4201D3CB01C01A3E
:10436000524183098B4201D38B01C01A5241430948
:104370008B4201D34B01C01A524103098B4201D336
:104380000B01C01A5241C3088B4201D3CB00C01AA3
:10439000524183088B4201D38B00C01A524143081B
:1043A0008B4201D34B00C01A5241411A52411000B6
:1043B0007047CA0F00D04942031000D34042534017
:1043C00000229C4603098B422DD3030A8B4212D351
:1043D0008901FC2212BA030A8B420CD38901921183
:1043E0008B4208D3890192118B4204D3890137D0C3
:1043F000921100E08909C3098B4201D3CB01C01A95
:10440000524183098B4201D38B01C01A52414309A7
:104410008B4201D34B01C01A524103098B4201D395
:104420000B01C01A5241C3088B4201D3CB00C01A02
:10443000524183088B4201D38B00C01A5241D9D21A
:1044400043088B4201D34B00C01A5241411A00D29B
:1044500001465241104663465B1000D3404270470C
:1044600063465B1000D3404201B50021004201D0F9
:10447000C9430846C046C04602BD00000000000017
:104480000000010203040607080900000000010201
:10449000030402030405060708090A0B0C0D0E0F9E
:1044A00010100102030405060708090A0B0C0D0E83
:1044B0000F100000D8440008000000207801000020
:1044C0005E0400089845000878010020D01800001C
:1044D00004010008000000001319271B0849041AF2
:1044E00055041A75041AA50413F9261B082508118A
:1044F00013127A136D241C08CD23201A2510311AAB
:1045000011101A3F101A9904C11A55181A49041AA1
:1045100061041A3D041409024313020125C0320943
:10452000041B01020B1305241610010524011009B8
:104530000104240202052406170107058203081559
:104540001009040133020A2E0705010240072A81DF
:104550000711093744113A02441907112B0A0606BC
:10456000112B4001502A07500A3B04941A121713CA
:1045700002021E40830440574D1B02035913BD0421
:104580001B08B9041AB5041AE10407180403090446
:084590001A031201197E11004B
:04000005080000C12E
:00000001FF
